{
	"contracts/Messenger.sol": {
		"Messenger": {
			"abi": [
				{
					"anonymous": false,
					"inputs": [
						{
							"indexed": true,
							"internalType": "address",
							"name": "from",
							"type": "address"
						},
						{
							"indexed": false,
							"internalType": "uint256",
							"name": "senderTokenId",
							"type": "uint256"
						},
						{
							"indexed": false,
							"internalType": "uint256",
							"name": "channelTokenId",
							"type": "uint256"
						},
						{
							"indexed": false,
							"internalType": "uint256",
							"name": "timestamp",
							"type": "uint256"
						},
						{
							"indexed": false,
							"internalType": "string",
							"name": "message",
							"type": "string"
						}
					],
					"name": "NewChannelMessage",
					"type": "event"
				},
				{
					"anonymous": false,
					"inputs": [
						{
							"indexed": true,
							"internalType": "address",
							"name": "previousOwner",
							"type": "address"
						},
						{
							"indexed": true,
							"internalType": "address",
							"name": "newOwner",
							"type": "address"
						}
					],
					"name": "OwnershipTransferred",
					"type": "event"
				},
				{
					"inputs": [],
					"name": "owner",
					"outputs": [
						{
							"internalType": "address",
							"name": "",
							"type": "address"
						}
					],
					"stateMutability": "view",
					"type": "function"
				},
				{
					"inputs": [],
					"name": "renounceOwnership",
					"outputs": [],
					"stateMutability": "nonpayable",
					"type": "function"
				},
				{
					"inputs": [
						{
							"internalType": "uint256",
							"name": "_senderTokenId",
							"type": "uint256"
						},
						{
							"internalType": "uint256",
							"name": "_channelTokenId",
							"type": "uint256"
						},
						{
							"internalType": "string",
							"name": "_content",
							"type": "string"
						}
					],
					"name": "sendChannelMessage",
					"outputs": [],
					"stateMutability": "nonpayable",
					"type": "function"
				},
				{
					"inputs": [
						{
							"internalType": "address",
							"name": "_address",
							"type": "address"
						}
					],
					"name": "setChannelContractAddress",
					"outputs": [],
					"stateMutability": "nonpayable",
					"type": "function"
				},
				{
					"inputs": [
						{
							"internalType": "address",
							"name": "_address",
							"type": "address"
						}
					],
					"name": "setReceiverContractAddress",
					"outputs": [],
					"stateMutability": "nonpayable",
					"type": "function"
				},
				{
					"inputs": [
						{
							"internalType": "address",
							"name": "_address",
							"type": "address"
						}
					],
					"name": "setSenderContractAddress",
					"outputs": [],
					"stateMutability": "nonpayable",
					"type": "function"
				},
				{
					"inputs": [
						{
							"internalType": "address",
							"name": "newOwner",
							"type": "address"
						}
					],
					"name": "transferOwnership",
					"outputs": [],
					"stateMutability": "nonpayable",
					"type": "function"
				},
				{
					"inputs": [],
					"name": "withdraw",
					"outputs": [],
					"stateMutability": "payable",
					"type": "function"
				}
			],
			"devdoc": {
				"kind": "dev",
				"methods": {
					"owner()": {
						"details": "Returns the address of the current owner."
					},
					"renounceOwnership()": {
						"details": "Leaves the contract without owner. It will not be possible to call `onlyOwner` functions anymore. Can only be called by the current owner. NOTE: Renouncing ownership will leave the contract without an owner, thereby removing any functionality that is only available to the owner."
					},
					"transferOwnership(address)": {
						"details": "Transfers ownership of the contract to a new account (`newOwner`). Can only be called by the current owner."
					}
				},
				"version": 1
			},
			"evm": {
				"assembly": "    /* \"contracts/Messenger.sol\":431:3447  contract Messenger is Ownable {... */\n  mstore(0x40, 0x80)\n    /* \"contracts/Messenger.sol\":1000:1001  0 */\n  0x00\n    /* \"contracts/Messenger.sol\":975:1001  uint replyMessagePrice = 0 */\n  0x01\n  sstore\n    /* \"contracts/Messenger.sol\":431:3447  contract Messenger is Ownable {... */\n  callvalue\n  dup1\n  iszero\n  tag_1\n  jumpi\n  0x00\n  dup1\n  revert\ntag_1:\n  pop\n    /* \"@openzeppelin/contracts/access/Ownable.sol\":936:968  _transferOwnership(_msgSender()) */\n  tag_4\n    /* \"@openzeppelin/contracts/access/Ownable.sol\":955:967  _msgSender() */\n  tag_5\n    /* \"@openzeppelin/contracts/access/Ownable.sol\":955:965  _msgSender */\n  shl(0x20, tag_6)\n    /* \"@openzeppelin/contracts/access/Ownable.sol\":955:967  _msgSender() */\n  0x20\n  shr\n  jump\t// in\ntag_5:\n    /* \"@openzeppelin/contracts/access/Ownable.sol\":936:954  _transferOwnership */\n  shl(0x20, tag_7)\n    /* \"@openzeppelin/contracts/access/Ownable.sol\":936:968  _transferOwnership(_msgSender()) */\n  0x20\n  shr\n  jump\t// in\ntag_4:\n    /* \"contracts/Messenger.sol\":431:3447  contract Messenger is Ownable {... */\n  jump(tag_8)\n    /* \"@openzeppelin/contracts/utils/Context.sol\":640:736  function _msgSender() internal view virtual returns (address) {... */\ntag_6:\n    /* \"@openzeppelin/contracts/utils/Context.sol\":693:700  address */\n  0x00\n    /* \"@openzeppelin/contracts/utils/Context.sol\":719:729  msg.sender */\n  caller\n    /* \"@openzeppelin/contracts/utils/Context.sol\":712:729  return msg.sender */\n  swap1\n  pop\n    /* \"@openzeppelin/contracts/utils/Context.sol\":640:736  function _msgSender() internal view virtual returns (address) {... */\n  swap1\n  jump\t// out\n    /* \"@openzeppelin/contracts/access/Ownable.sol\":2433:2620  function _transferOwnership(address newOwner) internal virtual {... */\ntag_7:\n    /* \"@openzeppelin/contracts/access/Ownable.sol\":2506:2522  address oldOwner */\n  0x00\n    /* \"@openzeppelin/contracts/access/Ownable.sol\":2525:2531  _owner */\n  dup1\n  0x00\n  swap1\n  sload\n  swap1\n  0x0100\n  exp\n  swap1\n  div\n  0xffffffffffffffffffffffffffffffffffffffff\n  and\n    /* \"@openzeppelin/contracts/access/Ownable.sol\":2506:2531  address oldOwner = _owner */\n  swap1\n  pop\n    /* \"@openzeppelin/contracts/access/Ownable.sol\":2550:2558  newOwner */\n  dup2\n    /* \"@openzeppelin/contracts/access/Ownable.sol\":2541:2547  _owner */\n  0x00\n  dup1\n    /* \"@openzeppelin/contracts/access/Ownable.sol\":2541:2558  _owner = newOwner */\n  0x0100\n  exp\n  dup2\n  sload\n  dup2\n  0xffffffffffffffffffffffffffffffffffffffff\n  mul\n  not\n  and\n  swap1\n  dup4\n  0xffffffffffffffffffffffffffffffffffffffff\n  and\n  mul\n  or\n  swap1\n  sstore\n  pop\n    /* \"@openzeppelin/contracts/access/Ownable.sol\":2604:2612  newOwner */\n  dup2\n    /* \"@openzeppelin/contracts/access/Ownable.sol\":2573:2613  OwnershipTransferred(oldOwner, newOwner) */\n  0xffffffffffffffffffffffffffffffffffffffff\n  and\n    /* \"@openzeppelin/contracts/access/Ownable.sol\":2594:2602  oldOwner */\n  dup2\n    /* \"@openzeppelin/contracts/access/Ownable.sol\":2573:2613  OwnershipTransferred(oldOwner, newOwner) */\n  0xffffffffffffffffffffffffffffffffffffffff\n  and\n  0x8be0079c531659141344cd1fd0a4f28419497f9722a3daafe3b4186f6b6457e0\n  mload(0x40)\n  mload(0x40)\n  dup1\n  swap2\n  sub\n  swap1\n  log3\n    /* \"@openzeppelin/contracts/access/Ownable.sol\":2496:2620  {... */\n  pop\n    /* \"@openzeppelin/contracts/access/Ownable.sol\":2433:2620  function _transferOwnership(address newOwner) internal virtual {... */\n  pop\n  jump\t// out\n    /* \"contracts/Messenger.sol\":431:3447  contract Messenger is Ownable {... */\ntag_8:\n  dataSize(sub_0)\n  dup1\n  dataOffset(sub_0)\n  0x00\n  codecopy\n  0x00\n  return\nstop\n\nsub_0: assembly {\n        /* \"contracts/Messenger.sol\":431:3447  contract Messenger is Ownable {... */\n      mstore(0x40, 0x80)\n      jumpi(tag_1, lt(calldatasize, 0x04))\n      shr(0xe0, calldataload(0x00))\n      dup1\n      0x7fd3dc38\n      gt\n      tag_10\n      jumpi\n      dup1\n      0x7fd3dc38\n      eq\n      tag_6\n      jumpi\n      dup1\n      0x8da5cb5b\n      eq\n      tag_7\n      jumpi\n      dup1\n      0xf23c51cd\n      eq\n      tag_8\n      jumpi\n      dup1\n      0xf2fde38b\n      eq\n      tag_9\n      jumpi\n      jump(tag_1)\n    tag_10:\n      dup1\n      0x3ccfd60b\n      eq\n      tag_2\n      jumpi\n      dup1\n      0x48e3e547\n      eq\n      tag_3\n      jumpi\n      dup1\n      0x69b1b300\n      eq\n      tag_4\n      jumpi\n      dup1\n      0x715018a6\n      eq\n      tag_5\n      jumpi\n    tag_1:\n      0x00\n      dup1\n      revert\n        /* \"contracts/Messenger.sol\":3306:3445  function withdraw() public payable onlyOwner {... */\n    tag_2:\n      tag_11\n      tag_12\n      jump\t// in\n    tag_11:\n      stop\n        /* \"contracts/Messenger.sol\":3066:3190  function setChannelContractAddress(address _address) external onlyOwner {... */\n    tag_3:\n      callvalue\n      dup1\n      iszero\n      tag_13\n      jumpi\n      0x00\n      dup1\n      revert\n    tag_13:\n      pop\n      tag_14\n      0x04\n      dup1\n      calldatasize\n      sub\n      dup2\n      add\n      swap1\n      tag_15\n      swap2\n      swap1\n      tag_16\n      jump\t// in\n    tag_15:\n      tag_17\n      jump\t// in\n    tag_14:\n      stop\n        /* \"contracts/Messenger.sol\":1216:1660  function sendChannelMessage(uint _senderTokenId, uint _channelTokenId, string calldata _content) public {... */\n    tag_4:\n      callvalue\n      dup1\n      iszero\n      tag_18\n      jumpi\n      0x00\n      dup1\n      revert\n    tag_18:\n      pop\n      tag_19\n      0x04\n      dup1\n      calldatasize\n      sub\n      dup2\n      add\n      swap1\n      tag_20\n      swap2\n      swap1\n      tag_21\n      jump\t// in\n    tag_20:\n      tag_22\n      jump\t// in\n    tag_19:\n      stop\n        /* \"@openzeppelin/contracts/access/Ownable.sol\":1831:1932  function renounceOwnership() public virtual onlyOwner {... */\n    tag_5:\n      callvalue\n      dup1\n      iszero\n      tag_23\n      jumpi\n      0x00\n      dup1\n      revert\n    tag_23:\n      pop\n      tag_24\n      tag_25\n      jump\t// in\n    tag_24:\n      stop\n        /* \"contracts/Messenger.sol\":2941:3062  function setSenderContractAddress(address _address) external onlyOwner {... */\n    tag_6:\n      callvalue\n      dup1\n      iszero\n      tag_26\n      jumpi\n      0x00\n      dup1\n      revert\n    tag_26:\n      pop\n      tag_27\n      0x04\n      dup1\n      calldatasize\n      sub\n      dup2\n      add\n      swap1\n      tag_28\n      swap2\n      swap1\n      tag_16\n      jump\t// in\n    tag_28:\n      tag_29\n      jump\t// in\n    tag_27:\n      stop\n        /* \"@openzeppelin/contracts/access/Ownable.sol\":1201:1286  function owner() public view virtual returns (address) {... */\n    tag_7:\n      callvalue\n      dup1\n      iszero\n      tag_30\n      jumpi\n      0x00\n      dup1\n      revert\n    tag_30:\n      pop\n      tag_31\n      tag_32\n      jump\t// in\n    tag_31:\n      mload(0x40)\n      tag_33\n      swap2\n      swap1\n      tag_34\n      jump\t// in\n    tag_33:\n      mload(0x40)\n      dup1\n      swap2\n      sub\n      swap1\n      return\n        /* \"contracts/Messenger.sol\":2810:2937  function setReceiverContractAddress(address _address) external onlyOwner {... */\n    tag_8:\n      callvalue\n      dup1\n      iszero\n      tag_35\n      jumpi\n      0x00\n      dup1\n      revert\n    tag_35:\n      pop\n      tag_36\n      0x04\n      dup1\n      calldatasize\n      sub\n      dup2\n      add\n      swap1\n      tag_37\n      swap2\n      swap1\n      tag_16\n      jump\t// in\n    tag_37:\n      tag_38\n      jump\t// in\n    tag_36:\n      stop\n        /* \"@openzeppelin/contracts/access/Ownable.sol\":2081:2279  function transferOwnership(address newOwner) public virtual onlyOwner {... */\n    tag_9:\n      callvalue\n      dup1\n      iszero\n      tag_39\n      jumpi\n      0x00\n      dup1\n      revert\n    tag_39:\n      pop\n      tag_40\n      0x04\n      dup1\n      calldatasize\n      sub\n      dup2\n      add\n      swap1\n      tag_41\n      swap2\n      swap1\n      tag_16\n      jump\t// in\n    tag_41:\n      tag_42\n      jump\t// in\n    tag_40:\n      stop\n        /* \"contracts/Messenger.sol\":3306:3445  function withdraw() public payable onlyOwner {... */\n    tag_12:\n        /* \"@openzeppelin/contracts/access/Ownable.sol\":1094:1107  _checkOwner() */\n      tag_44\n        /* \"@openzeppelin/contracts/access/Ownable.sol\":1094:1105  _checkOwner */\n      tag_45\n        /* \"@openzeppelin/contracts/access/Ownable.sol\":1094:1107  _checkOwner() */\n      jump\t// in\n    tag_44:\n        /* \"contracts/Messenger.sol\":3358:3365  bool os */\n      0x00\n        /* \"contracts/Messenger.sol\":3377:3384  owner() */\n      tag_47\n        /* \"contracts/Messenger.sol\":3377:3382  owner */\n      tag_32\n        /* \"contracts/Messenger.sol\":3377:3384  owner() */\n      jump\t// in\n    tag_47:\n        /* \"contracts/Messenger.sol\":3369:3390  payable(owner()).call */\n      0xffffffffffffffffffffffffffffffffffffffff\n      and\n        /* \"contracts/Messenger.sol\":3397:3418  address(this).balance */\n      selfbalance\n        /* \"contracts/Messenger.sol\":3369:3423  payable(owner()).call{value:address(this).balance}(\"\") */\n      mload(0x40)\n      tag_48\n      swap1\n      tag_49\n      jump\t// in\n    tag_48:\n      0x00\n      mload(0x40)\n      dup1\n      dup4\n      sub\n      dup2\n      dup6\n      dup8\n      gas\n      call\n      swap3\n      pop\n      pop\n      pop\n      returndatasize\n      dup1\n      0x00\n      dup2\n      eq\n      tag_52\n      jumpi\n      mload(0x40)\n      swap2\n      pop\n      and(add(returndatasize, 0x3f), not(0x1f))\n      dup3\n      add\n      0x40\n      mstore\n      returndatasize\n      dup3\n      mstore\n      returndatasize\n      0x00\n      0x20\n      dup5\n      add\n      returndatacopy\n      jump(tag_51)\n    tag_52:\n      0x60\n      swap2\n      pop\n    tag_51:\n      pop\n        /* \"contracts/Messenger.sol\":3357:3423  (bool os,)= payable(owner()).call{value:address(this).balance}(\"\") */\n      pop\n      swap1\n      pop\n        /* \"contracts/Messenger.sol\":3437:3439  os */\n      dup1\n        /* \"contracts/Messenger.sol\":3429:3440  require(os) */\n      tag_53\n      jumpi\n      0x00\n      dup1\n      revert\n    tag_53:\n        /* \"contracts/Messenger.sol\":3351:3445  {... */\n      pop\n        /* \"contracts/Messenger.sol\":3306:3445  function withdraw() public payable onlyOwner {... */\n      jump\t// out\n        /* \"contracts/Messenger.sol\":3066:3190  function setChannelContractAddress(address _address) external onlyOwner {... */\n    tag_17:\n        /* \"@openzeppelin/contracts/access/Ownable.sol\":1094:1107  _checkOwner() */\n      tag_55\n        /* \"@openzeppelin/contracts/access/Ownable.sol\":1094:1105  _checkOwner */\n      tag_45\n        /* \"@openzeppelin/contracts/access/Ownable.sol\":1094:1107  _checkOwner() */\n      jump\t// in\n    tag_55:\n        /* \"contracts/Messenger.sol\":3176:3184  _address */\n      dup1\n        /* \"contracts/Messenger.sol\":3144:3159  channelContract */\n      0x04\n      0x00\n        /* \"contracts/Messenger.sol\":3144:3185  channelContract = IChannelToken(_address) */\n      0x0100\n      exp\n      dup2\n      sload\n      dup2\n      0xffffffffffffffffffffffffffffffffffffffff\n      mul\n      not\n      and\n      swap1\n      dup4\n      0xffffffffffffffffffffffffffffffffffffffff\n      and\n      mul\n      or\n      swap1\n      sstore\n      pop\n        /* \"contracts/Messenger.sol\":3066:3190  function setChannelContractAddress(address _address) external onlyOwner {... */\n      pop\n      jump\t// out\n        /* \"contracts/Messenger.sol\":1216:1660  function sendChannelMessage(uint _senderTokenId, uint _channelTokenId, string calldata _content) public {... */\n    tag_22:\n        /* \"contracts/Messenger.sol\":1440:1441  0 */\n      0x00\n        /* \"contracts/Messenger.sol\":1385:1399  senderContract */\n      0x03\n      0x00\n      swap1\n      sload\n      swap1\n      0x0100\n      exp\n      swap1\n      div\n      0xffffffffffffffffffffffffffffffffffffffff\n      and\n        /* \"contracts/Messenger.sol\":1385:1409  senderContract.balanceOf */\n      0xffffffffffffffffffffffffffffffffffffffff\n      and\n      0xfdd58e\n        /* \"contracts/Messenger.sol\":1410:1420  msg.sender */\n      caller\n        /* \"contracts/Messenger.sol\":1422:1436  _senderTokenId */\n      dup8\n        /* \"contracts/Messenger.sol\":1385:1437  senderContract.balanceOf(msg.sender, _senderTokenId) */\n      mload(0x40)\n      dup4\n      0xffffffff\n      and\n      0xe0\n      shl\n      dup2\n      mstore\n      0x04\n      add\n      tag_58\n      swap3\n      swap2\n      swap1\n      tag_59\n      jump\t// in\n    tag_58:\n      0x20\n      mload(0x40)\n      dup1\n      dup4\n      sub\n      dup2\n      0x00\n      dup8\n      dup1\n      extcodesize\n      iszero\n      dup1\n      iszero\n      tag_60\n      jumpi\n      0x00\n      dup1\n      revert\n    tag_60:\n      pop\n      gas\n      call\n      iszero\n      dup1\n      iszero\n      tag_62\n      jumpi\n      returndatasize\n      0x00\n      dup1\n      returndatacopy\n      revert(0x00, returndatasize)\n    tag_62:\n      pop\n      pop\n      pop\n      pop\n      mload(0x40)\n      returndatasize\n      not(0x1f)\n      0x1f\n      dup3\n      add\n      and\n      dup3\n      add\n      dup1\n      0x40\n      mstore\n      pop\n      dup2\n      add\n      swap1\n      tag_63\n      swap2\n      swap1\n      tag_64\n      jump\t// in\n    tag_63:\n        /* \"contracts/Messenger.sol\":1385:1441  senderContract.balanceOf(msg.sender, _senderTokenId) > 0 */\n      gt\n        /* \"contracts/Messenger.sol\":1385:1503  senderContract.balanceOf(msg.sender, _senderTokenId) > 0 && channelContract.balanceOf(msg.sender, _channelTokenId) > 0 */\n      dup1\n      iszero\n      tag_65\n      jumpi\n      pop\n        /* \"contracts/Messenger.sol\":1502:1503  0 */\n      0x00\n        /* \"contracts/Messenger.sol\":1445:1460  channelContract */\n      0x04\n      0x00\n      swap1\n      sload\n      swap1\n      0x0100\n      exp\n      swap1\n      div\n      0xffffffffffffffffffffffffffffffffffffffff\n      and\n        /* \"contracts/Messenger.sol\":1445:1470  channelContract.balanceOf */\n      0xffffffffffffffffffffffffffffffffffffffff\n      and\n      0xfdd58e\n        /* \"contracts/Messenger.sol\":1471:1481  msg.sender */\n      caller\n        /* \"contracts/Messenger.sol\":1483:1498  _channelTokenId */\n      dup7\n        /* \"contracts/Messenger.sol\":1445:1499  channelContract.balanceOf(msg.sender, _channelTokenId) */\n      mload(0x40)\n      dup4\n      0xffffffff\n      and\n      0xe0\n      shl\n      dup2\n      mstore\n      0x04\n      add\n      tag_66\n      swap3\n      swap2\n      swap1\n      tag_59\n      jump\t// in\n    tag_66:\n      0x20\n      mload(0x40)\n      dup1\n      dup4\n      sub\n      dup2\n      0x00\n      dup8\n      dup1\n      extcodesize\n      iszero\n      dup1\n      iszero\n      tag_67\n      jumpi\n      0x00\n      dup1\n      revert\n    tag_67:\n      pop\n      gas\n      call\n      iszero\n      dup1\n      iszero\n      tag_69\n      jumpi\n      returndatasize\n      0x00\n      dup1\n      returndatacopy\n      revert(0x00, returndatasize)\n    tag_69:\n      pop\n      pop\n      pop\n      pop\n      mload(0x40)\n      returndatasize\n      not(0x1f)\n      0x1f\n      dup3\n      add\n      and\n      dup3\n      add\n      dup1\n      0x40\n      mstore\n      pop\n      dup2\n      add\n      swap1\n      tag_70\n      swap2\n      swap1\n      tag_64\n      jump\t// in\n    tag_70:\n        /* \"contracts/Messenger.sol\":1445:1503  channelContract.balanceOf(msg.sender, _channelTokenId) > 0 */\n      gt\n        /* \"contracts/Messenger.sol\":1385:1503  senderContract.balanceOf(msg.sender, _senderTokenId) > 0 && channelContract.balanceOf(msg.sender, _channelTokenId) > 0 */\n    tag_65:\n        /* \"contracts/Messenger.sol\":1375:1554  require ((senderContract.balanceOf(msg.sender, _senderTokenId) > 0 && channelContract.balanceOf(msg.sender, _channelTokenId) > 0), \"Error: must hold correct sender/channel token\") */\n      tag_71\n      jumpi\n      mload(0x40)\n      0x08c379a000000000000000000000000000000000000000000000000000000000\n      dup2\n      mstore\n      0x04\n      add\n      tag_72\n      swap1\n      tag_73\n      jump\t// in\n    tag_72:\n      mload(0x40)\n      dup1\n      swap2\n      sub\n      swap1\n      revert\n    tag_71:\n        /* \"contracts/Messenger.sol\":1584:1594  msg.sender */\n      caller\n        /* \"contracts/Messenger.sol\":1566:1655  NewChannelMessage(msg.sender, _senderTokenId, _channelTokenId, block.timestamp, _content) */\n      0xffffffffffffffffffffffffffffffffffffffff\n      and\n      0x35324dfc298bc53817f5a12f45c8ea0036078d8e3106a22ef9c557449e86f6a2\n        /* \"contracts/Messenger.sol\":1596:1610  _senderTokenId */\n      dup6\n        /* \"contracts/Messenger.sol\":1612:1627  _channelTokenId */\n      dup6\n        /* \"contracts/Messenger.sol\":1629:1644  block.timestamp */\n      timestamp\n        /* \"contracts/Messenger.sol\":1646:1654  _content */\n      dup7\n      dup7\n        /* \"contracts/Messenger.sol\":1566:1655  NewChannelMessage(msg.sender, _senderTokenId, _channelTokenId, block.timestamp, _content) */\n      mload(0x40)\n      tag_74\n      swap6\n      swap5\n      swap4\n      swap3\n      swap2\n      swap1\n      tag_75\n      jump\t// in\n    tag_74:\n      mload(0x40)\n      dup1\n      swap2\n      sub\n      swap1\n      log2\n        /* \"contracts/Messenger.sol\":1216:1660  function sendChannelMessage(uint _senderTokenId, uint _channelTokenId, string calldata _content) public {... */\n      pop\n      pop\n      pop\n      pop\n      jump\t// out\n        /* \"@openzeppelin/contracts/access/Ownable.sol\":1831:1932  function renounceOwnership() public virtual onlyOwner {... */\n    tag_25:\n        /* \"@openzeppelin/contracts/access/Ownable.sol\":1094:1107  _checkOwner() */\n      tag_77\n        /* \"@openzeppelin/contracts/access/Ownable.sol\":1094:1105  _checkOwner */\n      tag_45\n        /* \"@openzeppelin/contracts/access/Ownable.sol\":1094:1107  _checkOwner() */\n      jump\t// in\n    tag_77:\n        /* \"@openzeppelin/contracts/access/Ownable.sol\":1895:1925  _transferOwnership(address(0)) */\n      tag_79\n        /* \"@openzeppelin/contracts/access/Ownable.sol\":1922:1923  0 */\n      0x00\n        /* \"@openzeppelin/contracts/access/Ownable.sol\":1895:1913  _transferOwnership */\n      tag_80\n        /* \"@openzeppelin/contracts/access/Ownable.sol\":1895:1925  _transferOwnership(address(0)) */\n      jump\t// in\n    tag_79:\n        /* \"@openzeppelin/contracts/access/Ownable.sol\":1831:1932  function renounceOwnership() public virtual onlyOwner {... */\n      jump\t// out\n        /* \"contracts/Messenger.sol\":2941:3062  function setSenderContractAddress(address _address) external onlyOwner {... */\n    tag_29:\n        /* \"@openzeppelin/contracts/access/Ownable.sol\":1094:1107  _checkOwner() */\n      tag_82\n        /* \"@openzeppelin/contracts/access/Ownable.sol\":1094:1105  _checkOwner */\n      tag_45\n        /* \"@openzeppelin/contracts/access/Ownable.sol\":1094:1107  _checkOwner() */\n      jump\t// in\n    tag_82:\n        /* \"contracts/Messenger.sol\":3048:3056  _address */\n      dup1\n        /* \"contracts/Messenger.sol\":3018:3032  senderContract */\n      0x03\n      0x00\n        /* \"contracts/Messenger.sol\":3018:3057  senderContract = ISenderToken(_address) */\n      0x0100\n      exp\n      dup2\n      sload\n      dup2\n      0xffffffffffffffffffffffffffffffffffffffff\n      mul\n      not\n      and\n      swap1\n      dup4\n      0xffffffffffffffffffffffffffffffffffffffff\n      and\n      mul\n      or\n      swap1\n      sstore\n      pop\n        /* \"contracts/Messenger.sol\":2941:3062  function setSenderContractAddress(address _address) external onlyOwner {... */\n      pop\n      jump\t// out\n        /* \"@openzeppelin/contracts/access/Ownable.sol\":1201:1286  function owner() public view virtual returns (address) {... */\n    tag_32:\n        /* \"@openzeppelin/contracts/access/Ownable.sol\":1247:1254  address */\n      0x00\n        /* \"@openzeppelin/contracts/access/Ownable.sol\":1273:1279  _owner */\n      dup1\n      0x00\n      swap1\n      sload\n      swap1\n      0x0100\n      exp\n      swap1\n      div\n      0xffffffffffffffffffffffffffffffffffffffff\n      and\n        /* \"@openzeppelin/contracts/access/Ownable.sol\":1266:1279  return _owner */\n      swap1\n      pop\n        /* \"@openzeppelin/contracts/access/Ownable.sol\":1201:1286  function owner() public view virtual returns (address) {... */\n      swap1\n      jump\t// out\n        /* \"contracts/Messenger.sol\":2810:2937  function setReceiverContractAddress(address _address) external onlyOwner {... */\n    tag_38:\n        /* \"@openzeppelin/contracts/access/Ownable.sol\":1094:1107  _checkOwner() */\n      tag_86\n        /* \"@openzeppelin/contracts/access/Ownable.sol\":1094:1105  _checkOwner */\n      tag_45\n        /* \"@openzeppelin/contracts/access/Ownable.sol\":1094:1107  _checkOwner() */\n      jump\t// in\n    tag_86:\n        /* \"contracts/Messenger.sol\":2923:2931  _address */\n      dup1\n        /* \"contracts/Messenger.sol\":2889:2905  receiverContract */\n      0x02\n      0x00\n        /* \"contracts/Messenger.sol\":2889:2932  receiverContract = IReceiverToken(_address) */\n      0x0100\n      exp\n      dup2\n      sload\n      dup2\n      0xffffffffffffffffffffffffffffffffffffffff\n      mul\n      not\n      and\n      swap1\n      dup4\n      0xffffffffffffffffffffffffffffffffffffffff\n      and\n      mul\n      or\n      swap1\n      sstore\n      pop\n        /* \"contracts/Messenger.sol\":2810:2937  function setReceiverContractAddress(address _address) external onlyOwner {... */\n      pop\n      jump\t// out\n        /* \"@openzeppelin/contracts/access/Ownable.sol\":2081:2279  function transferOwnership(address newOwner) public virtual onlyOwner {... */\n    tag_42:\n        /* \"@openzeppelin/contracts/access/Ownable.sol\":1094:1107  _checkOwner() */\n      tag_89\n        /* \"@openzeppelin/contracts/access/Ownable.sol\":1094:1105  _checkOwner */\n      tag_45\n        /* \"@openzeppelin/contracts/access/Ownable.sol\":1094:1107  _checkOwner() */\n      jump\t// in\n    tag_89:\n        /* \"@openzeppelin/contracts/access/Ownable.sol\":2189:2190  0 */\n      0x00\n        /* \"@openzeppelin/contracts/access/Ownable.sol\":2169:2191  newOwner != address(0) */\n      0xffffffffffffffffffffffffffffffffffffffff\n      and\n        /* \"@openzeppelin/contracts/access/Ownable.sol\":2169:2177  newOwner */\n      dup2\n        /* \"@openzeppelin/contracts/access/Ownable.sol\":2169:2191  newOwner != address(0) */\n      0xffffffffffffffffffffffffffffffffffffffff\n      and\n      eq\n      iszero\n        /* \"@openzeppelin/contracts/access/Ownable.sol\":2161:2234  require(newOwner != address(0), \"Ownable: new owner is the zero address\") */\n      tag_91\n      jumpi\n      mload(0x40)\n      0x08c379a000000000000000000000000000000000000000000000000000000000\n      dup2\n      mstore\n      0x04\n      add\n      tag_92\n      swap1\n      tag_93\n      jump\t// in\n    tag_92:\n      mload(0x40)\n      dup1\n      swap2\n      sub\n      swap1\n      revert\n    tag_91:\n        /* \"@openzeppelin/contracts/access/Ownable.sol\":2244:2272  _transferOwnership(newOwner) */\n      tag_94\n        /* \"@openzeppelin/contracts/access/Ownable.sol\":2263:2271  newOwner */\n      dup2\n        /* \"@openzeppelin/contracts/access/Ownable.sol\":2244:2262  _transferOwnership */\n      tag_80\n        /* \"@openzeppelin/contracts/access/Ownable.sol\":2244:2272  _transferOwnership(newOwner) */\n      jump\t// in\n    tag_94:\n        /* \"@openzeppelin/contracts/access/Ownable.sol\":2081:2279  function transferOwnership(address newOwner) public virtual onlyOwner {... */\n      pop\n      jump\t// out\n        /* \"@openzeppelin/contracts/access/Ownable.sol\":1359:1489  function _checkOwner() internal view virtual {... */\n    tag_45:\n        /* \"@openzeppelin/contracts/access/Ownable.sol\":1433:1445  _msgSender() */\n      tag_96\n        /* \"@openzeppelin/contracts/access/Ownable.sol\":1433:1443  _msgSender */\n      tag_97\n        /* \"@openzeppelin/contracts/access/Ownable.sol\":1433:1445  _msgSender() */\n      jump\t// in\n    tag_96:\n        /* \"@openzeppelin/contracts/access/Ownable.sol\":1422:1445  owner() == _msgSender() */\n      0xffffffffffffffffffffffffffffffffffffffff\n      and\n        /* \"@openzeppelin/contracts/access/Ownable.sol\":1422:1429  owner() */\n      tag_98\n        /* \"@openzeppelin/contracts/access/Ownable.sol\":1422:1427  owner */\n      tag_32\n        /* \"@openzeppelin/contracts/access/Ownable.sol\":1422:1429  owner() */\n      jump\t// in\n    tag_98:\n        /* \"@openzeppelin/contracts/access/Ownable.sol\":1422:1445  owner() == _msgSender() */\n      0xffffffffffffffffffffffffffffffffffffffff\n      and\n      eq\n        /* \"@openzeppelin/contracts/access/Ownable.sol\":1414:1482  require(owner() == _msgSender(), \"Ownable: caller is not the owner\") */\n      tag_99\n      jumpi\n      mload(0x40)\n      0x08c379a000000000000000000000000000000000000000000000000000000000\n      dup2\n      mstore\n      0x04\n      add\n      tag_100\n      swap1\n      tag_101\n      jump\t// in\n    tag_100:\n      mload(0x40)\n      dup1\n      swap2\n      sub\n      swap1\n      revert\n    tag_99:\n        /* \"@openzeppelin/contracts/access/Ownable.sol\":1359:1489  function _checkOwner() internal view virtual {... */\n      jump\t// out\n        /* \"@openzeppelin/contracts/access/Ownable.sol\":2433:2620  function _transferOwnership(address newOwner) internal virtual {... */\n    tag_80:\n        /* \"@openzeppelin/contracts/access/Ownable.sol\":2506:2522  address oldOwner */\n      0x00\n        /* \"@openzeppelin/contracts/access/Ownable.sol\":2525:2531  _owner */\n      dup1\n      0x00\n      swap1\n      sload\n      swap1\n      0x0100\n      exp\n      swap1\n      div\n      0xffffffffffffffffffffffffffffffffffffffff\n      and\n        /* \"@openzeppelin/contracts/access/Ownable.sol\":2506:2531  address oldOwner = _owner */\n      swap1\n      pop\n        /* \"@openzeppelin/contracts/access/Ownable.sol\":2550:2558  newOwner */\n      dup2\n        /* \"@openzeppelin/contracts/access/Ownable.sol\":2541:2547  _owner */\n      0x00\n      dup1\n        /* \"@openzeppelin/contracts/access/Ownable.sol\":2541:2558  _owner = newOwner */\n      0x0100\n      exp\n      dup2\n      sload\n      dup2\n      0xffffffffffffffffffffffffffffffffffffffff\n      mul\n      not\n      and\n      swap1\n      dup4\n      0xffffffffffffffffffffffffffffffffffffffff\n      and\n      mul\n      or\n      swap1\n      sstore\n      pop\n        /* \"@openzeppelin/contracts/access/Ownable.sol\":2604:2612  newOwner */\n      dup2\n        /* \"@openzeppelin/contracts/access/Ownable.sol\":2573:2613  OwnershipTransferred(oldOwner, newOwner) */\n      0xffffffffffffffffffffffffffffffffffffffff\n      and\n        /* \"@openzeppelin/contracts/access/Ownable.sol\":2594:2602  oldOwner */\n      dup2\n        /* \"@openzeppelin/contracts/access/Ownable.sol\":2573:2613  OwnershipTransferred(oldOwner, newOwner) */\n      0xffffffffffffffffffffffffffffffffffffffff\n      and\n      0x8be0079c531659141344cd1fd0a4f28419497f9722a3daafe3b4186f6b6457e0\n      mload(0x40)\n      mload(0x40)\n      dup1\n      swap2\n      sub\n      swap1\n      log3\n        /* \"@openzeppelin/contracts/access/Ownable.sol\":2496:2620  {... */\n      pop\n        /* \"@openzeppelin/contracts/access/Ownable.sol\":2433:2620  function _transferOwnership(address newOwner) internal virtual {... */\n      pop\n      jump\t// out\n        /* \"@openzeppelin/contracts/utils/Context.sol\":640:736  function _msgSender() internal view virtual returns (address) {... */\n    tag_97:\n        /* \"@openzeppelin/contracts/utils/Context.sol\":693:700  address */\n      0x00\n        /* \"@openzeppelin/contracts/utils/Context.sol\":719:729  msg.sender */\n      caller\n        /* \"@openzeppelin/contracts/utils/Context.sol\":712:729  return msg.sender */\n      swap1\n      pop\n        /* \"@openzeppelin/contracts/utils/Context.sol\":640:736  function _msgSender() internal view virtual returns (address) {... */\n      swap1\n      jump\t// out\n        /* \"#utility.yul\":7:146   */\n    tag_105:\n        /* \"#utility.yul\":53:58   */\n      0x00\n        /* \"#utility.yul\":91:97   */\n      dup2\n        /* \"#utility.yul\":78:98   */\n      calldataload\n        /* \"#utility.yul\":69:98   */\n      swap1\n      pop\n        /* \"#utility.yul\":107:140   */\n      tag_107\n        /* \"#utility.yul\":134:139   */\n      dup2\n        /* \"#utility.yul\":107:140   */\n      tag_108\n      jump\t// in\n    tag_107:\n        /* \"#utility.yul\":7:146   */\n      swap3\n      swap2\n      pop\n      pop\n      jump\t// out\n        /* \"#utility.yul\":166:719   */\n    tag_109:\n        /* \"#utility.yul\":224:232   */\n      0x00\n        /* \"#utility.yul\":234:240   */\n      dup1\n        /* \"#utility.yul\":284:287   */\n      dup4\n        /* \"#utility.yul\":277:281   */\n      0x1f\n        /* \"#utility.yul\":269:275   */\n      dup5\n        /* \"#utility.yul\":265:282   */\n      add\n        /* \"#utility.yul\":261:288   */\n      slt\n        /* \"#utility.yul\":251:373   */\n      tag_111\n      jumpi\n        /* \"#utility.yul\":292:371   */\n      tag_112\n      tag_113\n      jump\t// in\n    tag_112:\n        /* \"#utility.yul\":251:373   */\n    tag_111:\n        /* \"#utility.yul\":405:411   */\n      dup3\n        /* \"#utility.yul\":392:412   */\n      calldataload\n        /* \"#utility.yul\":382:412   */\n      swap1\n      pop\n        /* \"#utility.yul\":435:453   */\n      0xffffffffffffffff\n        /* \"#utility.yul\":427:433   */\n      dup2\n        /* \"#utility.yul\":424:454   */\n      gt\n        /* \"#utility.yul\":421:538   */\n      iszero\n      tag_114\n      jumpi\n        /* \"#utility.yul\":457:536   */\n      tag_115\n      tag_116\n      jump\t// in\n    tag_115:\n        /* \"#utility.yul\":421:538   */\n    tag_114:\n        /* \"#utility.yul\":571:575   */\n      0x20\n        /* \"#utility.yul\":563:569   */\n      dup4\n        /* \"#utility.yul\":559:576   */\n      add\n        /* \"#utility.yul\":547:576   */\n      swap2\n      pop\n        /* \"#utility.yul\":625:628   */\n      dup4\n        /* \"#utility.yul\":617:621   */\n      0x01\n        /* \"#utility.yul\":609:615   */\n      dup3\n        /* \"#utility.yul\":605:622   */\n      mul\n        /* \"#utility.yul\":595:603   */\n      dup4\n        /* \"#utility.yul\":591:623   */\n      add\n        /* \"#utility.yul\":588:629   */\n      gt\n        /* \"#utility.yul\":585:713   */\n      iszero\n      tag_117\n      jumpi\n        /* \"#utility.yul\":632:711   */\n      tag_118\n      tag_119\n      jump\t// in\n    tag_118:\n        /* \"#utility.yul\":585:713   */\n    tag_117:\n        /* \"#utility.yul\":166:719   */\n      swap3\n      pop\n      swap3\n      swap1\n      pop\n      jump\t// out\n        /* \"#utility.yul\":725:864   */\n    tag_120:\n        /* \"#utility.yul\":771:776   */\n      0x00\n        /* \"#utility.yul\":809:815   */\n      dup2\n        /* \"#utility.yul\":796:816   */\n      calldataload\n        /* \"#utility.yul\":787:816   */\n      swap1\n      pop\n        /* \"#utility.yul\":825:858   */\n      tag_122\n        /* \"#utility.yul\":852:857   */\n      dup2\n        /* \"#utility.yul\":825:858   */\n      tag_123\n      jump\t// in\n    tag_122:\n        /* \"#utility.yul\":725:864   */\n      swap3\n      swap2\n      pop\n      pop\n      jump\t// out\n        /* \"#utility.yul\":870:1013   */\n    tag_124:\n        /* \"#utility.yul\":927:932   */\n      0x00\n        /* \"#utility.yul\":958:964   */\n      dup2\n        /* \"#utility.yul\":952:965   */\n      mload\n        /* \"#utility.yul\":943:965   */\n      swap1\n      pop\n        /* \"#utility.yul\":974:1007   */\n      tag_126\n        /* \"#utility.yul\":1001:1006   */\n      dup2\n        /* \"#utility.yul\":974:1007   */\n      tag_123\n      jump\t// in\n    tag_126:\n        /* \"#utility.yul\":870:1013   */\n      swap3\n      swap2\n      pop\n      pop\n      jump\t// out\n        /* \"#utility.yul\":1019:1348   */\n    tag_16:\n        /* \"#utility.yul\":1078:1084   */\n      0x00\n        /* \"#utility.yul\":1127:1129   */\n      0x20\n        /* \"#utility.yul\":1115:1124   */\n      dup3\n        /* \"#utility.yul\":1106:1113   */\n      dup5\n        /* \"#utility.yul\":1102:1125   */\n      sub\n        /* \"#utility.yul\":1098:1130   */\n      slt\n        /* \"#utility.yul\":1095:1214   */\n      iszero\n      tag_128\n      jumpi\n        /* \"#utility.yul\":1133:1212   */\n      tag_129\n      tag_130\n      jump\t// in\n    tag_129:\n        /* \"#utility.yul\":1095:1214   */\n    tag_128:\n        /* \"#utility.yul\":1253:1254   */\n      0x00\n        /* \"#utility.yul\":1278:1331   */\n      tag_131\n        /* \"#utility.yul\":1323:1330   */\n      dup5\n        /* \"#utility.yul\":1314:1320   */\n      dup3\n        /* \"#utility.yul\":1303:1312   */\n      dup6\n        /* \"#utility.yul\":1299:1321   */\n      add\n        /* \"#utility.yul\":1278:1331   */\n      tag_105\n      jump\t// in\n    tag_131:\n        /* \"#utility.yul\":1268:1331   */\n      swap2\n      pop\n        /* \"#utility.yul\":1224:1341   */\n      pop\n        /* \"#utility.yul\":1019:1348   */\n      swap3\n      swap2\n      pop\n      pop\n      jump\t// out\n        /* \"#utility.yul\":1354:1705   */\n    tag_64:\n        /* \"#utility.yul\":1424:1430   */\n      0x00\n        /* \"#utility.yul\":1473:1475   */\n      0x20\n        /* \"#utility.yul\":1461:1470   */\n      dup3\n        /* \"#utility.yul\":1452:1459   */\n      dup5\n        /* \"#utility.yul\":1448:1471   */\n      sub\n        /* \"#utility.yul\":1444:1476   */\n      slt\n        /* \"#utility.yul\":1441:1560   */\n      iszero\n      tag_133\n      jumpi\n        /* \"#utility.yul\":1479:1558   */\n      tag_134\n      tag_130\n      jump\t// in\n    tag_134:\n        /* \"#utility.yul\":1441:1560   */\n    tag_133:\n        /* \"#utility.yul\":1599:1600   */\n      0x00\n        /* \"#utility.yul\":1624:1688   */\n      tag_135\n        /* \"#utility.yul\":1680:1687   */\n      dup5\n        /* \"#utility.yul\":1671:1677   */\n      dup3\n        /* \"#utility.yul\":1660:1669   */\n      dup6\n        /* \"#utility.yul\":1656:1678   */\n      add\n        /* \"#utility.yul\":1624:1688   */\n      tag_124\n      jump\t// in\n    tag_135:\n        /* \"#utility.yul\":1614:1688   */\n      swap2\n      pop\n        /* \"#utility.yul\":1570:1698   */\n      pop\n        /* \"#utility.yul\":1354:1705   */\n      swap3\n      swap2\n      pop\n      pop\n      jump\t// out\n        /* \"#utility.yul\":1711:2530   */\n    tag_21:\n        /* \"#utility.yul\":1800:1806   */\n      0x00\n        /* \"#utility.yul\":1808:1814   */\n      dup1\n        /* \"#utility.yul\":1816:1822   */\n      0x00\n        /* \"#utility.yul\":1824:1830   */\n      dup1\n        /* \"#utility.yul\":1873:1875   */\n      0x60\n        /* \"#utility.yul\":1861:1870   */\n      dup6\n        /* \"#utility.yul\":1852:1859   */\n      dup8\n        /* \"#utility.yul\":1848:1871   */\n      sub\n        /* \"#utility.yul\":1844:1876   */\n      slt\n        /* \"#utility.yul\":1841:1960   */\n      iszero\n      tag_137\n      jumpi\n        /* \"#utility.yul\":1879:1958   */\n      tag_138\n      tag_130\n      jump\t// in\n    tag_138:\n        /* \"#utility.yul\":1841:1960   */\n    tag_137:\n        /* \"#utility.yul\":1999:2000   */\n      0x00\n        /* \"#utility.yul\":2024:2077   */\n      tag_139\n        /* \"#utility.yul\":2069:2076   */\n      dup8\n        /* \"#utility.yul\":2060:2066   */\n      dup3\n        /* \"#utility.yul\":2049:2058   */\n      dup9\n        /* \"#utility.yul\":2045:2067   */\n      add\n        /* \"#utility.yul\":2024:2077   */\n      tag_120\n      jump\t// in\n    tag_139:\n        /* \"#utility.yul\":2014:2077   */\n      swap5\n      pop\n        /* \"#utility.yul\":1970:2087   */\n      pop\n        /* \"#utility.yul\":2126:2128   */\n      0x20\n        /* \"#utility.yul\":2152:2205   */\n      tag_140\n        /* \"#utility.yul\":2197:2204   */\n      dup8\n        /* \"#utility.yul\":2188:2194   */\n      dup3\n        /* \"#utility.yul\":2177:2186   */\n      dup9\n        /* \"#utility.yul\":2173:2195   */\n      add\n        /* \"#utility.yul\":2152:2205   */\n      tag_120\n      jump\t// in\n    tag_140:\n        /* \"#utility.yul\":2142:2205   */\n      swap4\n      pop\n        /* \"#utility.yul\":2097:2215   */\n      pop\n        /* \"#utility.yul\":2282:2284   */\n      0x40\n        /* \"#utility.yul\":2271:2280   */\n      dup6\n        /* \"#utility.yul\":2267:2285   */\n      add\n        /* \"#utility.yul\":2254:2286   */\n      calldataload\n        /* \"#utility.yul\":2313:2331   */\n      0xffffffffffffffff\n        /* \"#utility.yul\":2305:2311   */\n      dup2\n        /* \"#utility.yul\":2302:2332   */\n      gt\n        /* \"#utility.yul\":2299:2416   */\n      iszero\n      tag_141\n      jumpi\n        /* \"#utility.yul\":2335:2414   */\n      tag_142\n      tag_143\n      jump\t// in\n    tag_142:\n        /* \"#utility.yul\":2299:2416   */\n    tag_141:\n        /* \"#utility.yul\":2448:2513   */\n      tag_144\n        /* \"#utility.yul\":2505:2512   */\n      dup8\n        /* \"#utility.yul\":2496:2502   */\n      dup3\n        /* \"#utility.yul\":2485:2494   */\n      dup9\n        /* \"#utility.yul\":2481:2503   */\n      add\n        /* \"#utility.yul\":2448:2513   */\n      tag_109\n      jump\t// in\n    tag_144:\n        /* \"#utility.yul\":2430:2513   */\n      swap3\n      pop\n      swap3\n      pop\n        /* \"#utility.yul\":2225:2523   */\n      pop\n        /* \"#utility.yul\":1711:2530   */\n      swap3\n      swap6\n      swap2\n      swap5\n      pop\n      swap3\n      pop\n      jump\t// out\n        /* \"#utility.yul\":2536:2654   */\n    tag_145:\n        /* \"#utility.yul\":2623:2647   */\n      tag_147\n        /* \"#utility.yul\":2641:2646   */\n      dup2\n        /* \"#utility.yul\":2623:2647   */\n      tag_148\n      jump\t// in\n    tag_147:\n        /* \"#utility.yul\":2618:2621   */\n      dup3\n        /* \"#utility.yul\":2611:2648   */\n      mstore\n        /* \"#utility.yul\":2536:2654   */\n      pop\n      pop\n      jump\t// out\n        /* \"#utility.yul\":2684:2988   */\n    tag_149:\n        /* \"#utility.yul\":2782:2785   */\n      0x00\n        /* \"#utility.yul\":2803:2874   */\n      tag_151\n        /* \"#utility.yul\":2867:2873   */\n      dup4\n        /* \"#utility.yul\":2862:2865   */\n      dup6\n        /* \"#utility.yul\":2803:2874   */\n      tag_152\n      jump\t// in\n    tag_151:\n        /* \"#utility.yul\":2796:2874   */\n      swap4\n      pop\n        /* \"#utility.yul\":2884:2927   */\n      tag_153\n        /* \"#utility.yul\":2920:2926   */\n      dup4\n        /* \"#utility.yul\":2915:2918   */\n      dup6\n        /* \"#utility.yul\":2908:2913   */\n      dup5\n        /* \"#utility.yul\":2884:2927   */\n      tag_154\n      jump\t// in\n    tag_153:\n        /* \"#utility.yul\":2952:2981   */\n      tag_155\n        /* \"#utility.yul\":2974:2980   */\n      dup4\n        /* \"#utility.yul\":2952:2981   */\n      tag_156\n      jump\t// in\n    tag_155:\n        /* \"#utility.yul\":2947:2950   */\n      dup5\n        /* \"#utility.yul\":2943:2982   */\n      add\n        /* \"#utility.yul\":2936:2982   */\n      swap1\n      pop\n        /* \"#utility.yul\":2684:2988   */\n      swap4\n      swap3\n      pop\n      pop\n      pop\n      jump\t// out\n        /* \"#utility.yul\":2994:3360   */\n    tag_157:\n        /* \"#utility.yul\":3136:3139   */\n      0x00\n        /* \"#utility.yul\":3157:3224   */\n      tag_159\n        /* \"#utility.yul\":3221:3223   */\n      0x2d\n        /* \"#utility.yul\":3216:3219   */\n      dup4\n        /* \"#utility.yul\":3157:3224   */\n      tag_152\n      jump\t// in\n    tag_159:\n        /* \"#utility.yul\":3150:3224   */\n      swap2\n      pop\n        /* \"#utility.yul\":3233:3326   */\n      tag_160\n        /* \"#utility.yul\":3322:3325   */\n      dup3\n        /* \"#utility.yul\":3233:3326   */\n      tag_161\n      jump\t// in\n    tag_160:\n        /* \"#utility.yul\":3351:3353   */\n      0x40\n        /* \"#utility.yul\":3346:3349   */\n      dup3\n        /* \"#utility.yul\":3342:3354   */\n      add\n        /* \"#utility.yul\":3335:3354   */\n      swap1\n      pop\n        /* \"#utility.yul\":2994:3360   */\n      swap2\n      swap1\n      pop\n      jump\t// out\n        /* \"#utility.yul\":3366:3732   */\n    tag_162:\n        /* \"#utility.yul\":3508:3511   */\n      0x00\n        /* \"#utility.yul\":3529:3596   */\n      tag_164\n        /* \"#utility.yul\":3593:3595   */\n      0x26\n        /* \"#utility.yul\":3588:3591   */\n      dup4\n        /* \"#utility.yul\":3529:3596   */\n      tag_152\n      jump\t// in\n    tag_164:\n        /* \"#utility.yul\":3522:3596   */\n      swap2\n      pop\n        /* \"#utility.yul\":3605:3698   */\n      tag_165\n        /* \"#utility.yul\":3694:3697   */\n      dup3\n        /* \"#utility.yul\":3605:3698   */\n      tag_166\n      jump\t// in\n    tag_165:\n        /* \"#utility.yul\":3723:3725   */\n      0x40\n        /* \"#utility.yul\":3718:3721   */\n      dup3\n        /* \"#utility.yul\":3714:3726   */\n      add\n        /* \"#utility.yul\":3707:3726   */\n      swap1\n      pop\n        /* \"#utility.yul\":3366:3732   */\n      swap2\n      swap1\n      pop\n      jump\t// out\n        /* \"#utility.yul\":3738:4104   */\n    tag_167:\n        /* \"#utility.yul\":3880:3883   */\n      0x00\n        /* \"#utility.yul\":3901:3968   */\n      tag_169\n        /* \"#utility.yul\":3965:3967   */\n      0x20\n        /* \"#utility.yul\":3960:3963   */\n      dup4\n        /* \"#utility.yul\":3901:3968   */\n      tag_152\n      jump\t// in\n    tag_169:\n        /* \"#utility.yul\":3894:3968   */\n      swap2\n      pop\n        /* \"#utility.yul\":3977:4070   */\n      tag_170\n        /* \"#utility.yul\":4066:4069   */\n      dup3\n        /* \"#utility.yul\":3977:4070   */\n      tag_171\n      jump\t// in\n    tag_170:\n        /* \"#utility.yul\":4095:4097   */\n      0x20\n        /* \"#utility.yul\":4090:4093   */\n      dup3\n        /* \"#utility.yul\":4086:4098   */\n      add\n        /* \"#utility.yul\":4079:4098   */\n      swap1\n      pop\n        /* \"#utility.yul\":3738:4104   */\n      swap2\n      swap1\n      pop\n      jump\t// out\n        /* \"#utility.yul\":4110:4508   */\n    tag_172:\n        /* \"#utility.yul\":4269:4272   */\n      0x00\n        /* \"#utility.yul\":4290:4373   */\n      tag_174\n        /* \"#utility.yul\":4371:4372   */\n      0x00\n        /* \"#utility.yul\":4366:4369   */\n      dup4\n        /* \"#utility.yul\":4290:4373   */\n      tag_175\n      jump\t// in\n    tag_174:\n        /* \"#utility.yul\":4283:4373   */\n      swap2\n      pop\n        /* \"#utility.yul\":4382:4475   */\n      tag_176\n        /* \"#utility.yul\":4471:4474   */\n      dup3\n        /* \"#utility.yul\":4382:4475   */\n      tag_177\n      jump\t// in\n    tag_176:\n        /* \"#utility.yul\":4500:4501   */\n      0x00\n        /* \"#utility.yul\":4495:4498   */\n      dup3\n        /* \"#utility.yul\":4491:4502   */\n      add\n        /* \"#utility.yul\":4484:4502   */\n      swap1\n      pop\n        /* \"#utility.yul\":4110:4508   */\n      swap2\n      swap1\n      pop\n      jump\t// out\n        /* \"#utility.yul\":4514:4632   */\n    tag_178:\n        /* \"#utility.yul\":4601:4625   */\n      tag_180\n        /* \"#utility.yul\":4619:4624   */\n      dup2\n        /* \"#utility.yul\":4601:4625   */\n      tag_181\n      jump\t// in\n    tag_180:\n        /* \"#utility.yul\":4596:4599   */\n      dup3\n        /* \"#utility.yul\":4589:4626   */\n      mstore\n        /* \"#utility.yul\":4514:4632   */\n      pop\n      pop\n      jump\t// out\n        /* \"#utility.yul\":4638:5017   */\n    tag_49:\n        /* \"#utility.yul\":4822:4825   */\n      0x00\n        /* \"#utility.yul\":4844:4991   */\n      tag_183\n        /* \"#utility.yul\":4987:4990   */\n      dup3\n        /* \"#utility.yul\":4844:4991   */\n      tag_172\n      jump\t// in\n    tag_183:\n        /* \"#utility.yul\":4837:4991   */\n      swap2\n      pop\n        /* \"#utility.yul\":5008:5011   */\n      dup2\n        /* \"#utility.yul\":5001:5011   */\n      swap1\n      pop\n        /* \"#utility.yul\":4638:5017   */\n      swap2\n      swap1\n      pop\n      jump\t// out\n        /* \"#utility.yul\":5023:5245   */\n    tag_34:\n        /* \"#utility.yul\":5116:5120   */\n      0x00\n        /* \"#utility.yul\":5154:5156   */\n      0x20\n        /* \"#utility.yul\":5143:5152   */\n      dup3\n        /* \"#utility.yul\":5139:5157   */\n      add\n        /* \"#utility.yul\":5131:5157   */\n      swap1\n      pop\n        /* \"#utility.yul\":5167:5238   */\n      tag_185\n        /* \"#utility.yul\":5235:5236   */\n      0x00\n        /* \"#utility.yul\":5224:5233   */\n      dup4\n        /* \"#utility.yul\":5220:5237   */\n      add\n        /* \"#utility.yul\":5211:5217   */\n      dup5\n        /* \"#utility.yul\":5167:5238   */\n      tag_145\n      jump\t// in\n    tag_185:\n        /* \"#utility.yul\":5023:5245   */\n      swap3\n      swap2\n      pop\n      pop\n      jump\t// out\n        /* \"#utility.yul\":5251:5583   */\n    tag_59:\n        /* \"#utility.yul\":5372:5376   */\n      0x00\n        /* \"#utility.yul\":5410:5412   */\n      0x40\n        /* \"#utility.yul\":5399:5408   */\n      dup3\n        /* \"#utility.yul\":5395:5413   */\n      add\n        /* \"#utility.yul\":5387:5413   */\n      swap1\n      pop\n        /* \"#utility.yul\":5423:5494   */\n      tag_187\n        /* \"#utility.yul\":5491:5492   */\n      0x00\n        /* \"#utility.yul\":5480:5489   */\n      dup4\n        /* \"#utility.yul\":5476:5493   */\n      add\n        /* \"#utility.yul\":5467:5473   */\n      dup6\n        /* \"#utility.yul\":5423:5494   */\n      tag_145\n      jump\t// in\n    tag_187:\n        /* \"#utility.yul\":5504:5576   */\n      tag_188\n        /* \"#utility.yul\":5572:5574   */\n      0x20\n        /* \"#utility.yul\":5561:5570   */\n      dup4\n        /* \"#utility.yul\":5557:5575   */\n      add\n        /* \"#utility.yul\":5548:5554   */\n      dup5\n        /* \"#utility.yul\":5504:5576   */\n      tag_178\n      jump\t// in\n    tag_188:\n        /* \"#utility.yul\":5251:5583   */\n      swap4\n      swap3\n      pop\n      pop\n      pop\n      jump\t// out\n        /* \"#utility.yul\":5589:6008   */\n    tag_73:\n        /* \"#utility.yul\":5755:5759   */\n      0x00\n        /* \"#utility.yul\":5793:5795   */\n      0x20\n        /* \"#utility.yul\":5782:5791   */\n      dup3\n        /* \"#utility.yul\":5778:5796   */\n      add\n        /* \"#utility.yul\":5770:5796   */\n      swap1\n      pop\n        /* \"#utility.yul\":5842:5851   */\n      dup2\n        /* \"#utility.yul\":5836:5840   */\n      dup2\n        /* \"#utility.yul\":5832:5852   */\n      sub\n        /* \"#utility.yul\":5828:5829   */\n      0x00\n        /* \"#utility.yul\":5817:5826   */\n      dup4\n        /* \"#utility.yul\":5813:5830   */\n      add\n        /* \"#utility.yul\":5806:5853   */\n      mstore\n        /* \"#utility.yul\":5870:6001   */\n      tag_190\n        /* \"#utility.yul\":5996:6000   */\n      dup2\n        /* \"#utility.yul\":5870:6001   */\n      tag_157\n      jump\t// in\n    tag_190:\n        /* \"#utility.yul\":5862:6001   */\n      swap1\n      pop\n        /* \"#utility.yul\":5589:6008   */\n      swap2\n      swap1\n      pop\n      jump\t// out\n        /* \"#utility.yul\":6014:6433   */\n    tag_93:\n        /* \"#utility.yul\":6180:6184   */\n      0x00\n        /* \"#utility.yul\":6218:6220   */\n      0x20\n        /* \"#utility.yul\":6207:6216   */\n      dup3\n        /* \"#utility.yul\":6203:6221   */\n      add\n        /* \"#utility.yul\":6195:6221   */\n      swap1\n      pop\n        /* \"#utility.yul\":6267:6276   */\n      dup2\n        /* \"#utility.yul\":6261:6265   */\n      dup2\n        /* \"#utility.yul\":6257:6277   */\n      sub\n        /* \"#utility.yul\":6253:6254   */\n      0x00\n        /* \"#utility.yul\":6242:6251   */\n      dup4\n        /* \"#utility.yul\":6238:6255   */\n      add\n        /* \"#utility.yul\":6231:6278   */\n      mstore\n        /* \"#utility.yul\":6295:6426   */\n      tag_192\n        /* \"#utility.yul\":6421:6425   */\n      dup2\n        /* \"#utility.yul\":6295:6426   */\n      tag_162\n      jump\t// in\n    tag_192:\n        /* \"#utility.yul\":6287:6426   */\n      swap1\n      pop\n        /* \"#utility.yul\":6014:6433   */\n      swap2\n      swap1\n      pop\n      jump\t// out\n        /* \"#utility.yul\":6439:6858   */\n    tag_101:\n        /* \"#utility.yul\":6605:6609   */\n      0x00\n        /* \"#utility.yul\":6643:6645   */\n      0x20\n        /* \"#utility.yul\":6632:6641   */\n      dup3\n        /* \"#utility.yul\":6628:6646   */\n      add\n        /* \"#utility.yul\":6620:6646   */\n      swap1\n      pop\n        /* \"#utility.yul\":6692:6701   */\n      dup2\n        /* \"#utility.yul\":6686:6690   */\n      dup2\n        /* \"#utility.yul\":6682:6702   */\n      sub\n        /* \"#utility.yul\":6678:6679   */\n      0x00\n        /* \"#utility.yul\":6667:6676   */\n      dup4\n        /* \"#utility.yul\":6663:6680   */\n      add\n        /* \"#utility.yul\":6656:6703   */\n      mstore\n        /* \"#utility.yul\":6720:6851   */\n      tag_194\n        /* \"#utility.yul\":6846:6850   */\n      dup2\n        /* \"#utility.yul\":6720:6851   */\n      tag_167\n      jump\t// in\n    tag_194:\n        /* \"#utility.yul\":6712:6851   */\n      swap1\n      pop\n        /* \"#utility.yul\":6439:6858   */\n      swap2\n      swap1\n      pop\n      jump\t// out\n        /* \"#utility.yul\":6864:7528   */\n    tag_75:\n        /* \"#utility.yul\":7071:7075   */\n      0x00\n        /* \"#utility.yul\":7109:7112   */\n      0x80\n        /* \"#utility.yul\":7098:7107   */\n      dup3\n        /* \"#utility.yul\":7094:7113   */\n      add\n        /* \"#utility.yul\":7086:7113   */\n      swap1\n      pop\n        /* \"#utility.yul\":7123:7194   */\n      tag_196\n        /* \"#utility.yul\":7191:7192   */\n      0x00\n        /* \"#utility.yul\":7180:7189   */\n      dup4\n        /* \"#utility.yul\":7176:7193   */\n      add\n        /* \"#utility.yul\":7167:7173   */\n      dup9\n        /* \"#utility.yul\":7123:7194   */\n      tag_178\n      jump\t// in\n    tag_196:\n        /* \"#utility.yul\":7204:7276   */\n      tag_197\n        /* \"#utility.yul\":7272:7274   */\n      0x20\n        /* \"#utility.yul\":7261:7270   */\n      dup4\n        /* \"#utility.yul\":7257:7275   */\n      add\n        /* \"#utility.yul\":7248:7254   */\n      dup8\n        /* \"#utility.yul\":7204:7276   */\n      tag_178\n      jump\t// in\n    tag_197:\n        /* \"#utility.yul\":7286:7358   */\n      tag_198\n        /* \"#utility.yul\":7354:7356   */\n      0x40\n        /* \"#utility.yul\":7343:7352   */\n      dup4\n        /* \"#utility.yul\":7339:7357   */\n      add\n        /* \"#utility.yul\":7330:7336   */\n      dup7\n        /* \"#utility.yul\":7286:7358   */\n      tag_178\n      jump\t// in\n    tag_198:\n        /* \"#utility.yul\":7405:7414   */\n      dup2\n        /* \"#utility.yul\":7399:7403   */\n      dup2\n        /* \"#utility.yul\":7395:7415   */\n      sub\n        /* \"#utility.yul\":7390:7392   */\n      0x60\n        /* \"#utility.yul\":7379:7388   */\n      dup4\n        /* \"#utility.yul\":7375:7393   */\n      add\n        /* \"#utility.yul\":7368:7416   */\n      mstore\n        /* \"#utility.yul\":7433:7521   */\n      tag_199\n        /* \"#utility.yul\":7516:7520   */\n      dup2\n        /* \"#utility.yul\":7507:7513   */\n      dup5\n        /* \"#utility.yul\":7499:7505   */\n      dup7\n        /* \"#utility.yul\":7433:7521   */\n      tag_149\n      jump\t// in\n    tag_199:\n        /* \"#utility.yul\":7425:7521   */\n      swap1\n      pop\n        /* \"#utility.yul\":6864:7528   */\n      swap7\n      swap6\n      pop\n      pop\n      pop\n      pop\n      pop\n      pop\n      jump\t// out\n        /* \"#utility.yul\":7615:7762   */\n    tag_175:\n        /* \"#utility.yul\":7716:7727   */\n      0x00\n        /* \"#utility.yul\":7753:7756   */\n      dup2\n        /* \"#utility.yul\":7738:7756   */\n      swap1\n      pop\n        /* \"#utility.yul\":7615:7762   */\n      swap3\n      swap2\n      pop\n      pop\n      jump\t// out\n        /* \"#utility.yul\":7768:7937   */\n    tag_152:\n        /* \"#utility.yul\":7852:7863   */\n      0x00\n        /* \"#utility.yul\":7886:7892   */\n      dup3\n        /* \"#utility.yul\":7881:7884   */\n      dup3\n        /* \"#utility.yul\":7874:7893   */\n      mstore\n        /* \"#utility.yul\":7926:7930   */\n      0x20\n        /* \"#utility.yul\":7921:7924   */\n      dup3\n        /* \"#utility.yul\":7917:7931   */\n      add\n        /* \"#utility.yul\":7902:7931   */\n      swap1\n      pop\n        /* \"#utility.yul\":7768:7937   */\n      swap3\n      swap2\n      pop\n      pop\n      jump\t// out\n        /* \"#utility.yul\":7943:8039   */\n    tag_148:\n        /* \"#utility.yul\":7980:7987   */\n      0x00\n        /* \"#utility.yul\":8009:8033   */\n      tag_205\n        /* \"#utility.yul\":8027:8032   */\n      dup3\n        /* \"#utility.yul\":8009:8033   */\n      tag_206\n      jump\t// in\n    tag_205:\n        /* \"#utility.yul\":7998:8033   */\n      swap1\n      pop\n        /* \"#utility.yul\":7943:8039   */\n      swap2\n      swap1\n      pop\n      jump\t// out\n        /* \"#utility.yul\":8045:8171   */\n    tag_206:\n        /* \"#utility.yul\":8082:8089   */\n      0x00\n        /* \"#utility.yul\":8122:8164   */\n      0xffffffffffffffffffffffffffffffffffffffff\n        /* \"#utility.yul\":8115:8120   */\n      dup3\n        /* \"#utility.yul\":8111:8165   */\n      and\n        /* \"#utility.yul\":8100:8165   */\n      swap1\n      pop\n        /* \"#utility.yul\":8045:8171   */\n      swap2\n      swap1\n      pop\n      jump\t// out\n        /* \"#utility.yul\":8177:8254   */\n    tag_181:\n        /* \"#utility.yul\":8214:8221   */\n      0x00\n        /* \"#utility.yul\":8243:8248   */\n      dup2\n        /* \"#utility.yul\":8232:8248   */\n      swap1\n      pop\n        /* \"#utility.yul\":8177:8254   */\n      swap2\n      swap1\n      pop\n      jump\t// out\n        /* \"#utility.yul\":8260:8414   */\n    tag_154:\n        /* \"#utility.yul\":8344:8350   */\n      dup3\n        /* \"#utility.yul\":8339:8342   */\n      dup2\n        /* \"#utility.yul\":8334:8337   */\n      dup4\n        /* \"#utility.yul\":8321:8351   */\n      calldatacopy\n        /* \"#utility.yul\":8406:8407   */\n      0x00\n        /* \"#utility.yul\":8397:8403   */\n      dup4\n        /* \"#utility.yul\":8392:8395   */\n      dup4\n        /* \"#utility.yul\":8388:8404   */\n      add\n        /* \"#utility.yul\":8381:8408   */\n      mstore\n        /* \"#utility.yul\":8260:8414   */\n      pop\n      pop\n      pop\n      jump\t// out\n        /* \"#utility.yul\":8420:8537   */\n    tag_116:\n        /* \"#utility.yul\":8529:8530   */\n      0x00\n        /* \"#utility.yul\":8526:8527   */\n      dup1\n        /* \"#utility.yul\":8519:8531   */\n      revert\n        /* \"#utility.yul\":8543:8660   */\n    tag_113:\n        /* \"#utility.yul\":8652:8653   */\n      0x00\n        /* \"#utility.yul\":8649:8650   */\n      dup1\n        /* \"#utility.yul\":8642:8654   */\n      revert\n        /* \"#utility.yul\":8666:8783   */\n    tag_119:\n        /* \"#utility.yul\":8775:8776   */\n      0x00\n        /* \"#utility.yul\":8772:8773   */\n      dup1\n        /* \"#utility.yul\":8765:8777   */\n      revert\n        /* \"#utility.yul\":8789:8906   */\n    tag_143:\n        /* \"#utility.yul\":8898:8899   */\n      0x00\n        /* \"#utility.yul\":8895:8896   */\n      dup1\n        /* \"#utility.yul\":8888:8900   */\n      revert\n        /* \"#utility.yul\":8912:9029   */\n    tag_130:\n        /* \"#utility.yul\":9021:9022   */\n      0x00\n        /* \"#utility.yul\":9018:9019   */\n      dup1\n        /* \"#utility.yul\":9011:9023   */\n      revert\n        /* \"#utility.yul\":9035:9137   */\n    tag_156:\n        /* \"#utility.yul\":9076:9082   */\n      0x00\n        /* \"#utility.yul\":9127:9129   */\n      0x1f\n        /* \"#utility.yul\":9123:9130   */\n      not\n        /* \"#utility.yul\":9118:9120   */\n      0x1f\n        /* \"#utility.yul\":9111:9116   */\n      dup4\n        /* \"#utility.yul\":9107:9121   */\n      add\n        /* \"#utility.yul\":9103:9131   */\n      and\n        /* \"#utility.yul\":9093:9131   */\n      swap1\n      pop\n        /* \"#utility.yul\":9035:9137   */\n      swap2\n      swap1\n      pop\n      jump\t// out\n        /* \"#utility.yul\":9143:9375   */\n    tag_161:\n        /* \"#utility.yul\":9283:9317   */\n      0x4572726f723a206d75737420686f6c6420636f72726563742073656e6465722f\n        /* \"#utility.yul\":9279:9280   */\n      0x00\n        /* \"#utility.yul\":9271:9277   */\n      dup3\n        /* \"#utility.yul\":9267:9281   */\n      add\n        /* \"#utility.yul\":9260:9318   */\n      mstore\n        /* \"#utility.yul\":9352:9367   */\n      0x6368616e6e656c20746f6b656e00000000000000000000000000000000000000\n        /* \"#utility.yul\":9347:9349   */\n      0x20\n        /* \"#utility.yul\":9339:9345   */\n      dup3\n        /* \"#utility.yul\":9335:9350   */\n      add\n        /* \"#utility.yul\":9328:9368   */\n      mstore\n        /* \"#utility.yul\":9143:9375   */\n      pop\n      jump\t// out\n        /* \"#utility.yul\":9381:9606   */\n    tag_166:\n        /* \"#utility.yul\":9521:9555   */\n      0x4f776e61626c653a206e6577206f776e657220697320746865207a65726f2061\n        /* \"#utility.yul\":9517:9518   */\n      0x00\n        /* \"#utility.yul\":9509:9515   */\n      dup3\n        /* \"#utility.yul\":9505:9519   */\n      add\n        /* \"#utility.yul\":9498:9556   */\n      mstore\n        /* \"#utility.yul\":9590:9598   */\n      0x6464726573730000000000000000000000000000000000000000000000000000\n        /* \"#utility.yul\":9585:9587   */\n      0x20\n        /* \"#utility.yul\":9577:9583   */\n      dup3\n        /* \"#utility.yul\":9573:9588   */\n      add\n        /* \"#utility.yul\":9566:9599   */\n      mstore\n        /* \"#utility.yul\":9381:9606   */\n      pop\n      jump\t// out\n        /* \"#utility.yul\":9612:9794   */\n    tag_171:\n        /* \"#utility.yul\":9752:9786   */\n      0x4f776e61626c653a2063616c6c6572206973206e6f7420746865206f776e6572\n        /* \"#utility.yul\":9748:9749   */\n      0x00\n        /* \"#utility.yul\":9740:9746   */\n      dup3\n        /* \"#utility.yul\":9736:9750   */\n      add\n        /* \"#utility.yul\":9729:9787   */\n      mstore\n        /* \"#utility.yul\":9612:9794   */\n      pop\n      jump\t// out\n        /* \"#utility.yul\":9800:9914   */\n    tag_177:\n      pop\n      jump\t// out\n        /* \"#utility.yul\":9920:10042   */\n    tag_108:\n        /* \"#utility.yul\":9993:10017   */\n      tag_221\n        /* \"#utility.yul\":10011:10016   */\n      dup2\n        /* \"#utility.yul\":9993:10017   */\n      tag_148\n      jump\t// in\n    tag_221:\n        /* \"#utility.yul\":9986:9991   */\n      dup2\n        /* \"#utility.yul\":9983:10018   */\n      eq\n        /* \"#utility.yul\":9973:10036   */\n      tag_222\n      jumpi\n        /* \"#utility.yul\":10032:10033   */\n      0x00\n        /* \"#utility.yul\":10029:10030   */\n      dup1\n        /* \"#utility.yul\":10022:10034   */\n      revert\n        /* \"#utility.yul\":9973:10036   */\n    tag_222:\n        /* \"#utility.yul\":9920:10042   */\n      pop\n      jump\t// out\n        /* \"#utility.yul\":10048:10170   */\n    tag_123:\n        /* \"#utility.yul\":10121:10145   */\n      tag_224\n        /* \"#utility.yul\":10139:10144   */\n      dup2\n        /* \"#utility.yul\":10121:10145   */\n      tag_181\n      jump\t// in\n    tag_224:\n        /* \"#utility.yul\":10114:10119   */\n      dup2\n        /* \"#utility.yul\":10111:10146   */\n      eq\n        /* \"#utility.yul\":10101:10164   */\n      tag_225\n      jumpi\n        /* \"#utility.yul\":10160:10161   */\n      0x00\n        /* \"#utility.yul\":10157:10158   */\n      dup1\n        /* \"#utility.yul\":10150:10162   */\n      revert\n        /* \"#utility.yul\":10101:10164   */\n    tag_225:\n        /* \"#utility.yul\":10048:10170   */\n      pop\n      jump\t// out\n\n    auxdata: 0xa2646970667358221220630558ff7716f02b9cbedd958b6193c2ca349df20d54b43dc55979800c37657a64736f6c63430008070033\n}\n",
				"bytecode": {
					"linkReferences": {},
					"object": "6080604052600060015534801561001557600080fd5b5061003261002761003760201b60201c565b61003f60201b60201c565b610103565b600033905090565b60008060009054906101000a900473ffffffffffffffffffffffffffffffffffffffff169050816000806101000a81548173ffffffffffffffffffffffffffffffffffffffff021916908373ffffffffffffffffffffffffffffffffffffffff1602179055508173ffffffffffffffffffffffffffffffffffffffff168173ffffffffffffffffffffffffffffffffffffffff167f8be0079c531659141344cd1fd0a4f28419497f9722a3daafe3b4186f6b6457e060405160405180910390a35050565b610c15806101126000396000f3fe60806040526004361061007b5760003560e01c80637fd3dc381161004e5780637fd3dc38146100f35780638da5cb5b1461011c578063f23c51cd14610147578063f2fde38b146101705761007b565b80633ccfd60b1461008057806348e3e5471461008a57806369b1b300146100b3578063715018a6146100dc575b600080fd5b610088610199565b005b34801561009657600080fd5b506100b160048036038101906100ac91906107aa565b610221565b005b3480156100bf57600080fd5b506100da60048036038101906100d59190610804565b61026d565b005b3480156100e857600080fd5b506100f1610472565b005b3480156100ff57600080fd5b5061011a600480360381019061011591906107aa565b610486565b005b34801561012857600080fd5b506101316104d2565b60405161013e9190610964565b60405180910390f35b34801561015357600080fd5b5061016e600480360381019061016991906107aa565b6104fb565b005b34801561017c57600080fd5b50610197600480360381019061019291906107aa565b610547565b005b6101a16105cb565b60006101ab6104d2565b73ffffffffffffffffffffffffffffffffffffffff16476040516101ce9061094f565b60006040518083038185875af1925050503d806000811461020b576040519150601f19603f3d011682016040523d82523d6000602084013e610210565b606091505b505090508061021e57600080fd5b50565b6102296105cb565b80600460006101000a81548173ffffffffffffffffffffffffffffffffffffffff021916908373ffffffffffffffffffffffffffffffffffffffff16021790555050565b6000600360009054906101000a900473ffffffffffffffffffffffffffffffffffffffff1673ffffffffffffffffffffffffffffffffffffffff1662fdd58e33876040518363ffffffff1660e01b81526004016102cb92919061097f565b602060405180830381600087803b1580156102e557600080fd5b505af11580156102f9573d6000803e3d6000fd5b505050506040513d601f19601f8201168201806040525081019061031d91906107d7565b1180156103d757506000600460009054906101000a900473ffffffffffffffffffffffffffffffffffffffff1673ffffffffffffffffffffffffffffffffffffffff1662fdd58e33866040518363ffffffff1660e01b815260040161038392919061097f565b602060405180830381600087803b15801561039d57600080fd5b505af11580156103b1573d6000803e3d6000fd5b505050506040513d601f19601f820116820180604052508101906103d591906107d7565b115b610416576040517f08c379a000000000000000000000000000000000000000000000000000000000815260040161040d906109a8565b60405180910390fd5b3373ffffffffffffffffffffffffffffffffffffffff167f35324dfc298bc53817f5a12f45c8ea0036078d8e3106a22ef9c557449e86f6a28585428686604051610464959493929190610a08565b60405180910390a250505050565b61047a6105cb565b6104846000610649565b565b61048e6105cb565b80600360006101000a81548173ffffffffffffffffffffffffffffffffffffffff021916908373ffffffffffffffffffffffffffffffffffffffff16021790555050565b60008060009054906101000a900473ffffffffffffffffffffffffffffffffffffffff16905090565b6105036105cb565b80600260006101000a81548173ffffffffffffffffffffffffffffffffffffffff021916908373ffffffffffffffffffffffffffffffffffffffff16021790555050565b61054f6105cb565b600073ffffffffffffffffffffffffffffffffffffffff168173ffffffffffffffffffffffffffffffffffffffff1614156105bf576040517f08c379a00000000000000000000000000000000000000000000000000000000081526004016105b6906109c8565b60405180910390fd5b6105c881610649565b50565b6105d361070d565b73ffffffffffffffffffffffffffffffffffffffff166105f16104d2565b73ffffffffffffffffffffffffffffffffffffffff1614610647576040517f08c379a000000000000000000000000000000000000000000000000000000000815260040161063e906109e8565b60405180910390fd5b565b60008060009054906101000a900473ffffffffffffffffffffffffffffffffffffffff169050816000806101000a81548173ffffffffffffffffffffffffffffffffffffffff021916908373ffffffffffffffffffffffffffffffffffffffff1602179055508173ffffffffffffffffffffffffffffffffffffffff168173ffffffffffffffffffffffffffffffffffffffff167f8be0079c531659141344cd1fd0a4f28419497f9722a3daafe3b4186f6b6457e060405160405180910390a35050565b600033905090565b60008135905061072481610bb1565b92915050565b60008083601f8401126107405761073f610ac2565b5b8235905067ffffffffffffffff81111561075d5761075c610abd565b5b60208301915083600182028301111561077957610778610ac7565b5b9250929050565b60008135905061078f81610bc8565b92915050565b6000815190506107a481610bc8565b92915050565b6000602082840312156107c0576107bf610ad1565b5b60006107ce84828501610715565b91505092915050565b6000602082840312156107ed576107ec610ad1565b5b60006107fb84828501610795565b91505092915050565b6000806000806060858703121561081e5761081d610ad1565b5b600061082c87828801610780565b945050602061083d87828801610780565b935050604085013567ffffffffffffffff81111561085e5761085d610acc565b5b61086a8782880161072a565b925092505092959194509250565b61088181610a72565b82525050565b60006108938385610a61565b93506108a0838584610aae565b6108a983610ad6565b840190509392505050565b60006108c1602d83610a61565b91506108cc82610ae7565b604082019050919050565b60006108e4602683610a61565b91506108ef82610b36565b604082019050919050565b6000610907602083610a61565b915061091282610b85565b602082019050919050565b600061092a600083610a56565b915061093582610bae565b600082019050919050565b61094981610aa4565b82525050565b600061095a8261091d565b9150819050919050565b60006020820190506109796000830184610878565b92915050565b60006040820190506109946000830185610878565b6109a16020830184610940565b9392505050565b600060208201905081810360008301526109c1816108b4565b9050919050565b600060208201905081810360008301526109e1816108d7565b9050919050565b60006020820190508181036000830152610a01816108fa565b9050919050565b6000608082019050610a1d6000830188610940565b610a2a6020830187610940565b610a376040830186610940565b8181036060830152610a4a818486610887565b90509695505050505050565b600081905092915050565b600082825260208201905092915050565b6000610a7d82610a84565b9050919050565b600073ffffffffffffffffffffffffffffffffffffffff82169050919050565b6000819050919050565b82818337600083830152505050565b600080fd5b600080fd5b600080fd5b600080fd5b600080fd5b6000601f19601f8301169050919050565b7f4572726f723a206d75737420686f6c6420636f72726563742073656e6465722f60008201527f6368616e6e656c20746f6b656e00000000000000000000000000000000000000602082015250565b7f4f776e61626c653a206e6577206f776e657220697320746865207a65726f206160008201527f6464726573730000000000000000000000000000000000000000000000000000602082015250565b7f4f776e61626c653a2063616c6c6572206973206e6f7420746865206f776e6572600082015250565b50565b610bba81610a72565b8114610bc557600080fd5b50565b610bd181610aa4565b8114610bdc57600080fd5b5056fea2646970667358221220630558ff7716f02b9cbedd958b6193c2ca349df20d54b43dc55979800c37657a64736f6c63430008070033",
					"opcodes": "PUSH1 0x80 PUSH1 0x40 MSTORE PUSH1 0x0 PUSH1 0x1 SSTORE CALLVALUE DUP1 ISZERO PUSH2 0x15 JUMPI PUSH1 0x0 DUP1 REVERT JUMPDEST POP PUSH2 0x32 PUSH2 0x27 PUSH2 0x37 PUSH1 0x20 SHL PUSH1 0x20 SHR JUMP JUMPDEST PUSH2 0x3F PUSH1 0x20 SHL PUSH1 0x20 SHR JUMP JUMPDEST PUSH2 0x103 JUMP JUMPDEST PUSH1 0x0 CALLER SWAP1 POP SWAP1 JUMP JUMPDEST PUSH1 0x0 DUP1 PUSH1 0x0 SWAP1 SLOAD SWAP1 PUSH2 0x100 EXP SWAP1 DIV PUSH20 0xFFFFFFFFFFFFFFFFFFFFFFFFFFFFFFFFFFFFFFFF AND SWAP1 POP DUP2 PUSH1 0x0 DUP1 PUSH2 0x100 EXP DUP2 SLOAD DUP2 PUSH20 0xFFFFFFFFFFFFFFFFFFFFFFFFFFFFFFFFFFFFFFFF MUL NOT AND SWAP1 DUP4 PUSH20 0xFFFFFFFFFFFFFFFFFFFFFFFFFFFFFFFFFFFFFFFF AND MUL OR SWAP1 SSTORE POP DUP2 PUSH20 0xFFFFFFFFFFFFFFFFFFFFFFFFFFFFFFFFFFFFFFFF AND DUP2 PUSH20 0xFFFFFFFFFFFFFFFFFFFFFFFFFFFFFFFFFFFFFFFF AND PUSH32 0x8BE0079C531659141344CD1FD0A4F28419497F9722A3DAAFE3B4186F6B6457E0 PUSH1 0x40 MLOAD PUSH1 0x40 MLOAD DUP1 SWAP2 SUB SWAP1 LOG3 POP POP JUMP JUMPDEST PUSH2 0xC15 DUP1 PUSH2 0x112 PUSH1 0x0 CODECOPY PUSH1 0x0 RETURN INVALID PUSH1 0x80 PUSH1 0x40 MSTORE PUSH1 0x4 CALLDATASIZE LT PUSH2 0x7B JUMPI PUSH1 0x0 CALLDATALOAD PUSH1 0xE0 SHR DUP1 PUSH4 0x7FD3DC38 GT PUSH2 0x4E JUMPI DUP1 PUSH4 0x7FD3DC38 EQ PUSH2 0xF3 JUMPI DUP1 PUSH4 0x8DA5CB5B EQ PUSH2 0x11C JUMPI DUP1 PUSH4 0xF23C51CD EQ PUSH2 0x147 JUMPI DUP1 PUSH4 0xF2FDE38B EQ PUSH2 0x170 JUMPI PUSH2 0x7B JUMP JUMPDEST DUP1 PUSH4 0x3CCFD60B EQ PUSH2 0x80 JUMPI DUP1 PUSH4 0x48E3E547 EQ PUSH2 0x8A JUMPI DUP1 PUSH4 0x69B1B300 EQ PUSH2 0xB3 JUMPI DUP1 PUSH4 0x715018A6 EQ PUSH2 0xDC JUMPI JUMPDEST PUSH1 0x0 DUP1 REVERT JUMPDEST PUSH2 0x88 PUSH2 0x199 JUMP JUMPDEST STOP JUMPDEST CALLVALUE DUP1 ISZERO PUSH2 0x96 JUMPI PUSH1 0x0 DUP1 REVERT JUMPDEST POP PUSH2 0xB1 PUSH1 0x4 DUP1 CALLDATASIZE SUB DUP2 ADD SWAP1 PUSH2 0xAC SWAP2 SWAP1 PUSH2 0x7AA JUMP JUMPDEST PUSH2 0x221 JUMP JUMPDEST STOP JUMPDEST CALLVALUE DUP1 ISZERO PUSH2 0xBF JUMPI PUSH1 0x0 DUP1 REVERT JUMPDEST POP PUSH2 0xDA PUSH1 0x4 DUP1 CALLDATASIZE SUB DUP2 ADD SWAP1 PUSH2 0xD5 SWAP2 SWAP1 PUSH2 0x804 JUMP JUMPDEST PUSH2 0x26D JUMP JUMPDEST STOP JUMPDEST CALLVALUE DUP1 ISZERO PUSH2 0xE8 JUMPI PUSH1 0x0 DUP1 REVERT JUMPDEST POP PUSH2 0xF1 PUSH2 0x472 JUMP JUMPDEST STOP JUMPDEST CALLVALUE DUP1 ISZERO PUSH2 0xFF JUMPI PUSH1 0x0 DUP1 REVERT JUMPDEST POP PUSH2 0x11A PUSH1 0x4 DUP1 CALLDATASIZE SUB DUP2 ADD SWAP1 PUSH2 0x115 SWAP2 SWAP1 PUSH2 0x7AA JUMP JUMPDEST PUSH2 0x486 JUMP JUMPDEST STOP JUMPDEST CALLVALUE DUP1 ISZERO PUSH2 0x128 JUMPI PUSH1 0x0 DUP1 REVERT JUMPDEST POP PUSH2 0x131 PUSH2 0x4D2 JUMP JUMPDEST PUSH1 0x40 MLOAD PUSH2 0x13E SWAP2 SWAP1 PUSH2 0x964 JUMP JUMPDEST PUSH1 0x40 MLOAD DUP1 SWAP2 SUB SWAP1 RETURN JUMPDEST CALLVALUE DUP1 ISZERO PUSH2 0x153 JUMPI PUSH1 0x0 DUP1 REVERT JUMPDEST POP PUSH2 0x16E PUSH1 0x4 DUP1 CALLDATASIZE SUB DUP2 ADD SWAP1 PUSH2 0x169 SWAP2 SWAP1 PUSH2 0x7AA JUMP JUMPDEST PUSH2 0x4FB JUMP JUMPDEST STOP JUMPDEST CALLVALUE DUP1 ISZERO PUSH2 0x17C JUMPI PUSH1 0x0 DUP1 REVERT JUMPDEST POP PUSH2 0x197 PUSH1 0x4 DUP1 CALLDATASIZE SUB DUP2 ADD SWAP1 PUSH2 0x192 SWAP2 SWAP1 PUSH2 0x7AA JUMP JUMPDEST PUSH2 0x547 JUMP JUMPDEST STOP JUMPDEST PUSH2 0x1A1 PUSH2 0x5CB JUMP JUMPDEST PUSH1 0x0 PUSH2 0x1AB PUSH2 0x4D2 JUMP JUMPDEST PUSH20 0xFFFFFFFFFFFFFFFFFFFFFFFFFFFFFFFFFFFFFFFF AND SELFBALANCE PUSH1 0x40 MLOAD PUSH2 0x1CE SWAP1 PUSH2 0x94F JUMP JUMPDEST PUSH1 0x0 PUSH1 0x40 MLOAD DUP1 DUP4 SUB DUP2 DUP6 DUP8 GAS CALL SWAP3 POP POP POP RETURNDATASIZE DUP1 PUSH1 0x0 DUP2 EQ PUSH2 0x20B JUMPI PUSH1 0x40 MLOAD SWAP2 POP PUSH1 0x1F NOT PUSH1 0x3F RETURNDATASIZE ADD AND DUP3 ADD PUSH1 0x40 MSTORE RETURNDATASIZE DUP3 MSTORE RETURNDATASIZE PUSH1 0x0 PUSH1 0x20 DUP5 ADD RETURNDATACOPY PUSH2 0x210 JUMP JUMPDEST PUSH1 0x60 SWAP2 POP JUMPDEST POP POP SWAP1 POP DUP1 PUSH2 0x21E JUMPI PUSH1 0x0 DUP1 REVERT JUMPDEST POP JUMP JUMPDEST PUSH2 0x229 PUSH2 0x5CB JUMP JUMPDEST DUP1 PUSH1 0x4 PUSH1 0x0 PUSH2 0x100 EXP DUP2 SLOAD DUP2 PUSH20 0xFFFFFFFFFFFFFFFFFFFFFFFFFFFFFFFFFFFFFFFF MUL NOT AND SWAP1 DUP4 PUSH20 0xFFFFFFFFFFFFFFFFFFFFFFFFFFFFFFFFFFFFFFFF AND MUL OR SWAP1 SSTORE POP POP JUMP JUMPDEST PUSH1 0x0 PUSH1 0x3 PUSH1 0x0 SWAP1 SLOAD SWAP1 PUSH2 0x100 EXP SWAP1 DIV PUSH20 0xFFFFFFFFFFFFFFFFFFFFFFFFFFFFFFFFFFFFFFFF AND PUSH20 0xFFFFFFFFFFFFFFFFFFFFFFFFFFFFFFFFFFFFFFFF AND PUSH3 0xFDD58E CALLER DUP8 PUSH1 0x40 MLOAD DUP4 PUSH4 0xFFFFFFFF AND PUSH1 0xE0 SHL DUP2 MSTORE PUSH1 0x4 ADD PUSH2 0x2CB SWAP3 SWAP2 SWAP1 PUSH2 0x97F JUMP JUMPDEST PUSH1 0x20 PUSH1 0x40 MLOAD DUP1 DUP4 SUB DUP2 PUSH1 0x0 DUP8 DUP1 EXTCODESIZE ISZERO DUP1 ISZERO PUSH2 0x2E5 JUMPI PUSH1 0x0 DUP1 REVERT JUMPDEST POP GAS CALL ISZERO DUP1 ISZERO PUSH2 0x2F9 JUMPI RETURNDATASIZE PUSH1 0x0 DUP1 RETURNDATACOPY RETURNDATASIZE PUSH1 0x0 REVERT JUMPDEST POP POP POP POP PUSH1 0x40 MLOAD RETURNDATASIZE PUSH1 0x1F NOT PUSH1 0x1F DUP3 ADD AND DUP3 ADD DUP1 PUSH1 0x40 MSTORE POP DUP2 ADD SWAP1 PUSH2 0x31D SWAP2 SWAP1 PUSH2 0x7D7 JUMP JUMPDEST GT DUP1 ISZERO PUSH2 0x3D7 JUMPI POP PUSH1 0x0 PUSH1 0x4 PUSH1 0x0 SWAP1 SLOAD SWAP1 PUSH2 0x100 EXP SWAP1 DIV PUSH20 0xFFFFFFFFFFFFFFFFFFFFFFFFFFFFFFFFFFFFFFFF AND PUSH20 0xFFFFFFFFFFFFFFFFFFFFFFFFFFFFFFFFFFFFFFFF AND PUSH3 0xFDD58E CALLER DUP7 PUSH1 0x40 MLOAD DUP4 PUSH4 0xFFFFFFFF AND PUSH1 0xE0 SHL DUP2 MSTORE PUSH1 0x4 ADD PUSH2 0x383 SWAP3 SWAP2 SWAP1 PUSH2 0x97F JUMP JUMPDEST PUSH1 0x20 PUSH1 0x40 MLOAD DUP1 DUP4 SUB DUP2 PUSH1 0x0 DUP8 DUP1 EXTCODESIZE ISZERO DUP1 ISZERO PUSH2 0x39D JUMPI PUSH1 0x0 DUP1 REVERT JUMPDEST POP GAS CALL ISZERO DUP1 ISZERO PUSH2 0x3B1 JUMPI RETURNDATASIZE PUSH1 0x0 DUP1 RETURNDATACOPY RETURNDATASIZE PUSH1 0x0 REVERT JUMPDEST POP POP POP POP PUSH1 0x40 MLOAD RETURNDATASIZE PUSH1 0x1F NOT PUSH1 0x1F DUP3 ADD AND DUP3 ADD DUP1 PUSH1 0x40 MSTORE POP DUP2 ADD SWAP1 PUSH2 0x3D5 SWAP2 SWAP1 PUSH2 0x7D7 JUMP JUMPDEST GT JUMPDEST PUSH2 0x416 JUMPI PUSH1 0x40 MLOAD PUSH32 0x8C379A000000000000000000000000000000000000000000000000000000000 DUP2 MSTORE PUSH1 0x4 ADD PUSH2 0x40D SWAP1 PUSH2 0x9A8 JUMP JUMPDEST PUSH1 0x40 MLOAD DUP1 SWAP2 SUB SWAP1 REVERT JUMPDEST CALLER PUSH20 0xFFFFFFFFFFFFFFFFFFFFFFFFFFFFFFFFFFFFFFFF AND PUSH32 0x35324DFC298BC53817F5A12F45C8EA0036078D8E3106A22EF9C557449E86F6A2 DUP6 DUP6 TIMESTAMP DUP7 DUP7 PUSH1 0x40 MLOAD PUSH2 0x464 SWAP6 SWAP5 SWAP4 SWAP3 SWAP2 SWAP1 PUSH2 0xA08 JUMP JUMPDEST PUSH1 0x40 MLOAD DUP1 SWAP2 SUB SWAP1 LOG2 POP POP POP POP JUMP JUMPDEST PUSH2 0x47A PUSH2 0x5CB JUMP JUMPDEST PUSH2 0x484 PUSH1 0x0 PUSH2 0x649 JUMP JUMPDEST JUMP JUMPDEST PUSH2 0x48E PUSH2 0x5CB JUMP JUMPDEST DUP1 PUSH1 0x3 PUSH1 0x0 PUSH2 0x100 EXP DUP2 SLOAD DUP2 PUSH20 0xFFFFFFFFFFFFFFFFFFFFFFFFFFFFFFFFFFFFFFFF MUL NOT AND SWAP1 DUP4 PUSH20 0xFFFFFFFFFFFFFFFFFFFFFFFFFFFFFFFFFFFFFFFF AND MUL OR SWAP1 SSTORE POP POP JUMP JUMPDEST PUSH1 0x0 DUP1 PUSH1 0x0 SWAP1 SLOAD SWAP1 PUSH2 0x100 EXP SWAP1 DIV PUSH20 0xFFFFFFFFFFFFFFFFFFFFFFFFFFFFFFFFFFFFFFFF AND SWAP1 POP SWAP1 JUMP JUMPDEST PUSH2 0x503 PUSH2 0x5CB JUMP JUMPDEST DUP1 PUSH1 0x2 PUSH1 0x0 PUSH2 0x100 EXP DUP2 SLOAD DUP2 PUSH20 0xFFFFFFFFFFFFFFFFFFFFFFFFFFFFFFFFFFFFFFFF MUL NOT AND SWAP1 DUP4 PUSH20 0xFFFFFFFFFFFFFFFFFFFFFFFFFFFFFFFFFFFFFFFF AND MUL OR SWAP1 SSTORE POP POP JUMP JUMPDEST PUSH2 0x54F PUSH2 0x5CB JUMP JUMPDEST PUSH1 0x0 PUSH20 0xFFFFFFFFFFFFFFFFFFFFFFFFFFFFFFFFFFFFFFFF AND DUP2 PUSH20 0xFFFFFFFFFFFFFFFFFFFFFFFFFFFFFFFFFFFFFFFF AND EQ ISZERO PUSH2 0x5BF JUMPI PUSH1 0x40 MLOAD PUSH32 0x8C379A000000000000000000000000000000000000000000000000000000000 DUP2 MSTORE PUSH1 0x4 ADD PUSH2 0x5B6 SWAP1 PUSH2 0x9C8 JUMP JUMPDEST PUSH1 0x40 MLOAD DUP1 SWAP2 SUB SWAP1 REVERT JUMPDEST PUSH2 0x5C8 DUP2 PUSH2 0x649 JUMP JUMPDEST POP JUMP JUMPDEST PUSH2 0x5D3 PUSH2 0x70D JUMP JUMPDEST PUSH20 0xFFFFFFFFFFFFFFFFFFFFFFFFFFFFFFFFFFFFFFFF AND PUSH2 0x5F1 PUSH2 0x4D2 JUMP JUMPDEST PUSH20 0xFFFFFFFFFFFFFFFFFFFFFFFFFFFFFFFFFFFFFFFF AND EQ PUSH2 0x647 JUMPI PUSH1 0x40 MLOAD PUSH32 0x8C379A000000000000000000000000000000000000000000000000000000000 DUP2 MSTORE PUSH1 0x4 ADD PUSH2 0x63E SWAP1 PUSH2 0x9E8 JUMP JUMPDEST PUSH1 0x40 MLOAD DUP1 SWAP2 SUB SWAP1 REVERT JUMPDEST JUMP JUMPDEST PUSH1 0x0 DUP1 PUSH1 0x0 SWAP1 SLOAD SWAP1 PUSH2 0x100 EXP SWAP1 DIV PUSH20 0xFFFFFFFFFFFFFFFFFFFFFFFFFFFFFFFFFFFFFFFF AND SWAP1 POP DUP2 PUSH1 0x0 DUP1 PUSH2 0x100 EXP DUP2 SLOAD DUP2 PUSH20 0xFFFFFFFFFFFFFFFFFFFFFFFFFFFFFFFFFFFFFFFF MUL NOT AND SWAP1 DUP4 PUSH20 0xFFFFFFFFFFFFFFFFFFFFFFFFFFFFFFFFFFFFFFFF AND MUL OR SWAP1 SSTORE POP DUP2 PUSH20 0xFFFFFFFFFFFFFFFFFFFFFFFFFFFFFFFFFFFFFFFF AND DUP2 PUSH20 0xFFFFFFFFFFFFFFFFFFFFFFFFFFFFFFFFFFFFFFFF AND PUSH32 0x8BE0079C531659141344CD1FD0A4F28419497F9722A3DAAFE3B4186F6B6457E0 PUSH1 0x40 MLOAD PUSH1 0x40 MLOAD DUP1 SWAP2 SUB SWAP1 LOG3 POP POP JUMP JUMPDEST PUSH1 0x0 CALLER SWAP1 POP SWAP1 JUMP JUMPDEST PUSH1 0x0 DUP2 CALLDATALOAD SWAP1 POP PUSH2 0x724 DUP2 PUSH2 0xBB1 JUMP JUMPDEST SWAP3 SWAP2 POP POP JUMP JUMPDEST PUSH1 0x0 DUP1 DUP4 PUSH1 0x1F DUP5 ADD SLT PUSH2 0x740 JUMPI PUSH2 0x73F PUSH2 0xAC2 JUMP JUMPDEST JUMPDEST DUP3 CALLDATALOAD SWAP1 POP PUSH8 0xFFFFFFFFFFFFFFFF DUP2 GT ISZERO PUSH2 0x75D JUMPI PUSH2 0x75C PUSH2 0xABD JUMP JUMPDEST JUMPDEST PUSH1 0x20 DUP4 ADD SWAP2 POP DUP4 PUSH1 0x1 DUP3 MUL DUP4 ADD GT ISZERO PUSH2 0x779 JUMPI PUSH2 0x778 PUSH2 0xAC7 JUMP JUMPDEST JUMPDEST SWAP3 POP SWAP3 SWAP1 POP JUMP JUMPDEST PUSH1 0x0 DUP2 CALLDATALOAD SWAP1 POP PUSH2 0x78F DUP2 PUSH2 0xBC8 JUMP JUMPDEST SWAP3 SWAP2 POP POP JUMP JUMPDEST PUSH1 0x0 DUP2 MLOAD SWAP1 POP PUSH2 0x7A4 DUP2 PUSH2 0xBC8 JUMP JUMPDEST SWAP3 SWAP2 POP POP JUMP JUMPDEST PUSH1 0x0 PUSH1 0x20 DUP3 DUP5 SUB SLT ISZERO PUSH2 0x7C0 JUMPI PUSH2 0x7BF PUSH2 0xAD1 JUMP JUMPDEST JUMPDEST PUSH1 0x0 PUSH2 0x7CE DUP5 DUP3 DUP6 ADD PUSH2 0x715 JUMP JUMPDEST SWAP2 POP POP SWAP3 SWAP2 POP POP JUMP JUMPDEST PUSH1 0x0 PUSH1 0x20 DUP3 DUP5 SUB SLT ISZERO PUSH2 0x7ED JUMPI PUSH2 0x7EC PUSH2 0xAD1 JUMP JUMPDEST JUMPDEST PUSH1 0x0 PUSH2 0x7FB DUP5 DUP3 DUP6 ADD PUSH2 0x795 JUMP JUMPDEST SWAP2 POP POP SWAP3 SWAP2 POP POP JUMP JUMPDEST PUSH1 0x0 DUP1 PUSH1 0x0 DUP1 PUSH1 0x60 DUP6 DUP8 SUB SLT ISZERO PUSH2 0x81E JUMPI PUSH2 0x81D PUSH2 0xAD1 JUMP JUMPDEST JUMPDEST PUSH1 0x0 PUSH2 0x82C DUP8 DUP3 DUP9 ADD PUSH2 0x780 JUMP JUMPDEST SWAP5 POP POP PUSH1 0x20 PUSH2 0x83D DUP8 DUP3 DUP9 ADD PUSH2 0x780 JUMP JUMPDEST SWAP4 POP POP PUSH1 0x40 DUP6 ADD CALLDATALOAD PUSH8 0xFFFFFFFFFFFFFFFF DUP2 GT ISZERO PUSH2 0x85E JUMPI PUSH2 0x85D PUSH2 0xACC JUMP JUMPDEST JUMPDEST PUSH2 0x86A DUP8 DUP3 DUP9 ADD PUSH2 0x72A JUMP JUMPDEST SWAP3 POP SWAP3 POP POP SWAP3 SWAP6 SWAP2 SWAP5 POP SWAP3 POP JUMP JUMPDEST PUSH2 0x881 DUP2 PUSH2 0xA72 JUMP JUMPDEST DUP3 MSTORE POP POP JUMP JUMPDEST PUSH1 0x0 PUSH2 0x893 DUP4 DUP6 PUSH2 0xA61 JUMP JUMPDEST SWAP4 POP PUSH2 0x8A0 DUP4 DUP6 DUP5 PUSH2 0xAAE JUMP JUMPDEST PUSH2 0x8A9 DUP4 PUSH2 0xAD6 JUMP JUMPDEST DUP5 ADD SWAP1 POP SWAP4 SWAP3 POP POP POP JUMP JUMPDEST PUSH1 0x0 PUSH2 0x8C1 PUSH1 0x2D DUP4 PUSH2 0xA61 JUMP JUMPDEST SWAP2 POP PUSH2 0x8CC DUP3 PUSH2 0xAE7 JUMP JUMPDEST PUSH1 0x40 DUP3 ADD SWAP1 POP SWAP2 SWAP1 POP JUMP JUMPDEST PUSH1 0x0 PUSH2 0x8E4 PUSH1 0x26 DUP4 PUSH2 0xA61 JUMP JUMPDEST SWAP2 POP PUSH2 0x8EF DUP3 PUSH2 0xB36 JUMP JUMPDEST PUSH1 0x40 DUP3 ADD SWAP1 POP SWAP2 SWAP1 POP JUMP JUMPDEST PUSH1 0x0 PUSH2 0x907 PUSH1 0x20 DUP4 PUSH2 0xA61 JUMP JUMPDEST SWAP2 POP PUSH2 0x912 DUP3 PUSH2 0xB85 JUMP JUMPDEST PUSH1 0x20 DUP3 ADD SWAP1 POP SWAP2 SWAP1 POP JUMP JUMPDEST PUSH1 0x0 PUSH2 0x92A PUSH1 0x0 DUP4 PUSH2 0xA56 JUMP JUMPDEST SWAP2 POP PUSH2 0x935 DUP3 PUSH2 0xBAE JUMP JUMPDEST PUSH1 0x0 DUP3 ADD SWAP1 POP SWAP2 SWAP1 POP JUMP JUMPDEST PUSH2 0x949 DUP2 PUSH2 0xAA4 JUMP JUMPDEST DUP3 MSTORE POP POP JUMP JUMPDEST PUSH1 0x0 PUSH2 0x95A DUP3 PUSH2 0x91D JUMP JUMPDEST SWAP2 POP DUP2 SWAP1 POP SWAP2 SWAP1 POP JUMP JUMPDEST PUSH1 0x0 PUSH1 0x20 DUP3 ADD SWAP1 POP PUSH2 0x979 PUSH1 0x0 DUP4 ADD DUP5 PUSH2 0x878 JUMP JUMPDEST SWAP3 SWAP2 POP POP JUMP JUMPDEST PUSH1 0x0 PUSH1 0x40 DUP3 ADD SWAP1 POP PUSH2 0x994 PUSH1 0x0 DUP4 ADD DUP6 PUSH2 0x878 JUMP JUMPDEST PUSH2 0x9A1 PUSH1 0x20 DUP4 ADD DUP5 PUSH2 0x940 JUMP JUMPDEST SWAP4 SWAP3 POP POP POP JUMP JUMPDEST PUSH1 0x0 PUSH1 0x20 DUP3 ADD SWAP1 POP DUP2 DUP2 SUB PUSH1 0x0 DUP4 ADD MSTORE PUSH2 0x9C1 DUP2 PUSH2 0x8B4 JUMP JUMPDEST SWAP1 POP SWAP2 SWAP1 POP JUMP JUMPDEST PUSH1 0x0 PUSH1 0x20 DUP3 ADD SWAP1 POP DUP2 DUP2 SUB PUSH1 0x0 DUP4 ADD MSTORE PUSH2 0x9E1 DUP2 PUSH2 0x8D7 JUMP JUMPDEST SWAP1 POP SWAP2 SWAP1 POP JUMP JUMPDEST PUSH1 0x0 PUSH1 0x20 DUP3 ADD SWAP1 POP DUP2 DUP2 SUB PUSH1 0x0 DUP4 ADD MSTORE PUSH2 0xA01 DUP2 PUSH2 0x8FA JUMP JUMPDEST SWAP1 POP SWAP2 SWAP1 POP JUMP JUMPDEST PUSH1 0x0 PUSH1 0x80 DUP3 ADD SWAP1 POP PUSH2 0xA1D PUSH1 0x0 DUP4 ADD DUP9 PUSH2 0x940 JUMP JUMPDEST PUSH2 0xA2A PUSH1 0x20 DUP4 ADD DUP8 PUSH2 0x940 JUMP JUMPDEST PUSH2 0xA37 PUSH1 0x40 DUP4 ADD DUP7 PUSH2 0x940 JUMP JUMPDEST DUP2 DUP2 SUB PUSH1 0x60 DUP4 ADD MSTORE PUSH2 0xA4A DUP2 DUP5 DUP7 PUSH2 0x887 JUMP JUMPDEST SWAP1 POP SWAP7 SWAP6 POP POP POP POP POP POP JUMP JUMPDEST PUSH1 0x0 DUP2 SWAP1 POP SWAP3 SWAP2 POP POP JUMP JUMPDEST PUSH1 0x0 DUP3 DUP3 MSTORE PUSH1 0x20 DUP3 ADD SWAP1 POP SWAP3 SWAP2 POP POP JUMP JUMPDEST PUSH1 0x0 PUSH2 0xA7D DUP3 PUSH2 0xA84 JUMP JUMPDEST SWAP1 POP SWAP2 SWAP1 POP JUMP JUMPDEST PUSH1 0x0 PUSH20 0xFFFFFFFFFFFFFFFFFFFFFFFFFFFFFFFFFFFFFFFF DUP3 AND SWAP1 POP SWAP2 SWAP1 POP JUMP JUMPDEST PUSH1 0x0 DUP2 SWAP1 POP SWAP2 SWAP1 POP JUMP JUMPDEST DUP3 DUP2 DUP4 CALLDATACOPY PUSH1 0x0 DUP4 DUP4 ADD MSTORE POP POP POP JUMP JUMPDEST PUSH1 0x0 DUP1 REVERT JUMPDEST PUSH1 0x0 DUP1 REVERT JUMPDEST PUSH1 0x0 DUP1 REVERT JUMPDEST PUSH1 0x0 DUP1 REVERT JUMPDEST PUSH1 0x0 DUP1 REVERT JUMPDEST PUSH1 0x0 PUSH1 0x1F NOT PUSH1 0x1F DUP4 ADD AND SWAP1 POP SWAP2 SWAP1 POP JUMP JUMPDEST PUSH32 0x4572726F723A206D75737420686F6C6420636F72726563742073656E6465722F PUSH1 0x0 DUP3 ADD MSTORE PUSH32 0x6368616E6E656C20746F6B656E00000000000000000000000000000000000000 PUSH1 0x20 DUP3 ADD MSTORE POP JUMP JUMPDEST PUSH32 0x4F776E61626C653A206E6577206F776E657220697320746865207A65726F2061 PUSH1 0x0 DUP3 ADD MSTORE PUSH32 0x6464726573730000000000000000000000000000000000000000000000000000 PUSH1 0x20 DUP3 ADD MSTORE POP JUMP JUMPDEST PUSH32 0x4F776E61626C653A2063616C6C6572206973206E6F7420746865206F776E6572 PUSH1 0x0 DUP3 ADD MSTORE POP JUMP JUMPDEST POP JUMP JUMPDEST PUSH2 0xBBA DUP2 PUSH2 0xA72 JUMP JUMPDEST DUP2 EQ PUSH2 0xBC5 JUMPI PUSH1 0x0 DUP1 REVERT JUMPDEST POP JUMP JUMPDEST PUSH2 0xBD1 DUP2 PUSH2 0xAA4 JUMP JUMPDEST DUP2 EQ PUSH2 0xBDC JUMPI PUSH1 0x0 DUP1 REVERT JUMPDEST POP JUMP INVALID LOG2 PUSH5 0x6970667358 0x22 SLT KECCAK256 PUSH4 0x558FF77 AND CREATE 0x2B SWAP13 0xBE 0xDD SWAP6 DUP12 PUSH2 0x93C2 0xCA CALLVALUE SWAP14 CALLCODE 0xD SLOAD 0xB4 RETURNDATASIZE 0xC5 MSIZE PUSH26 0x800C37657A64736F6C6343000807003300000000000000000000 "
				},
				"gasEstimates": {
					"creation": {
						"codeDepositCost": "618600",
						"executionCost": "infinite",
						"totalCost": "infinite"
					},
					"external": {
						"owner()": "2544",
						"renounceOwnership()": "30465",
						"sendChannelMessage(uint256,uint256,string)": "infinite",
						"setChannelContractAddress(address)": "27009",
						"setReceiverContractAddress(address)": "27030",
						"setSenderContractAddress(address)": "26986",
						"transferOwnership(address)": "30813",
						"withdraw()": "infinite"
					}
				},
				"methodIdentifiers": {
					"owner()": "8da5cb5b",
					"renounceOwnership()": "715018a6",
					"sendChannelMessage(uint256,uint256,string)": "69b1b300",
					"setChannelContractAddress(address)": "48e3e547",
					"setReceiverContractAddress(address)": "f23c51cd",
					"setSenderContractAddress(address)": "7fd3dc38",
					"transferOwnership(address)": "f2fde38b",
					"withdraw()": "3ccfd60b"
				}
			},
			"storageLayout": {
				"storage": [
					{
						"astId": 7,
						"contract": "contracts/Messenger.sol:Messenger",
						"label": "_owner",
						"offset": 0,
						"slot": "0",
						"type": "t_address"
					},
					{
						"astId": 184,
						"contract": "contracts/Messenger.sol:Messenger",
						"label": "replyMessagePrice",
						"offset": 0,
						"slot": "1",
						"type": "t_uint256"
					},
					{
						"astId": 187,
						"contract": "contracts/Messenger.sol:Messenger",
						"label": "receiverContract",
						"offset": 0,
						"slot": "2",
						"type": "t_contract(IReceiverToken)147"
					},
					{
						"astId": 190,
						"contract": "contracts/Messenger.sol:Messenger",
						"label": "senderContract",
						"offset": 0,
						"slot": "3",
						"type": "t_contract(ISenderToken)157"
					},
					{
						"astId": 193,
						"contract": "contracts/Messenger.sol:Messenger",
						"label": "channelContract",
						"offset": 0,
						"slot": "4",
						"type": "t_contract(IChannelToken)167"
					}
				],
				"types": {
					"t_address": {
						"encoding": "inplace",
						"label": "address",
						"numberOfBytes": "20"
					},
					"t_contract(IChannelToken)167": {
						"encoding": "inplace",
						"label": "contract IChannelToken",
						"numberOfBytes": "20"
					},
					"t_contract(IReceiverToken)147": {
						"encoding": "inplace",
						"label": "contract IReceiverToken",
						"numberOfBytes": "20"
					},
					"t_contract(ISenderToken)157": {
						"encoding": "inplace",
						"label": "contract ISenderToken",
						"numberOfBytes": "20"
					},
					"t_uint256": {
						"encoding": "inplace",
						"label": "uint256",
						"numberOfBytes": "32"
					}
				}
			},
			"userdoc": {
				"kind": "user",
				"methods": {},
				"version": 1
			}
		}
	}
}