{
	"data": {
		"bytecode": {
			"linkReferences": {},
			"object": "60806040523480156200001157600080fd5b5060405162004206380380620042068339818101604052810190620000379190620002bd565b806200004981620000a560201b60201c565b506200006a6200005e620000c160201b60201c565b620000c960201b60201c565b8260049080519060200190620000829291906200018f565b5081600590805190602001906200009b9291906200018f565b50505050620004fa565b8060029080519060200190620000bd9291906200018f565b5050565b600033905090565b6000600360009054906101000a900473ffffffffffffffffffffffffffffffffffffffff16905081600360006101000a81548173ffffffffffffffffffffffffffffffffffffffff021916908373ffffffffffffffffffffffffffffffffffffffff1602179055508173ffffffffffffffffffffffffffffffffffffffff168173ffffffffffffffffffffffffffffffffffffffff167f8be0079c531659141344cd1fd0a4f28419497f9722a3daafe3b4186f6b6457e060405160405180910390a35050565b8280546200019d906200040b565b90600052602060002090601f016020900481019282620001c157600085556200020d565b82601f10620001dc57805160ff19168380011785556200020d565b828001600101855582156200020d579182015b828111156200020c578251825591602001919060010190620001ef565b5b5090506200021c919062000220565b5090565b5b808211156200023b57600081600090555060010162000221565b5090565b60006200025662000250846200039f565b62000376565b905082815260208101848484011115620002755762000274620004da565b5b62000282848285620003d5565b509392505050565b600082601f830112620002a257620002a1620004d5565b5b8151620002b48482602086016200023f565b91505092915050565b600080600060608486031215620002d957620002d8620004e4565b5b600084015167ffffffffffffffff811115620002fa57620002f9620004df565b5b62000308868287016200028a565b935050602084015167ffffffffffffffff8111156200032c576200032b620004df565b5b6200033a868287016200028a565b925050604084015167ffffffffffffffff8111156200035e576200035d620004df565b5b6200036c868287016200028a565b9150509250925092565b60006200038262000395565b905062000390828262000441565b919050565b6000604051905090565b600067ffffffffffffffff821115620003bd57620003bc620004a6565b5b620003c882620004e9565b9050602081019050919050565b60005b83811015620003f5578082015181840152602081019050620003d8565b8381111562000405576000848401525b50505050565b600060028204905060018216806200042457607f821691505b602082108114156200043b576200043a62000477565b5b50919050565b6200044c82620004e9565b810181811067ffffffffffffffff821117156200046e576200046d620004a6565b5b80604052505050565b7f4e487b7100000000000000000000000000000000000000000000000000000000600052602260045260246000fd5b7f4e487b7100000000000000000000000000000000000000000000000000000000600052604160045260246000fd5b600080fd5b600080fd5b600080fd5b600080fd5b6000601f19601f8301169050919050565b613cfc806200050a6000396000f3fe608060405234801561001057600080fd5b506004361061010a5760003560e01c8063715018a6116100a2578063b390c0ab11610071578063b390c0ab146102a5578063e985e9c5146102c1578063f23c51cd146102f1578063f242432a1461030d578063f2fde38b146103295761010a565b8063715018a6146102435780638da5cb5b1461024d57806395d89b411461026b578063a22cb465146102895761010a565b80632eb2c2d6116100de5780632eb2c2d6146101bd57806338491a9c146101d95780634e1273f4146101e35780634f558e79146102135761010a565b8062fdd58e1461010f57806301ffc9a71461013f57806306fdde031461016f5780630e89341c1461018d575b600080fd5b610129600480360381019061012491906126da565b610345565b6040516101369190613010565b60405180910390f35b61015960048036038101906101549190612792565b61040e565b6040516101669190612db3565b60405180910390f35b6101776104f0565b6040516101849190612dce565b60405180910390f35b6101a760048036038101906101a291906127ec565b61057e565b6040516101b49190612dce565b60405180910390f35b6101d760048036038101906101d29190612534565b610612565b005b6101e16106b3565b005b6101fd60048036038101906101f8919061271a565b61087c565b60405161020a9190612d5a565b60405180910390f35b61022d600480360381019061022891906127ec565b610995565b60405161023a9190612db3565b60405180910390f35b61024b6109b5565b005b6102556109c9565b6040516102629190612c54565b60405180910390f35b6102736109f3565b6040516102809190612dce565b60405180910390f35b6102a3600480360381019061029e919061269a565b610a81565b005b6102bf60048036038101906102ba9190612846565b610a97565b005b6102db60048036038101906102d691906124f4565b610bf0565b6040516102e89190612db3565b60405180910390f35b61030b600480360381019061030691906124c7565b610c84565b005b61032760048036038101906103229190612603565b610cd0565b005b610343600480360381019061033e91906124c7565b610d71565b005b60008073ffffffffffffffffffffffffffffffffffffffff168373ffffffffffffffffffffffffffffffffffffffff1614156103b6576040517f08c379a00000000000000000000000000000000000000000000000000000000081526004016103ad90612eb0565b60405180910390fd5b60008083815260200190815260200160002060008473ffffffffffffffffffffffffffffffffffffffff1673ffffffffffffffffffffffffffffffffffffffff16815260200190815260200160002054905092915050565b60007fd9b67a26000000000000000000000000000000000000000000000000000000007bffffffffffffffffffffffffffffffffffffffffffffffffffffffff1916827bffffffffffffffffffffffffffffffffffffffffffffffffffffffff191614806104d957507f0e89341c000000000000000000000000000000000000000000000000000000007bffffffffffffffffffffffffffffffffffffffffffffffffffffffff1916827bffffffffffffffffffffffffffffffffffffffffffffffffffffffff1916145b806104e957506104e882610df5565b5b9050919050565b600480546104fd906134ff565b80601f0160208091040260200160405190810160405280929190818152602001828054610529906134ff565b80156105765780601f1061054b57610100808354040283529160200191610576565b820191906000526020600020905b81548152906001019060200180831161055957829003601f168201915b505050505081565b60606002805461058d906134ff565b80601f01602080910402602001604051908101604052809291908181526020018280546105b9906134ff565b80156106065780601f106105db57610100808354040283529160200191610606565b820191906000526020600020905b8154815290600101906020018083116105e957829003601f168201915b50505050509050919050565b61061a610e5f565b73ffffffffffffffffffffffffffffffffffffffff168573ffffffffffffffffffffffffffffffffffffffff161480610660575061065f8561065a610e5f565b610bf0565b5b61069f576040517f08c379a000000000000000000000000000000000000000000000000000000000815260040161069690612e10565b60405180910390fd5b6106ac8585858585610e67565b5050505050565b60006106d63373ffffffffffffffffffffffffffffffffffffffff166014611189565b905060006106e3826113c5565b90506007600082815260200190815260200160002060009054906101000a900460ff161561071057600080fd5b61076a33826001600067ffffffffffffffff81111561073257610731613698565b5b6040519080825280601f01601f1916602001820160405280156107645781602001600182028036833780820191505090505b50611421565b600660009054906101000a900473ffffffffffffffffffffffffffffffffffffffff1673ffffffffffffffffffffffffffffffffffffffff1663088d4f2133836040518363ffffffff1660e01b81526004016107c7929190612d31565b600060405180830381600087803b1580156107e157600080fd5b505af11580156107f5573d6000803e3d6000fd5b5050505060016007600083815260200190815260200160002060006101000a81548160ff0219169083151502179055503373ffffffffffffffffffffffffffffffffffffffff167fb6fc9f9cab5288dbb7084935e07c911187b2305868b81a4327a1612b80168f25826001426040516108709392919061302b565b60405180910390a25050565b606081518351146108c2576040517f08c379a00000000000000000000000000000000000000000000000000000000081526004016108b990612fb0565b60405180910390fd5b6000835167ffffffffffffffff8111156108df576108de613698565b5b60405190808252806020026020018201604052801561090d5781602001602082028036833780820191505090505b50905060005b845181101561098a5761095a85828151811061093257610931613669565b5b602002602001015185838151811061094d5761094c613669565b5b6020026020010151610345565b82828151811061096d5761096c613669565b5b6020026020010181815250508061098390613562565b9050610913565b508091505092915050565b60076020528060005260406000206000915054906101000a900460ff1681565b6109bd6115d2565b6109c76000611650565b565b6000600360009054906101000a900473ffffffffffffffffffffffffffffffffffffffff16905090565b60058054610a00906134ff565b80601f0160208091040260200160405190810160405280929190818152602001828054610a2c906134ff565b8015610a795780601f10610a4e57610100808354040283529160200191610a79565b820191906000526020600020905b815481529060010190602001808311610a5c57829003601f168201915b505050505081565b610a93610a8c610e5f565b8383611716565b5050565b60003073ffffffffffffffffffffffffffffffffffffffff1662fdd58e33856040518363ffffffff1660e01b8152600401610ad3929190612d31565b60206040518083038186803b158015610aeb57600080fd5b505afa158015610aff573d6000803e3d6000fd5b505050506040513d601f19601f82011682018060405250810190610b239190612819565b11610b63576040517f08c379a0000000000000000000000000000000000000000000000000000000008152600401610b5a90612f50565b60405180910390fd5b610b6e338383611883565b60006007600084815260200190815260200160002060006101000a81548160ff0219169083151502179055503373ffffffffffffffffffffffffffffffffffffffff167f3658222190fb1159111700dbf91874a3d7bbb0d894ceb693c867267ded91d9b6838342604051610be49392919061308b565b60405180910390a25050565b6000600160008473ffffffffffffffffffffffffffffffffffffffff1673ffffffffffffffffffffffffffffffffffffffff16815260200190815260200160002060008373ffffffffffffffffffffffffffffffffffffffff1673ffffffffffffffffffffffffffffffffffffffff16815260200190815260200160002060009054906101000a900460ff16905092915050565b610c8c6115d2565b80600660006101000a81548173ffffffffffffffffffffffffffffffffffffffff021916908373ffffffffffffffffffffffffffffffffffffffff16021790555050565b610cd8610e5f565b73ffffffffffffffffffffffffffffffffffffffff168573ffffffffffffffffffffffffffffffffffffffff161480610d1e5750610d1d85610d18610e5f565b610bf0565b5b610d5d576040517f08c379a0000000000000000000000000000000000000000000000000000000008152600401610d5490612e10565b60405180910390fd5b610d6a8585858585611aca565b5050505050565b610d796115d2565b600073ffffffffffffffffffffffffffffffffffffffff168173ffffffffffffffffffffffffffffffffffffffff161415610de9576040517f08c379a0000000000000000000000000000000000000000000000000000000008152600401610de090612e70565b60405180910390fd5b610df281611650565b50565b60007f01ffc9a7000000000000000000000000000000000000000000000000000000007bffffffffffffffffffffffffffffffffffffffffffffffffffffffff1916827bffffffffffffffffffffffffffffffffffffffffffffffffffffffff1916149050919050565b600033905090565b8151835114610eab576040517f08c379a0000000000000000000000000000000000000000000000000000000008152600401610ea290612fd0565b60405180910390fd5b600073ffffffffffffffffffffffffffffffffffffffff168473ffffffffffffffffffffffffffffffffffffffff161415610f1b576040517f08c379a0000000000000000000000000000000000000000000000000000000008152600401610f1290612ed0565b60405180910390fd5b6000610f25610e5f565b9050610f35818787878787611d66565b60005b84518110156110e6576000858281518110610f5657610f55613669565b5b602002602001015190506000858381518110610f7557610f74613669565b5b60200260200101519050600080600084815260200190815260200160002060008b73ffffffffffffffffffffffffffffffffffffffff1673ffffffffffffffffffffffffffffffffffffffff16815260200190815260200160002054905081811015611016576040517f08c379a000000000000000000000000000000000000000000000000000000000815260040161100d90612f10565b60405180910390fd5b81810360008085815260200190815260200160002060008c73ffffffffffffffffffffffffffffffffffffffff1673ffffffffffffffffffffffffffffffffffffffff168152602001908152602001600020819055508160008085815260200190815260200160002060008b73ffffffffffffffffffffffffffffffffffffffff1673ffffffffffffffffffffffffffffffffffffffff16815260200190815260200160002060008282546110cb91906131ec565b92505081905550505050806110df90613562565b9050610f38565b508473ffffffffffffffffffffffffffffffffffffffff168673ffffffffffffffffffffffffffffffffffffffff168273ffffffffffffffffffffffffffffffffffffffff167f4a39dc06d4c0dbc64b70af90fd698a233a518aa5d07e595d983b8c0526c8f7fb878760405161115d929190612d7c565b60405180910390a4611173818787878787611e22565b611181818787878787611e2a565b505050505050565b60606000600283600261119c91906133b3565b6111a691906131ec565b67ffffffffffffffff8111156111bf576111be613698565b5b6040519080825280601f01601f1916602001820160405280156111f15781602001600182028036833780820191505090505b5090507f30000000000000000000000000000000000000000000000000000000000000008160008151811061122957611228613669565b5b60200101907effffffffffffffffffffffffffffffffffffffffffffffffffffffffffffff1916908160001a9053507f78000000000000000000000000000000000000000000000000000000000000008160018151811061128d5761128c613669565b5b60200101907effffffffffffffffffffffffffffffffffffffffffffffffffffffffffffff1916908160001a905350600060018460026112cd91906133b3565b6112d791906131ec565b90505b6001811115611377577f3031323334353637383961626364656600000000000000000000000000000000600f86166010811061131957611318613669565b5b1a60f81b8282815181106113305761132f613669565b5b60200101907effffffffffffffffffffffffffffffffffffffffffffffffffffffffffffff1916908160001a905350600485901c945080611370906134d5565b90506112da565b50600084146113bb576040517f08c379a00000000000000000000000000000000000000000000000000000000081526004016113b290612e30565b60405180910390fd5b8091505092915050565b60008060089050600081600a6113db9190613295565b90506000846040516020016113f09190612c3d565b6040516020818303038152906040528051906020012060001c9050818161141791906135ab565b9350505050919050565b600073ffffffffffffffffffffffffffffffffffffffff168473ffffffffffffffffffffffffffffffffffffffff161415611491576040517f08c379a000000000000000000000000000000000000000000000000000000000815260040161148890612ff0565b60405180910390fd5b600061149b610e5f565b905060006114a885612011565b905060006114b585612011565b90506114c683600089858589611d66565b8460008088815260200190815260200160002060008973ffffffffffffffffffffffffffffffffffffffff1673ffffffffffffffffffffffffffffffffffffffff168152602001908152602001600020600082825461152591906131ec565b925050819055508673ffffffffffffffffffffffffffffffffffffffff16600073ffffffffffffffffffffffffffffffffffffffff168473ffffffffffffffffffffffffffffffffffffffff167fc3d58168c5ae7397731d063d5bbf3d657854427343f4c083240f7aacaa2d0f6289896040516115a3929190613062565b60405180910390a46115ba83600089858589611e22565b6115c98360008989898961208b565b50505050505050565b6115da610e5f565b73ffffffffffffffffffffffffffffffffffffffff166115f86109c9565b73ffffffffffffffffffffffffffffffffffffffff161461164e576040517f08c379a000000000000000000000000000000000000000000000000000000000815260040161164590612f30565b60405180910390fd5b565b6000600360009054906101000a900473ffffffffffffffffffffffffffffffffffffffff16905081600360006101000a81548173ffffffffffffffffffffffffffffffffffffffff021916908373ffffffffffffffffffffffffffffffffffffffff1602179055508173ffffffffffffffffffffffffffffffffffffffff168173ffffffffffffffffffffffffffffffffffffffff167f8be0079c531659141344cd1fd0a4f28419497f9722a3daafe3b4186f6b6457e060405160405180910390a35050565b8173ffffffffffffffffffffffffffffffffffffffff168373ffffffffffffffffffffffffffffffffffffffff161415611785576040517f08c379a000000000000000000000000000000000000000000000000000000000815260040161177c90612f90565b60405180910390fd5b80600160008573ffffffffffffffffffffffffffffffffffffffff1673ffffffffffffffffffffffffffffffffffffffff16815260200190815260200160002060008473ffffffffffffffffffffffffffffffffffffffff1673ffffffffffffffffffffffffffffffffffffffff16815260200190815260200160002060006101000a81548160ff0219169083151502179055508173ffffffffffffffffffffffffffffffffffffffff168373ffffffffffffffffffffffffffffffffffffffff167f17307eab39ab6107e8899845ad3d59bd9653f200f220920489ca2b5937696c31836040516118769190612db3565b60405180910390a3505050565b600073ffffffffffffffffffffffffffffffffffffffff168373ffffffffffffffffffffffffffffffffffffffff1614156118f3576040517f08c379a00000000000000000000000000000000000000000000000000000000081526004016118ea90612ef0565b60405180910390fd5b60006118fd610e5f565b9050600061190a84612011565b9050600061191784612011565b905061193783876000858560405180602001604052806000815250611d66565b600080600087815260200190815260200160002060008873ffffffffffffffffffffffffffffffffffffffff1673ffffffffffffffffffffffffffffffffffffffff168152602001908152602001600020549050848110156119ce576040517f08c379a00000000000000000000000000000000000000000000000000000000081526004016119c590612e90565b60405180910390fd5b84810360008088815260200190815260200160002060008973ffffffffffffffffffffffffffffffffffffffff1673ffffffffffffffffffffffffffffffffffffffff16815260200190815260200160002081905550600073ffffffffffffffffffffffffffffffffffffffff168773ffffffffffffffffffffffffffffffffffffffff168573ffffffffffffffffffffffffffffffffffffffff167fc3d58168c5ae7397731d063d5bbf3d657854427343f4c083240f7aacaa2d0f628989604051611a9b929190613062565b60405180910390a4611ac184886000868660405180602001604052806000815250611e22565b50505050505050565b600073ffffffffffffffffffffffffffffffffffffffff168473ffffffffffffffffffffffffffffffffffffffff161415611b3a576040517f08c379a0000000000000000000000000000000000000000000000000000000008152600401611b3190612ed0565b60405180910390fd5b6000611b44610e5f565b90506000611b5185612011565b90506000611b5e85612011565b9050611b6e838989858589611d66565b600080600088815260200190815260200160002060008a73ffffffffffffffffffffffffffffffffffffffff1673ffffffffffffffffffffffffffffffffffffffff16815260200190815260200160002054905085811015611c05576040517f08c379a0000000000000000000000000000000000000000000000000000000008152600401611bfc90612f10565b60405180910390fd5b85810360008089815260200190815260200160002060008b73ffffffffffffffffffffffffffffffffffffffff1673ffffffffffffffffffffffffffffffffffffffff168152602001908152602001600020819055508560008089815260200190815260200160002060008a73ffffffffffffffffffffffffffffffffffffffff1673ffffffffffffffffffffffffffffffffffffffff1681526020019081526020016000206000828254611cba91906131ec565b925050819055508773ffffffffffffffffffffffffffffffffffffffff168973ffffffffffffffffffffffffffffffffffffffff168573ffffffffffffffffffffffffffffffffffffffff167fc3d58168c5ae7397731d063d5bbf3d657854427343f4c083240f7aacaa2d0f628a8a604051611d37929190613062565b60405180910390a4611d4d848a8a86868a611e22565b611d5b848a8a8a8a8a61208b565b505050505050505050565b600073ffffffffffffffffffffffffffffffffffffffff168573ffffffffffffffffffffffffffffffffffffffff161480611dcd5750600073ffffffffffffffffffffffffffffffffffffffff168473ffffffffffffffffffffffffffffffffffffffff16145b611e0c576040517f08c379a0000000000000000000000000000000000000000000000000000000008152600401611e0390612f70565b60405180910390fd5b611e1a868686868686612272565b505050505050565b505050505050565b611e498473ffffffffffffffffffffffffffffffffffffffff1661227a565b15612009578373ffffffffffffffffffffffffffffffffffffffff1663bc197c8187878686866040518663ffffffff1660e01b8152600401611e8f959493929190612c6f565b602060405180830381600087803b158015611ea957600080fd5b505af1925050508015611eda57506040513d601f19601f82011682018060405250810190611ed791906127bf565b60015b611f8057611ee66136c7565b806308c379a01415611f435750611efb613bd4565b80611f065750611f45565b806040517f08c379a0000000000000000000000000000000000000000000000000000000008152600401611f3a9190612dce565b60405180910390fd5b505b6040517f08c379a0000000000000000000000000000000000000000000000000000000008152600401611f7790612df0565b60405180910390fd5b63bc197c8160e01b7bffffffffffffffffffffffffffffffffffffffffffffffffffffffff1916817bffffffffffffffffffffffffffffffffffffffffffffffffffffffff191614612007576040517f08c379a0000000000000000000000000000000000000000000000000000000008152600401611ffe90612e50565b60405180910390fd5b505b505050505050565b60606000600167ffffffffffffffff8111156120305761202f613698565b5b60405190808252806020026020018201604052801561205e5781602001602082028036833780820191505090505b509050828160008151811061207657612075613669565b5b60200260200101818152505080915050919050565b6120aa8473ffffffffffffffffffffffffffffffffffffffff1661227a565b1561226a578373ffffffffffffffffffffffffffffffffffffffff1663f23a6e6187878686866040518663ffffffff1660e01b81526004016120f0959493929190612cd7565b602060405180830381600087803b15801561210a57600080fd5b505af192505050801561213b57506040513d601f19601f8201168201806040525081019061213891906127bf565b60015b6121e1576121476136c7565b806308c379a014156121a4575061215c613bd4565b8061216757506121a6565b806040517f08c379a000000000000000000000000000000000000000000000000000000000815260040161219b9190612dce565b60405180910390fd5b505b6040517f08c379a00000000000000000000000000000000000000000000000000000000081526004016121d890612df0565b60405180910390fd5b63f23a6e6160e01b7bffffffffffffffffffffffffffffffffffffffffffffffffffffffff1916817bffffffffffffffffffffffffffffffffffffffffffffffffffffffff191614612268576040517f08c379a000000000000000000000000000000000000000000000000000000000815260040161225f90612e50565b60405180910390fd5b505b505050505050565b505050505050565b6000808273ffffffffffffffffffffffffffffffffffffffff163b119050919050565b60006122b06122ab846130e7565b6130c2565b905080838252602082019050828560208602820111156122d3576122d26136ee565b5b60005b8581101561230357816122e988826123bf565b8452602084019350602083019250506001810190506122d6565b5050509392505050565b600061232061231b84613113565b6130c2565b90508083825260208201905082856020860282011115612343576123426136ee565b5b60005b858110156123735781612359888261249d565b845260208401935060208301925050600181019050612346565b5050509392505050565b600061239061238b8461313f565b6130c2565b9050828152602081018484840111156123ac576123ab6136f3565b5b6123b7848285613493565b509392505050565b6000813590506123ce81613c6a565b92915050565b600082601f8301126123e9576123e86136e9565b5b81356123f984826020860161229d565b91505092915050565b600082601f830112612417576124166136e9565b5b813561242784826020860161230d565b91505092915050565b60008135905061243f81613c81565b92915050565b60008135905061245481613c98565b92915050565b60008151905061246981613c98565b92915050565b600082601f830112612484576124836136e9565b5b813561249484826020860161237d565b91505092915050565b6000813590506124ac81613caf565b92915050565b6000815190506124c181613caf565b92915050565b6000602082840312156124dd576124dc6136fd565b5b60006124eb848285016123bf565b91505092915050565b6000806040838503121561250b5761250a6136fd565b5b6000612519858286016123bf565b925050602061252a858286016123bf565b9150509250929050565b600080600080600060a086880312156125505761254f6136fd565b5b600061255e888289016123bf565b955050602061256f888289016123bf565b945050604086013567ffffffffffffffff8111156125905761258f6136f8565b5b61259c88828901612402565b935050606086013567ffffffffffffffff8111156125bd576125bc6136f8565b5b6125c988828901612402565b925050608086013567ffffffffffffffff8111156125ea576125e96136f8565b5b6125f68882890161246f565b9150509295509295909350565b600080600080600060a0868803121561261f5761261e6136fd565b5b600061262d888289016123bf565b955050602061263e888289016123bf565b945050604061264f8882890161249d565b93505060606126608882890161249d565b925050608086013567ffffffffffffffff811115612681576126806136f8565b5b61268d8882890161246f565b9150509295509295909350565b600080604083850312156126b1576126b06136fd565b5b60006126bf858286016123bf565b92505060206126d085828601612430565b9150509250929050565b600080604083850312156126f1576126f06136fd565b5b60006126ff858286016123bf565b92505060206127108582860161249d565b9150509250929050565b60008060408385031215612731576127306136fd565b5b600083013567ffffffffffffffff81111561274f5761274e6136f8565b5b61275b858286016123d4565b925050602083013567ffffffffffffffff81111561277c5761277b6136f8565b5b61278885828601612402565b9150509250929050565b6000602082840312156127a8576127a76136fd565b5b60006127b684828501612445565b91505092915050565b6000602082840312156127d5576127d46136fd565b5b60006127e38482850161245a565b91505092915050565b600060208284031215612802576128016136fd565b5b60006128108482850161249d565b91505092915050565b60006020828403121561282f5761282e6136fd565b5b600061283d848285016124b2565b91505092915050565b6000806040838503121561285d5761285c6136fd565b5b600061286b8582860161249d565b925050602061287c8582860161249d565b9150509250929050565b60006128928383612c1f565b60208301905092915050565b6128a78161340d565b82525050565b60006128b882613180565b6128c281856131ae565b93506128cd83613170565b8060005b838110156128fe5781516128e58882612886565b97506128f0836131a1565b9250506001810190506128d1565b5085935050505092915050565b6129148161341f565b82525050565b60006129258261318b565b61292f81856131bf565b935061293f8185602086016134a2565b61294881613702565b840191505092915050565b61295c81613481565b82525050565b600061296d82613196565b61297781856131d0565b93506129878185602086016134a2565b61299081613702565b840191505092915050565b60006129a682613196565b6129b081856131e1565b93506129c08185602086016134a2565b80840191505092915050565b60006129d96034836131d0565b91506129e48261372d565b604082019050919050565b60006129fc602f836131d0565b9150612a078261377c565b604082019050919050565b6000612a1f6020836131d0565b9150612a2a826137cb565b602082019050919050565b6000612a426028836131d0565b9150612a4d826137f4565b604082019050919050565b6000612a656026836131d0565b9150612a7082613843565b604082019050919050565b6000612a886024836131d0565b9150612a9382613892565b604082019050919050565b6000612aab602a836131d0565b9150612ab6826138e1565b604082019050919050565b6000612ace6025836131d0565b9150612ad982613930565b604082019050919050565b6000612af16023836131d0565b9150612afc8261397f565b604082019050919050565b6000612b14602a836131d0565b9150612b1f826139ce565b604082019050919050565b6000612b376020836131d0565b9150612b4282613a1d565b602082019050919050565b6000612b5a6016836131d0565b9150612b6582613a46565b602082019050919050565b6000612b7d6019836131d0565b9150612b8882613a6f565b602082019050919050565b6000612ba06029836131d0565b9150612bab82613a98565b604082019050919050565b6000612bc36029836131d0565b9150612bce82613ae7565b604082019050919050565b6000612be66028836131d0565b9150612bf182613b36565b604082019050919050565b6000612c096021836131d0565b9150612c1482613b85565b604082019050919050565b612c2881613477565b82525050565b612c3781613477565b82525050565b6000612c49828461299b565b915081905092915050565b6000602082019050612c69600083018461289e565b92915050565b600060a082019050612c84600083018861289e565b612c91602083018761289e565b8181036040830152612ca381866128ad565b90508181036060830152612cb781856128ad565b90508181036080830152612ccb818461291a565b90509695505050505050565b600060a082019050612cec600083018861289e565b612cf9602083018761289e565b612d066040830186612c2e565b612d136060830185612c2e565b8181036080830152612d25818461291a565b90509695505050505050565b6000604082019050612d46600083018561289e565b612d536020830184612c2e565b9392505050565b60006020820190508181036000830152612d7481846128ad565b905092915050565b60006040820190508181036000830152612d9681856128ad565b90508181036020830152612daa81846128ad565b90509392505050565b6000602082019050612dc8600083018461290b565b92915050565b60006020820190508181036000830152612de88184612962565b905092915050565b60006020820190508181036000830152612e09816129cc565b9050919050565b60006020820190508181036000830152612e29816129ef565b9050919050565b60006020820190508181036000830152612e4981612a12565b9050919050565b60006020820190508181036000830152612e6981612a35565b9050919050565b60006020820190508181036000830152612e8981612a58565b9050919050565b60006020820190508181036000830152612ea981612a7b565b9050919050565b60006020820190508181036000830152612ec981612a9e565b9050919050565b60006020820190508181036000830152612ee981612ac1565b9050919050565b60006020820190508181036000830152612f0981612ae4565b9050919050565b60006020820190508181036000830152612f2981612b07565b9050919050565b60006020820190508181036000830152612f4981612b2a565b9050919050565b60006020820190508181036000830152612f6981612b4d565b9050919050565b60006020820190508181036000830152612f8981612b70565b9050919050565b60006020820190508181036000830152612fa981612b93565b9050919050565b60006020820190508181036000830152612fc981612bb6565b9050919050565b60006020820190508181036000830152612fe981612bd9565b9050919050565b6000602082019050818103600083015261300981612bfc565b9050919050565b60006020820190506130256000830184612c2e565b92915050565b60006060820190506130406000830186612c2e565b61304d6020830185612953565b61305a6040830184612c2e565b949350505050565b60006040820190506130776000830185612c2e565b6130846020830184612c2e565b9392505050565b60006060820190506130a06000830186612c2e565b6130ad6020830185612c2e565b6130ba6040830184612c2e565b949350505050565b60006130cc6130dd565b90506130d88282613531565b919050565b6000604051905090565b600067ffffffffffffffff82111561310257613101613698565b5b602082029050602081019050919050565b600067ffffffffffffffff82111561312e5761312d613698565b5b602082029050602081019050919050565b600067ffffffffffffffff82111561315a57613159613698565b5b61316382613702565b9050602081019050919050565b6000819050602082019050919050565b600081519050919050565b600081519050919050565b600081519050919050565b6000602082019050919050565b600082825260208201905092915050565b600082825260208201905092915050565b600082825260208201905092915050565b600081905092915050565b60006131f782613477565b915061320283613477565b9250827fffffffffffffffffffffffffffffffffffffffffffffffffffffffffffffffff03821115613237576132366135dc565b5b828201905092915050565b6000808291508390505b600185111561328c57808604811115613268576132676135dc565b5b60018516156132775780820291505b808102905061328585613713565b945061324c565b94509492505050565b60006132a082613477565b91506132ab83613477565b92506132d87fffffffffffffffffffffffffffffffffffffffffffffffffffffffffffffffff84846132e0565b905092915050565b6000826132f057600190506133ac565b816132fe57600090506133ac565b8160018114613314576002811461331e5761334d565b60019150506133ac565b60ff8411156133305761332f6135dc565b5b8360020a915084821115613347576133466135dc565b5b506133ac565b5060208310610133831016604e8410600b84101617156133825782820a90508381111561337d5761337c6135dc565b5b6133ac565b61338f8484846001613242565b925090508184048111156133a6576133a56135dc565b5b81810290505b9392505050565b60006133be82613477565b91506133c983613477565b9250817fffffffffffffffffffffffffffffffffffffffffffffffffffffffffffffffff0483118215151615613402576134016135dc565b5b828202905092915050565b600061341882613457565b9050919050565b60008115159050919050565b60007fffffffff0000000000000000000000000000000000000000000000000000000082169050919050565b600073ffffffffffffffffffffffffffffffffffffffff82169050919050565b6000819050919050565b600061348c82613477565b9050919050565b82818337600083830152505050565b60005b838110156134c05780820151818401526020810190506134a5565b838111156134cf576000848401525b50505050565b60006134e082613477565b915060008214156134f4576134f36135dc565b5b600182039050919050565b6000600282049050600182168061351757607f821691505b6020821081141561352b5761352a61363a565b5b50919050565b61353a82613702565b810181811067ffffffffffffffff8211171561355957613558613698565b5b80604052505050565b600061356d82613477565b91507fffffffffffffffffffffffffffffffffffffffffffffffffffffffffffffffff8214156135a05761359f6135dc565b5b600182019050919050565b60006135b682613477565b91506135c183613477565b9250826135d1576135d061360b565b5b828206905092915050565b7f4e487b7100000000000000000000000000000000000000000000000000000000600052601160045260246000fd5b7f4e487b7100000000000000000000000000000000000000000000000000000000600052601260045260246000fd5b7f4e487b7100000000000000000000000000000000000000000000000000000000600052602260045260246000fd5b7f4e487b7100000000000000000000000000000000000000000000000000000000600052603260045260246000fd5b7f4e487b7100000000000000000000000000000000000000000000000000000000600052604160045260246000fd5b600060033d11156136e65760046000803e6136e3600051613720565b90505b90565b600080fd5b600080fd5b600080fd5b600080fd5b600080fd5b6000601f19601f8301169050919050565b60008160011c9050919050565b60008160e01c9050919050565b7f455243313135353a207472616e7366657220746f206e6f6e204552433131353560008201527f526563656976657220696d706c656d656e746572000000000000000000000000602082015250565b7f455243313135353a2063616c6c6572206973206e6f7420746f6b656e206f776e60008201527f6572206e6f7220617070726f7665640000000000000000000000000000000000602082015250565b7f537472696e67733a20686578206c656e67746820696e73756666696369656e74600082015250565b7f455243313135353a204552433131353552656365697665722072656a6563746560008201527f6420746f6b656e73000000000000000000000000000000000000000000000000602082015250565b7f4f776e61626c653a206e6577206f776e657220697320746865207a65726f206160008201527f6464726573730000000000000000000000000000000000000000000000000000602082015250565b7f455243313135353a206275726e20616d6f756e7420657863656564732062616c60008201527f616e636500000000000000000000000000000000000000000000000000000000602082015250565b7f455243313135353a2061646472657373207a65726f206973206e6f742061207660008201527f616c6964206f776e657200000000000000000000000000000000000000000000602082015250565b7f455243313135353a207472616e7366657220746f20746865207a65726f20616460008201527f6472657373000000000000000000000000000000000000000000000000000000602082015250565b7f455243313135353a206275726e2066726f6d20746865207a65726f206164647260008201527f6573730000000000000000000000000000000000000000000000000000000000602082015250565b7f455243313135353a20696e73756666696369656e742062616c616e636520666f60008201527f72207472616e7366657200000000000000000000000000000000000000000000602082015250565b7f4f776e61626c653a2063616c6c6572206973206e6f7420746865206f776e6572600082015250565b7f6d757374206265206f776e6572206f6620746f6b656e00000000000000000000600082015250565b7f746f6b656e2063616e74206265207472616e7366657272656400000000000000600082015250565b7f455243313135353a2073657474696e6720617070726f76616c2073746174757360008201527f20666f722073656c660000000000000000000000000000000000000000000000602082015250565b7f455243313135353a206163636f756e747320616e6420696473206c656e67746860008201527f206d69736d617463680000000000000000000000000000000000000000000000602082015250565b7f455243313135353a2069647320616e6420616d6f756e7473206c656e6774682060008201527f6d69736d61746368000000000000000000000000000000000000000000000000602082015250565b7f455243313135353a206d696e7420746f20746865207a65726f2061646472657360008201527f7300000000000000000000000000000000000000000000000000000000000000602082015250565b600060443d1015613be457613c67565b613bec6130dd565b60043d036004823e80513d602482011167ffffffffffffffff82111715613c14575050613c67565b808201805167ffffffffffffffff811115613c325750505050613c67565b80602083010160043d038501811115613c4f575050505050613c67565b613c5e82602001850186613531565b82955050505050505b90565b613c738161340d565b8114613c7e57600080fd5b50565b613c8a8161341f565b8114613c9557600080fd5b50565b613ca18161342b565b8114613cac57600080fd5b50565b613cb881613477565b8114613cc357600080fd5b5056fea2646970667358221220f334239345aba6b966d9b02384624b5040a197bdd97fc84232cb75c25cd7fa6264736f6c63430008070033",
			"opcodes": "PUSH1 0x80 PUSH1 0x40 MSTORE CALLVALUE DUP1 ISZERO PUSH3 0x11 JUMPI PUSH1 0x0 DUP1 REVERT JUMPDEST POP PUSH1 0x40 MLOAD PUSH3 0x4206 CODESIZE SUB DUP1 PUSH3 0x4206 DUP4 CODECOPY DUP2 DUP2 ADD PUSH1 0x40 MSTORE DUP2 ADD SWAP1 PUSH3 0x37 SWAP2 SWAP1 PUSH3 0x2BD JUMP JUMPDEST DUP1 PUSH3 0x49 DUP2 PUSH3 0xA5 PUSH1 0x20 SHL PUSH1 0x20 SHR JUMP JUMPDEST POP PUSH3 0x6A PUSH3 0x5E PUSH3 0xC1 PUSH1 0x20 SHL PUSH1 0x20 SHR JUMP JUMPDEST PUSH3 0xC9 PUSH1 0x20 SHL PUSH1 0x20 SHR JUMP JUMPDEST DUP3 PUSH1 0x4 SWAP1 DUP1 MLOAD SWAP1 PUSH1 0x20 ADD SWAP1 PUSH3 0x82 SWAP3 SWAP2 SWAP1 PUSH3 0x18F JUMP JUMPDEST POP DUP2 PUSH1 0x5 SWAP1 DUP1 MLOAD SWAP1 PUSH1 0x20 ADD SWAP1 PUSH3 0x9B SWAP3 SWAP2 SWAP1 PUSH3 0x18F JUMP JUMPDEST POP POP POP POP PUSH3 0x4FA JUMP JUMPDEST DUP1 PUSH1 0x2 SWAP1 DUP1 MLOAD SWAP1 PUSH1 0x20 ADD SWAP1 PUSH3 0xBD SWAP3 SWAP2 SWAP1 PUSH3 0x18F JUMP JUMPDEST POP POP JUMP JUMPDEST PUSH1 0x0 CALLER SWAP1 POP SWAP1 JUMP JUMPDEST PUSH1 0x0 PUSH1 0x3 PUSH1 0x0 SWAP1 SLOAD SWAP1 PUSH2 0x100 EXP SWAP1 DIV PUSH20 0xFFFFFFFFFFFFFFFFFFFFFFFFFFFFFFFFFFFFFFFF AND SWAP1 POP DUP2 PUSH1 0x3 PUSH1 0x0 PUSH2 0x100 EXP DUP2 SLOAD DUP2 PUSH20 0xFFFFFFFFFFFFFFFFFFFFFFFFFFFFFFFFFFFFFFFF MUL NOT AND SWAP1 DUP4 PUSH20 0xFFFFFFFFFFFFFFFFFFFFFFFFFFFFFFFFFFFFFFFF AND MUL OR SWAP1 SSTORE POP DUP2 PUSH20 0xFFFFFFFFFFFFFFFFFFFFFFFFFFFFFFFFFFFFFFFF AND DUP2 PUSH20 0xFFFFFFFFFFFFFFFFFFFFFFFFFFFFFFFFFFFFFFFF AND PUSH32 0x8BE0079C531659141344CD1FD0A4F28419497F9722A3DAAFE3B4186F6B6457E0 PUSH1 0x40 MLOAD PUSH1 0x40 MLOAD DUP1 SWAP2 SUB SWAP1 LOG3 POP POP JUMP JUMPDEST DUP3 DUP1 SLOAD PUSH3 0x19D SWAP1 PUSH3 0x40B JUMP JUMPDEST SWAP1 PUSH1 0x0 MSTORE PUSH1 0x20 PUSH1 0x0 KECCAK256 SWAP1 PUSH1 0x1F ADD PUSH1 0x20 SWAP1 DIV DUP2 ADD SWAP3 DUP3 PUSH3 0x1C1 JUMPI PUSH1 0x0 DUP6 SSTORE PUSH3 0x20D JUMP JUMPDEST DUP3 PUSH1 0x1F LT PUSH3 0x1DC JUMPI DUP1 MLOAD PUSH1 0xFF NOT AND DUP4 DUP1 ADD OR DUP6 SSTORE PUSH3 0x20D JUMP JUMPDEST DUP3 DUP1 ADD PUSH1 0x1 ADD DUP6 SSTORE DUP3 ISZERO PUSH3 0x20D JUMPI SWAP2 DUP3 ADD JUMPDEST DUP3 DUP2 GT ISZERO PUSH3 0x20C JUMPI DUP3 MLOAD DUP3 SSTORE SWAP2 PUSH1 0x20 ADD SWAP2 SWAP1 PUSH1 0x1 ADD SWAP1 PUSH3 0x1EF JUMP JUMPDEST JUMPDEST POP SWAP1 POP PUSH3 0x21C SWAP2 SWAP1 PUSH3 0x220 JUMP JUMPDEST POP SWAP1 JUMP JUMPDEST JUMPDEST DUP1 DUP3 GT ISZERO PUSH3 0x23B JUMPI PUSH1 0x0 DUP2 PUSH1 0x0 SWAP1 SSTORE POP PUSH1 0x1 ADD PUSH3 0x221 JUMP JUMPDEST POP SWAP1 JUMP JUMPDEST PUSH1 0x0 PUSH3 0x256 PUSH3 0x250 DUP5 PUSH3 0x39F JUMP JUMPDEST PUSH3 0x376 JUMP JUMPDEST SWAP1 POP DUP3 DUP2 MSTORE PUSH1 0x20 DUP2 ADD DUP5 DUP5 DUP5 ADD GT ISZERO PUSH3 0x275 JUMPI PUSH3 0x274 PUSH3 0x4DA JUMP JUMPDEST JUMPDEST PUSH3 0x282 DUP5 DUP3 DUP6 PUSH3 0x3D5 JUMP JUMPDEST POP SWAP4 SWAP3 POP POP POP JUMP JUMPDEST PUSH1 0x0 DUP3 PUSH1 0x1F DUP4 ADD SLT PUSH3 0x2A2 JUMPI PUSH3 0x2A1 PUSH3 0x4D5 JUMP JUMPDEST JUMPDEST DUP2 MLOAD PUSH3 0x2B4 DUP5 DUP3 PUSH1 0x20 DUP7 ADD PUSH3 0x23F JUMP JUMPDEST SWAP2 POP POP SWAP3 SWAP2 POP POP JUMP JUMPDEST PUSH1 0x0 DUP1 PUSH1 0x0 PUSH1 0x60 DUP5 DUP7 SUB SLT ISZERO PUSH3 0x2D9 JUMPI PUSH3 0x2D8 PUSH3 0x4E4 JUMP JUMPDEST JUMPDEST PUSH1 0x0 DUP5 ADD MLOAD PUSH8 0xFFFFFFFFFFFFFFFF DUP2 GT ISZERO PUSH3 0x2FA JUMPI PUSH3 0x2F9 PUSH3 0x4DF JUMP JUMPDEST JUMPDEST PUSH3 0x308 DUP7 DUP3 DUP8 ADD PUSH3 0x28A JUMP JUMPDEST SWAP4 POP POP PUSH1 0x20 DUP5 ADD MLOAD PUSH8 0xFFFFFFFFFFFFFFFF DUP2 GT ISZERO PUSH3 0x32C JUMPI PUSH3 0x32B PUSH3 0x4DF JUMP JUMPDEST JUMPDEST PUSH3 0x33A DUP7 DUP3 DUP8 ADD PUSH3 0x28A JUMP JUMPDEST SWAP3 POP POP PUSH1 0x40 DUP5 ADD MLOAD PUSH8 0xFFFFFFFFFFFFFFFF DUP2 GT ISZERO PUSH3 0x35E JUMPI PUSH3 0x35D PUSH3 0x4DF JUMP JUMPDEST JUMPDEST PUSH3 0x36C DUP7 DUP3 DUP8 ADD PUSH3 0x28A JUMP JUMPDEST SWAP2 POP POP SWAP3 POP SWAP3 POP SWAP3 JUMP JUMPDEST PUSH1 0x0 PUSH3 0x382 PUSH3 0x395 JUMP JUMPDEST SWAP1 POP PUSH3 0x390 DUP3 DUP3 PUSH3 0x441 JUMP JUMPDEST SWAP2 SWAP1 POP JUMP JUMPDEST PUSH1 0x0 PUSH1 0x40 MLOAD SWAP1 POP SWAP1 JUMP JUMPDEST PUSH1 0x0 PUSH8 0xFFFFFFFFFFFFFFFF DUP3 GT ISZERO PUSH3 0x3BD JUMPI PUSH3 0x3BC PUSH3 0x4A6 JUMP JUMPDEST JUMPDEST PUSH3 0x3C8 DUP3 PUSH3 0x4E9 JUMP JUMPDEST SWAP1 POP PUSH1 0x20 DUP2 ADD SWAP1 POP SWAP2 SWAP1 POP JUMP JUMPDEST PUSH1 0x0 JUMPDEST DUP4 DUP2 LT ISZERO PUSH3 0x3F5 JUMPI DUP1 DUP3 ADD MLOAD DUP2 DUP5 ADD MSTORE PUSH1 0x20 DUP2 ADD SWAP1 POP PUSH3 0x3D8 JUMP JUMPDEST DUP4 DUP2 GT ISZERO PUSH3 0x405 JUMPI PUSH1 0x0 DUP5 DUP5 ADD MSTORE JUMPDEST POP POP POP POP JUMP JUMPDEST PUSH1 0x0 PUSH1 0x2 DUP3 DIV SWAP1 POP PUSH1 0x1 DUP3 AND DUP1 PUSH3 0x424 JUMPI PUSH1 0x7F DUP3 AND SWAP2 POP JUMPDEST PUSH1 0x20 DUP3 LT DUP2 EQ ISZERO PUSH3 0x43B JUMPI PUSH3 0x43A PUSH3 0x477 JUMP JUMPDEST JUMPDEST POP SWAP2 SWAP1 POP JUMP JUMPDEST PUSH3 0x44C DUP3 PUSH3 0x4E9 JUMP JUMPDEST DUP2 ADD DUP2 DUP2 LT PUSH8 0xFFFFFFFFFFFFFFFF DUP3 GT OR ISZERO PUSH3 0x46E JUMPI PUSH3 0x46D PUSH3 0x4A6 JUMP JUMPDEST JUMPDEST DUP1 PUSH1 0x40 MSTORE POP POP POP JUMP JUMPDEST PUSH32 0x4E487B7100000000000000000000000000000000000000000000000000000000 PUSH1 0x0 MSTORE PUSH1 0x22 PUSH1 0x4 MSTORE PUSH1 0x24 PUSH1 0x0 REVERT JUMPDEST PUSH32 0x4E487B7100000000000000000000000000000000000000000000000000000000 PUSH1 0x0 MSTORE PUSH1 0x41 PUSH1 0x4 MSTORE PUSH1 0x24 PUSH1 0x0 REVERT JUMPDEST PUSH1 0x0 DUP1 REVERT JUMPDEST PUSH1 0x0 DUP1 REVERT JUMPDEST PUSH1 0x0 DUP1 REVERT JUMPDEST PUSH1 0x0 DUP1 REVERT JUMPDEST PUSH1 0x0 PUSH1 0x1F NOT PUSH1 0x1F DUP4 ADD AND SWAP1 POP SWAP2 SWAP1 POP JUMP JUMPDEST PUSH2 0x3CFC DUP1 PUSH3 0x50A PUSH1 0x0 CODECOPY PUSH1 0x0 RETURN INVALID PUSH1 0x80 PUSH1 0x40 MSTORE CALLVALUE DUP1 ISZERO PUSH2 0x10 JUMPI PUSH1 0x0 DUP1 REVERT JUMPDEST POP PUSH1 0x4 CALLDATASIZE LT PUSH2 0x10A JUMPI PUSH1 0x0 CALLDATALOAD PUSH1 0xE0 SHR DUP1 PUSH4 0x715018A6 GT PUSH2 0xA2 JUMPI DUP1 PUSH4 0xB390C0AB GT PUSH2 0x71 JUMPI DUP1 PUSH4 0xB390C0AB EQ PUSH2 0x2A5 JUMPI DUP1 PUSH4 0xE985E9C5 EQ PUSH2 0x2C1 JUMPI DUP1 PUSH4 0xF23C51CD EQ PUSH2 0x2F1 JUMPI DUP1 PUSH4 0xF242432A EQ PUSH2 0x30D JUMPI DUP1 PUSH4 0xF2FDE38B EQ PUSH2 0x329 JUMPI PUSH2 0x10A JUMP JUMPDEST DUP1 PUSH4 0x715018A6 EQ PUSH2 0x243 JUMPI DUP1 PUSH4 0x8DA5CB5B EQ PUSH2 0x24D JUMPI DUP1 PUSH4 0x95D89B41 EQ PUSH2 0x26B JUMPI DUP1 PUSH4 0xA22CB465 EQ PUSH2 0x289 JUMPI PUSH2 0x10A JUMP JUMPDEST DUP1 PUSH4 0x2EB2C2D6 GT PUSH2 0xDE JUMPI DUP1 PUSH4 0x2EB2C2D6 EQ PUSH2 0x1BD JUMPI DUP1 PUSH4 0x38491A9C EQ PUSH2 0x1D9 JUMPI DUP1 PUSH4 0x4E1273F4 EQ PUSH2 0x1E3 JUMPI DUP1 PUSH4 0x4F558E79 EQ PUSH2 0x213 JUMPI PUSH2 0x10A JUMP JUMPDEST DUP1 PUSH3 0xFDD58E EQ PUSH2 0x10F JUMPI DUP1 PUSH4 0x1FFC9A7 EQ PUSH2 0x13F JUMPI DUP1 PUSH4 0x6FDDE03 EQ PUSH2 0x16F JUMPI DUP1 PUSH4 0xE89341C EQ PUSH2 0x18D JUMPI JUMPDEST PUSH1 0x0 DUP1 REVERT JUMPDEST PUSH2 0x129 PUSH1 0x4 DUP1 CALLDATASIZE SUB DUP2 ADD SWAP1 PUSH2 0x124 SWAP2 SWAP1 PUSH2 0x26DA JUMP JUMPDEST PUSH2 0x345 JUMP JUMPDEST PUSH1 0x40 MLOAD PUSH2 0x136 SWAP2 SWAP1 PUSH2 0x3010 JUMP JUMPDEST PUSH1 0x40 MLOAD DUP1 SWAP2 SUB SWAP1 RETURN JUMPDEST PUSH2 0x159 PUSH1 0x4 DUP1 CALLDATASIZE SUB DUP2 ADD SWAP1 PUSH2 0x154 SWAP2 SWAP1 PUSH2 0x2792 JUMP JUMPDEST PUSH2 0x40E JUMP JUMPDEST PUSH1 0x40 MLOAD PUSH2 0x166 SWAP2 SWAP1 PUSH2 0x2DB3 JUMP JUMPDEST PUSH1 0x40 MLOAD DUP1 SWAP2 SUB SWAP1 RETURN JUMPDEST PUSH2 0x177 PUSH2 0x4F0 JUMP JUMPDEST PUSH1 0x40 MLOAD PUSH2 0x184 SWAP2 SWAP1 PUSH2 0x2DCE JUMP JUMPDEST PUSH1 0x40 MLOAD DUP1 SWAP2 SUB SWAP1 RETURN JUMPDEST PUSH2 0x1A7 PUSH1 0x4 DUP1 CALLDATASIZE SUB DUP2 ADD SWAP1 PUSH2 0x1A2 SWAP2 SWAP1 PUSH2 0x27EC JUMP JUMPDEST PUSH2 0x57E JUMP JUMPDEST PUSH1 0x40 MLOAD PUSH2 0x1B4 SWAP2 SWAP1 PUSH2 0x2DCE JUMP JUMPDEST PUSH1 0x40 MLOAD DUP1 SWAP2 SUB SWAP1 RETURN JUMPDEST PUSH2 0x1D7 PUSH1 0x4 DUP1 CALLDATASIZE SUB DUP2 ADD SWAP1 PUSH2 0x1D2 SWAP2 SWAP1 PUSH2 0x2534 JUMP JUMPDEST PUSH2 0x612 JUMP JUMPDEST STOP JUMPDEST PUSH2 0x1E1 PUSH2 0x6B3 JUMP JUMPDEST STOP JUMPDEST PUSH2 0x1FD PUSH1 0x4 DUP1 CALLDATASIZE SUB DUP2 ADD SWAP1 PUSH2 0x1F8 SWAP2 SWAP1 PUSH2 0x271A JUMP JUMPDEST PUSH2 0x87C JUMP JUMPDEST PUSH1 0x40 MLOAD PUSH2 0x20A SWAP2 SWAP1 PUSH2 0x2D5A JUMP JUMPDEST PUSH1 0x40 MLOAD DUP1 SWAP2 SUB SWAP1 RETURN JUMPDEST PUSH2 0x22D PUSH1 0x4 DUP1 CALLDATASIZE SUB DUP2 ADD SWAP1 PUSH2 0x228 SWAP2 SWAP1 PUSH2 0x27EC JUMP JUMPDEST PUSH2 0x995 JUMP JUMPDEST PUSH1 0x40 MLOAD PUSH2 0x23A SWAP2 SWAP1 PUSH2 0x2DB3 JUMP JUMPDEST PUSH1 0x40 MLOAD DUP1 SWAP2 SUB SWAP1 RETURN JUMPDEST PUSH2 0x24B PUSH2 0x9B5 JUMP JUMPDEST STOP JUMPDEST PUSH2 0x255 PUSH2 0x9C9 JUMP JUMPDEST PUSH1 0x40 MLOAD PUSH2 0x262 SWAP2 SWAP1 PUSH2 0x2C54 JUMP JUMPDEST PUSH1 0x40 MLOAD DUP1 SWAP2 SUB SWAP1 RETURN JUMPDEST PUSH2 0x273 PUSH2 0x9F3 JUMP JUMPDEST PUSH1 0x40 MLOAD PUSH2 0x280 SWAP2 SWAP1 PUSH2 0x2DCE JUMP JUMPDEST PUSH1 0x40 MLOAD DUP1 SWAP2 SUB SWAP1 RETURN JUMPDEST PUSH2 0x2A3 PUSH1 0x4 DUP1 CALLDATASIZE SUB DUP2 ADD SWAP1 PUSH2 0x29E SWAP2 SWAP1 PUSH2 0x269A JUMP JUMPDEST PUSH2 0xA81 JUMP JUMPDEST STOP JUMPDEST PUSH2 0x2BF PUSH1 0x4 DUP1 CALLDATASIZE SUB DUP2 ADD SWAP1 PUSH2 0x2BA SWAP2 SWAP1 PUSH2 0x2846 JUMP JUMPDEST PUSH2 0xA97 JUMP JUMPDEST STOP JUMPDEST PUSH2 0x2DB PUSH1 0x4 DUP1 CALLDATASIZE SUB DUP2 ADD SWAP1 PUSH2 0x2D6 SWAP2 SWAP1 PUSH2 0x24F4 JUMP JUMPDEST PUSH2 0xBF0 JUMP JUMPDEST PUSH1 0x40 MLOAD PUSH2 0x2E8 SWAP2 SWAP1 PUSH2 0x2DB3 JUMP JUMPDEST PUSH1 0x40 MLOAD DUP1 SWAP2 SUB SWAP1 RETURN JUMPDEST PUSH2 0x30B PUSH1 0x4 DUP1 CALLDATASIZE SUB DUP2 ADD SWAP1 PUSH2 0x306 SWAP2 SWAP1 PUSH2 0x24C7 JUMP JUMPDEST PUSH2 0xC84 JUMP JUMPDEST STOP JUMPDEST PUSH2 0x327 PUSH1 0x4 DUP1 CALLDATASIZE SUB DUP2 ADD SWAP1 PUSH2 0x322 SWAP2 SWAP1 PUSH2 0x2603 JUMP JUMPDEST PUSH2 0xCD0 JUMP JUMPDEST STOP JUMPDEST PUSH2 0x343 PUSH1 0x4 DUP1 CALLDATASIZE SUB DUP2 ADD SWAP1 PUSH2 0x33E SWAP2 SWAP1 PUSH2 0x24C7 JUMP JUMPDEST PUSH2 0xD71 JUMP JUMPDEST STOP JUMPDEST PUSH1 0x0 DUP1 PUSH20 0xFFFFFFFFFFFFFFFFFFFFFFFFFFFFFFFFFFFFFFFF AND DUP4 PUSH20 0xFFFFFFFFFFFFFFFFFFFFFFFFFFFFFFFFFFFFFFFF AND EQ ISZERO PUSH2 0x3B6 JUMPI PUSH1 0x40 MLOAD PUSH32 0x8C379A000000000000000000000000000000000000000000000000000000000 DUP2 MSTORE PUSH1 0x4 ADD PUSH2 0x3AD SWAP1 PUSH2 0x2EB0 JUMP JUMPDEST PUSH1 0x40 MLOAD DUP1 SWAP2 SUB SWAP1 REVERT JUMPDEST PUSH1 0x0 DUP1 DUP4 DUP2 MSTORE PUSH1 0x20 ADD SWAP1 DUP2 MSTORE PUSH1 0x20 ADD PUSH1 0x0 KECCAK256 PUSH1 0x0 DUP5 PUSH20 0xFFFFFFFFFFFFFFFFFFFFFFFFFFFFFFFFFFFFFFFF AND PUSH20 0xFFFFFFFFFFFFFFFFFFFFFFFFFFFFFFFFFFFFFFFF AND DUP2 MSTORE PUSH1 0x20 ADD SWAP1 DUP2 MSTORE PUSH1 0x20 ADD PUSH1 0x0 KECCAK256 SLOAD SWAP1 POP SWAP3 SWAP2 POP POP JUMP JUMPDEST PUSH1 0x0 PUSH32 0xD9B67A2600000000000000000000000000000000000000000000000000000000 PUSH28 0xFFFFFFFFFFFFFFFFFFFFFFFFFFFFFFFFFFFFFFFFFFFFFFFFFFFFFFFF NOT AND DUP3 PUSH28 0xFFFFFFFFFFFFFFFFFFFFFFFFFFFFFFFFFFFFFFFFFFFFFFFFFFFFFFFF NOT AND EQ DUP1 PUSH2 0x4D9 JUMPI POP PUSH32 0xE89341C00000000000000000000000000000000000000000000000000000000 PUSH28 0xFFFFFFFFFFFFFFFFFFFFFFFFFFFFFFFFFFFFFFFFFFFFFFFFFFFFFFFF NOT AND DUP3 PUSH28 0xFFFFFFFFFFFFFFFFFFFFFFFFFFFFFFFFFFFFFFFFFFFFFFFFFFFFFFFF NOT AND EQ JUMPDEST DUP1 PUSH2 0x4E9 JUMPI POP PUSH2 0x4E8 DUP3 PUSH2 0xDF5 JUMP JUMPDEST JUMPDEST SWAP1 POP SWAP2 SWAP1 POP JUMP JUMPDEST PUSH1 0x4 DUP1 SLOAD PUSH2 0x4FD SWAP1 PUSH2 0x34FF JUMP JUMPDEST DUP1 PUSH1 0x1F ADD PUSH1 0x20 DUP1 SWAP2 DIV MUL PUSH1 0x20 ADD PUSH1 0x40 MLOAD SWAP1 DUP2 ADD PUSH1 0x40 MSTORE DUP1 SWAP3 SWAP2 SWAP1 DUP2 DUP2 MSTORE PUSH1 0x20 ADD DUP3 DUP1 SLOAD PUSH2 0x529 SWAP1 PUSH2 0x34FF JUMP JUMPDEST DUP1 ISZERO PUSH2 0x576 JUMPI DUP1 PUSH1 0x1F LT PUSH2 0x54B JUMPI PUSH2 0x100 DUP1 DUP4 SLOAD DIV MUL DUP4 MSTORE SWAP2 PUSH1 0x20 ADD SWAP2 PUSH2 0x576 JUMP JUMPDEST DUP3 ADD SWAP2 SWAP1 PUSH1 0x0 MSTORE PUSH1 0x20 PUSH1 0x0 KECCAK256 SWAP1 JUMPDEST DUP2 SLOAD DUP2 MSTORE SWAP1 PUSH1 0x1 ADD SWAP1 PUSH1 0x20 ADD DUP1 DUP4 GT PUSH2 0x559 JUMPI DUP3 SWAP1 SUB PUSH1 0x1F AND DUP3 ADD SWAP2 JUMPDEST POP POP POP POP POP DUP2 JUMP JUMPDEST PUSH1 0x60 PUSH1 0x2 DUP1 SLOAD PUSH2 0x58D SWAP1 PUSH2 0x34FF JUMP JUMPDEST DUP1 PUSH1 0x1F ADD PUSH1 0x20 DUP1 SWAP2 DIV MUL PUSH1 0x20 ADD PUSH1 0x40 MLOAD SWAP1 DUP2 ADD PUSH1 0x40 MSTORE DUP1 SWAP3 SWAP2 SWAP1 DUP2 DUP2 MSTORE PUSH1 0x20 ADD DUP3 DUP1 SLOAD PUSH2 0x5B9 SWAP1 PUSH2 0x34FF JUMP JUMPDEST DUP1 ISZERO PUSH2 0x606 JUMPI DUP1 PUSH1 0x1F LT PUSH2 0x5DB JUMPI PUSH2 0x100 DUP1 DUP4 SLOAD DIV MUL DUP4 MSTORE SWAP2 PUSH1 0x20 ADD SWAP2 PUSH2 0x606 JUMP JUMPDEST DUP3 ADD SWAP2 SWAP1 PUSH1 0x0 MSTORE PUSH1 0x20 PUSH1 0x0 KECCAK256 SWAP1 JUMPDEST DUP2 SLOAD DUP2 MSTORE SWAP1 PUSH1 0x1 ADD SWAP1 PUSH1 0x20 ADD DUP1 DUP4 GT PUSH2 0x5E9 JUMPI DUP3 SWAP1 SUB PUSH1 0x1F AND DUP3 ADD SWAP2 JUMPDEST POP POP POP POP POP SWAP1 POP SWAP2 SWAP1 POP JUMP JUMPDEST PUSH2 0x61A PUSH2 0xE5F JUMP JUMPDEST PUSH20 0xFFFFFFFFFFFFFFFFFFFFFFFFFFFFFFFFFFFFFFFF AND DUP6 PUSH20 0xFFFFFFFFFFFFFFFFFFFFFFFFFFFFFFFFFFFFFFFF AND EQ DUP1 PUSH2 0x660 JUMPI POP PUSH2 0x65F DUP6 PUSH2 0x65A PUSH2 0xE5F JUMP JUMPDEST PUSH2 0xBF0 JUMP JUMPDEST JUMPDEST PUSH2 0x69F JUMPI PUSH1 0x40 MLOAD PUSH32 0x8C379A000000000000000000000000000000000000000000000000000000000 DUP2 MSTORE PUSH1 0x4 ADD PUSH2 0x696 SWAP1 PUSH2 0x2E10 JUMP JUMPDEST PUSH1 0x40 MLOAD DUP1 SWAP2 SUB SWAP1 REVERT JUMPDEST PUSH2 0x6AC DUP6 DUP6 DUP6 DUP6 DUP6 PUSH2 0xE67 JUMP JUMPDEST POP POP POP POP POP JUMP JUMPDEST PUSH1 0x0 PUSH2 0x6D6 CALLER PUSH20 0xFFFFFFFFFFFFFFFFFFFFFFFFFFFFFFFFFFFFFFFF AND PUSH1 0x14 PUSH2 0x1189 JUMP JUMPDEST SWAP1 POP PUSH1 0x0 PUSH2 0x6E3 DUP3 PUSH2 0x13C5 JUMP JUMPDEST SWAP1 POP PUSH1 0x7 PUSH1 0x0 DUP3 DUP2 MSTORE PUSH1 0x20 ADD SWAP1 DUP2 MSTORE PUSH1 0x20 ADD PUSH1 0x0 KECCAK256 PUSH1 0x0 SWAP1 SLOAD SWAP1 PUSH2 0x100 EXP SWAP1 DIV PUSH1 0xFF AND ISZERO PUSH2 0x710 JUMPI PUSH1 0x0 DUP1 REVERT JUMPDEST PUSH2 0x76A CALLER DUP3 PUSH1 0x1 PUSH1 0x0 PUSH8 0xFFFFFFFFFFFFFFFF DUP2 GT ISZERO PUSH2 0x732 JUMPI PUSH2 0x731 PUSH2 0x3698 JUMP JUMPDEST JUMPDEST PUSH1 0x40 MLOAD SWAP1 DUP1 DUP3 MSTORE DUP1 PUSH1 0x1F ADD PUSH1 0x1F NOT AND PUSH1 0x20 ADD DUP3 ADD PUSH1 0x40 MSTORE DUP1 ISZERO PUSH2 0x764 JUMPI DUP2 PUSH1 0x20 ADD PUSH1 0x1 DUP3 MUL DUP1 CALLDATASIZE DUP4 CALLDATACOPY DUP1 DUP3 ADD SWAP2 POP POP SWAP1 POP JUMPDEST POP PUSH2 0x1421 JUMP JUMPDEST PUSH1 0x6 PUSH1 0x0 SWAP1 SLOAD SWAP1 PUSH2 0x100 EXP SWAP1 DIV PUSH20 0xFFFFFFFFFFFFFFFFFFFFFFFFFFFFFFFFFFFFFFFF AND PUSH20 0xFFFFFFFFFFFFFFFFFFFFFFFFFFFFFFFFFFFFFFFF AND PUSH4 0x88D4F21 CALLER DUP4 PUSH1 0x40 MLOAD DUP4 PUSH4 0xFFFFFFFF AND PUSH1 0xE0 SHL DUP2 MSTORE PUSH1 0x4 ADD PUSH2 0x7C7 SWAP3 SWAP2 SWAP1 PUSH2 0x2D31 JUMP JUMPDEST PUSH1 0x0 PUSH1 0x40 MLOAD DUP1 DUP4 SUB DUP2 PUSH1 0x0 DUP8 DUP1 EXTCODESIZE ISZERO DUP1 ISZERO PUSH2 0x7E1 JUMPI PUSH1 0x0 DUP1 REVERT JUMPDEST POP GAS CALL ISZERO DUP1 ISZERO PUSH2 0x7F5 JUMPI RETURNDATASIZE PUSH1 0x0 DUP1 RETURNDATACOPY RETURNDATASIZE PUSH1 0x0 REVERT JUMPDEST POP POP POP POP PUSH1 0x1 PUSH1 0x7 PUSH1 0x0 DUP4 DUP2 MSTORE PUSH1 0x20 ADD SWAP1 DUP2 MSTORE PUSH1 0x20 ADD PUSH1 0x0 KECCAK256 PUSH1 0x0 PUSH2 0x100 EXP DUP2 SLOAD DUP2 PUSH1 0xFF MUL NOT AND SWAP1 DUP4 ISZERO ISZERO MUL OR SWAP1 SSTORE POP CALLER PUSH20 0xFFFFFFFFFFFFFFFFFFFFFFFFFFFFFFFFFFFFFFFF AND PUSH32 0xB6FC9F9CAB5288DBB7084935E07C911187B2305868B81A4327A1612B80168F25 DUP3 PUSH1 0x1 TIMESTAMP PUSH1 0x40 MLOAD PUSH2 0x870 SWAP4 SWAP3 SWAP2 SWAP1 PUSH2 0x302B JUMP JUMPDEST PUSH1 0x40 MLOAD DUP1 SWAP2 SUB SWAP1 LOG2 POP POP JUMP JUMPDEST PUSH1 0x60 DUP2 MLOAD DUP4 MLOAD EQ PUSH2 0x8C2 JUMPI PUSH1 0x40 MLOAD PUSH32 0x8C379A000000000000000000000000000000000000000000000000000000000 DUP2 MSTORE PUSH1 0x4 ADD PUSH2 0x8B9 SWAP1 PUSH2 0x2FB0 JUMP JUMPDEST PUSH1 0x40 MLOAD DUP1 SWAP2 SUB SWAP1 REVERT JUMPDEST PUSH1 0x0 DUP4 MLOAD PUSH8 0xFFFFFFFFFFFFFFFF DUP2 GT ISZERO PUSH2 0x8DF JUMPI PUSH2 0x8DE PUSH2 0x3698 JUMP JUMPDEST JUMPDEST PUSH1 0x40 MLOAD SWAP1 DUP1 DUP3 MSTORE DUP1 PUSH1 0x20 MUL PUSH1 0x20 ADD DUP3 ADD PUSH1 0x40 MSTORE DUP1 ISZERO PUSH2 0x90D JUMPI DUP2 PUSH1 0x20 ADD PUSH1 0x20 DUP3 MUL DUP1 CALLDATASIZE DUP4 CALLDATACOPY DUP1 DUP3 ADD SWAP2 POP POP SWAP1 POP JUMPDEST POP SWAP1 POP PUSH1 0x0 JUMPDEST DUP5 MLOAD DUP2 LT ISZERO PUSH2 0x98A JUMPI PUSH2 0x95A DUP6 DUP3 DUP2 MLOAD DUP2 LT PUSH2 0x932 JUMPI PUSH2 0x931 PUSH2 0x3669 JUMP JUMPDEST JUMPDEST PUSH1 0x20 MUL PUSH1 0x20 ADD ADD MLOAD DUP6 DUP4 DUP2 MLOAD DUP2 LT PUSH2 0x94D JUMPI PUSH2 0x94C PUSH2 0x3669 JUMP JUMPDEST JUMPDEST PUSH1 0x20 MUL PUSH1 0x20 ADD ADD MLOAD PUSH2 0x345 JUMP JUMPDEST DUP3 DUP3 DUP2 MLOAD DUP2 LT PUSH2 0x96D JUMPI PUSH2 0x96C PUSH2 0x3669 JUMP JUMPDEST JUMPDEST PUSH1 0x20 MUL PUSH1 0x20 ADD ADD DUP2 DUP2 MSTORE POP POP DUP1 PUSH2 0x983 SWAP1 PUSH2 0x3562 JUMP JUMPDEST SWAP1 POP PUSH2 0x913 JUMP JUMPDEST POP DUP1 SWAP2 POP POP SWAP3 SWAP2 POP POP JUMP JUMPDEST PUSH1 0x7 PUSH1 0x20 MSTORE DUP1 PUSH1 0x0 MSTORE PUSH1 0x40 PUSH1 0x0 KECCAK256 PUSH1 0x0 SWAP2 POP SLOAD SWAP1 PUSH2 0x100 EXP SWAP1 DIV PUSH1 0xFF AND DUP2 JUMP JUMPDEST PUSH2 0x9BD PUSH2 0x15D2 JUMP JUMPDEST PUSH2 0x9C7 PUSH1 0x0 PUSH2 0x1650 JUMP JUMPDEST JUMP JUMPDEST PUSH1 0x0 PUSH1 0x3 PUSH1 0x0 SWAP1 SLOAD SWAP1 PUSH2 0x100 EXP SWAP1 DIV PUSH20 0xFFFFFFFFFFFFFFFFFFFFFFFFFFFFFFFFFFFFFFFF AND SWAP1 POP SWAP1 JUMP JUMPDEST PUSH1 0x5 DUP1 SLOAD PUSH2 0xA00 SWAP1 PUSH2 0x34FF JUMP JUMPDEST DUP1 PUSH1 0x1F ADD PUSH1 0x20 DUP1 SWAP2 DIV MUL PUSH1 0x20 ADD PUSH1 0x40 MLOAD SWAP1 DUP2 ADD PUSH1 0x40 MSTORE DUP1 SWAP3 SWAP2 SWAP1 DUP2 DUP2 MSTORE PUSH1 0x20 ADD DUP3 DUP1 SLOAD PUSH2 0xA2C SWAP1 PUSH2 0x34FF JUMP JUMPDEST DUP1 ISZERO PUSH2 0xA79 JUMPI DUP1 PUSH1 0x1F LT PUSH2 0xA4E JUMPI PUSH2 0x100 DUP1 DUP4 SLOAD DIV MUL DUP4 MSTORE SWAP2 PUSH1 0x20 ADD SWAP2 PUSH2 0xA79 JUMP JUMPDEST DUP3 ADD SWAP2 SWAP1 PUSH1 0x0 MSTORE PUSH1 0x20 PUSH1 0x0 KECCAK256 SWAP1 JUMPDEST DUP2 SLOAD DUP2 MSTORE SWAP1 PUSH1 0x1 ADD SWAP1 PUSH1 0x20 ADD DUP1 DUP4 GT PUSH2 0xA5C JUMPI DUP3 SWAP1 SUB PUSH1 0x1F AND DUP3 ADD SWAP2 JUMPDEST POP POP POP POP POP DUP2 JUMP JUMPDEST PUSH2 0xA93 PUSH2 0xA8C PUSH2 0xE5F JUMP JUMPDEST DUP4 DUP4 PUSH2 0x1716 JUMP JUMPDEST POP POP JUMP JUMPDEST PUSH1 0x0 ADDRESS PUSH20 0xFFFFFFFFFFFFFFFFFFFFFFFFFFFFFFFFFFFFFFFF AND PUSH3 0xFDD58E CALLER DUP6 PUSH1 0x40 MLOAD DUP4 PUSH4 0xFFFFFFFF AND PUSH1 0xE0 SHL DUP2 MSTORE PUSH1 0x4 ADD PUSH2 0xAD3 SWAP3 SWAP2 SWAP1 PUSH2 0x2D31 JUMP JUMPDEST PUSH1 0x20 PUSH1 0x40 MLOAD DUP1 DUP4 SUB DUP2 DUP7 DUP1 EXTCODESIZE ISZERO DUP1 ISZERO PUSH2 0xAEB JUMPI PUSH1 0x0 DUP1 REVERT JUMPDEST POP GAS STATICCALL ISZERO DUP1 ISZERO PUSH2 0xAFF JUMPI RETURNDATASIZE PUSH1 0x0 DUP1 RETURNDATACOPY RETURNDATASIZE PUSH1 0x0 REVERT JUMPDEST POP POP POP POP PUSH1 0x40 MLOAD RETURNDATASIZE PUSH1 0x1F NOT PUSH1 0x1F DUP3 ADD AND DUP3 ADD DUP1 PUSH1 0x40 MSTORE POP DUP2 ADD SWAP1 PUSH2 0xB23 SWAP2 SWAP1 PUSH2 0x2819 JUMP JUMPDEST GT PUSH2 0xB63 JUMPI PUSH1 0x40 MLOAD PUSH32 0x8C379A000000000000000000000000000000000000000000000000000000000 DUP2 MSTORE PUSH1 0x4 ADD PUSH2 0xB5A SWAP1 PUSH2 0x2F50 JUMP JUMPDEST PUSH1 0x40 MLOAD DUP1 SWAP2 SUB SWAP1 REVERT JUMPDEST PUSH2 0xB6E CALLER DUP4 DUP4 PUSH2 0x1883 JUMP JUMPDEST PUSH1 0x0 PUSH1 0x7 PUSH1 0x0 DUP5 DUP2 MSTORE PUSH1 0x20 ADD SWAP1 DUP2 MSTORE PUSH1 0x20 ADD PUSH1 0x0 KECCAK256 PUSH1 0x0 PUSH2 0x100 EXP DUP2 SLOAD DUP2 PUSH1 0xFF MUL NOT AND SWAP1 DUP4 ISZERO ISZERO MUL OR SWAP1 SSTORE POP CALLER PUSH20 0xFFFFFFFFFFFFFFFFFFFFFFFFFFFFFFFFFFFFFFFF AND PUSH32 0x3658222190FB1159111700DBF91874A3D7BBB0D894CEB693C867267DED91D9B6 DUP4 DUP4 TIMESTAMP PUSH1 0x40 MLOAD PUSH2 0xBE4 SWAP4 SWAP3 SWAP2 SWAP1 PUSH2 0x308B JUMP JUMPDEST PUSH1 0x40 MLOAD DUP1 SWAP2 SUB SWAP1 LOG2 POP POP JUMP JUMPDEST PUSH1 0x0 PUSH1 0x1 PUSH1 0x0 DUP5 PUSH20 0xFFFFFFFFFFFFFFFFFFFFFFFFFFFFFFFFFFFFFFFF AND PUSH20 0xFFFFFFFFFFFFFFFFFFFFFFFFFFFFFFFFFFFFFFFF AND DUP2 MSTORE PUSH1 0x20 ADD SWAP1 DUP2 MSTORE PUSH1 0x20 ADD PUSH1 0x0 KECCAK256 PUSH1 0x0 DUP4 PUSH20 0xFFFFFFFFFFFFFFFFFFFFFFFFFFFFFFFFFFFFFFFF AND PUSH20 0xFFFFFFFFFFFFFFFFFFFFFFFFFFFFFFFFFFFFFFFF AND DUP2 MSTORE PUSH1 0x20 ADD SWAP1 DUP2 MSTORE PUSH1 0x20 ADD PUSH1 0x0 KECCAK256 PUSH1 0x0 SWAP1 SLOAD SWAP1 PUSH2 0x100 EXP SWAP1 DIV PUSH1 0xFF AND SWAP1 POP SWAP3 SWAP2 POP POP JUMP JUMPDEST PUSH2 0xC8C PUSH2 0x15D2 JUMP JUMPDEST DUP1 PUSH1 0x6 PUSH1 0x0 PUSH2 0x100 EXP DUP2 SLOAD DUP2 PUSH20 0xFFFFFFFFFFFFFFFFFFFFFFFFFFFFFFFFFFFFFFFF MUL NOT AND SWAP1 DUP4 PUSH20 0xFFFFFFFFFFFFFFFFFFFFFFFFFFFFFFFFFFFFFFFF AND MUL OR SWAP1 SSTORE POP POP JUMP JUMPDEST PUSH2 0xCD8 PUSH2 0xE5F JUMP JUMPDEST PUSH20 0xFFFFFFFFFFFFFFFFFFFFFFFFFFFFFFFFFFFFFFFF AND DUP6 PUSH20 0xFFFFFFFFFFFFFFFFFFFFFFFFFFFFFFFFFFFFFFFF AND EQ DUP1 PUSH2 0xD1E JUMPI POP PUSH2 0xD1D DUP6 PUSH2 0xD18 PUSH2 0xE5F JUMP JUMPDEST PUSH2 0xBF0 JUMP JUMPDEST JUMPDEST PUSH2 0xD5D JUMPI PUSH1 0x40 MLOAD PUSH32 0x8C379A000000000000000000000000000000000000000000000000000000000 DUP2 MSTORE PUSH1 0x4 ADD PUSH2 0xD54 SWAP1 PUSH2 0x2E10 JUMP JUMPDEST PUSH1 0x40 MLOAD DUP1 SWAP2 SUB SWAP1 REVERT JUMPDEST PUSH2 0xD6A DUP6 DUP6 DUP6 DUP6 DUP6 PUSH2 0x1ACA JUMP JUMPDEST POP POP POP POP POP JUMP JUMPDEST PUSH2 0xD79 PUSH2 0x15D2 JUMP JUMPDEST PUSH1 0x0 PUSH20 0xFFFFFFFFFFFFFFFFFFFFFFFFFFFFFFFFFFFFFFFF AND DUP2 PUSH20 0xFFFFFFFFFFFFFFFFFFFFFFFFFFFFFFFFFFFFFFFF AND EQ ISZERO PUSH2 0xDE9 JUMPI PUSH1 0x40 MLOAD PUSH32 0x8C379A000000000000000000000000000000000000000000000000000000000 DUP2 MSTORE PUSH1 0x4 ADD PUSH2 0xDE0 SWAP1 PUSH2 0x2E70 JUMP JUMPDEST PUSH1 0x40 MLOAD DUP1 SWAP2 SUB SWAP1 REVERT JUMPDEST PUSH2 0xDF2 DUP2 PUSH2 0x1650 JUMP JUMPDEST POP JUMP JUMPDEST PUSH1 0x0 PUSH32 0x1FFC9A700000000000000000000000000000000000000000000000000000000 PUSH28 0xFFFFFFFFFFFFFFFFFFFFFFFFFFFFFFFFFFFFFFFFFFFFFFFFFFFFFFFF NOT AND DUP3 PUSH28 0xFFFFFFFFFFFFFFFFFFFFFFFFFFFFFFFFFFFFFFFFFFFFFFFFFFFFFFFF NOT AND EQ SWAP1 POP SWAP2 SWAP1 POP JUMP JUMPDEST PUSH1 0x0 CALLER SWAP1 POP SWAP1 JUMP JUMPDEST DUP2 MLOAD DUP4 MLOAD EQ PUSH2 0xEAB JUMPI PUSH1 0x40 MLOAD PUSH32 0x8C379A000000000000000000000000000000000000000000000000000000000 DUP2 MSTORE PUSH1 0x4 ADD PUSH2 0xEA2 SWAP1 PUSH2 0x2FD0 JUMP JUMPDEST PUSH1 0x40 MLOAD DUP1 SWAP2 SUB SWAP1 REVERT JUMPDEST PUSH1 0x0 PUSH20 0xFFFFFFFFFFFFFFFFFFFFFFFFFFFFFFFFFFFFFFFF AND DUP5 PUSH20 0xFFFFFFFFFFFFFFFFFFFFFFFFFFFFFFFFFFFFFFFF AND EQ ISZERO PUSH2 0xF1B JUMPI PUSH1 0x40 MLOAD PUSH32 0x8C379A000000000000000000000000000000000000000000000000000000000 DUP2 MSTORE PUSH1 0x4 ADD PUSH2 0xF12 SWAP1 PUSH2 0x2ED0 JUMP JUMPDEST PUSH1 0x40 MLOAD DUP1 SWAP2 SUB SWAP1 REVERT JUMPDEST PUSH1 0x0 PUSH2 0xF25 PUSH2 0xE5F JUMP JUMPDEST SWAP1 POP PUSH2 0xF35 DUP2 DUP8 DUP8 DUP8 DUP8 DUP8 PUSH2 0x1D66 JUMP JUMPDEST PUSH1 0x0 JUMPDEST DUP5 MLOAD DUP2 LT ISZERO PUSH2 0x10E6 JUMPI PUSH1 0x0 DUP6 DUP3 DUP2 MLOAD DUP2 LT PUSH2 0xF56 JUMPI PUSH2 0xF55 PUSH2 0x3669 JUMP JUMPDEST JUMPDEST PUSH1 0x20 MUL PUSH1 0x20 ADD ADD MLOAD SWAP1 POP PUSH1 0x0 DUP6 DUP4 DUP2 MLOAD DUP2 LT PUSH2 0xF75 JUMPI PUSH2 0xF74 PUSH2 0x3669 JUMP JUMPDEST JUMPDEST PUSH1 0x20 MUL PUSH1 0x20 ADD ADD MLOAD SWAP1 POP PUSH1 0x0 DUP1 PUSH1 0x0 DUP5 DUP2 MSTORE PUSH1 0x20 ADD SWAP1 DUP2 MSTORE PUSH1 0x20 ADD PUSH1 0x0 KECCAK256 PUSH1 0x0 DUP12 PUSH20 0xFFFFFFFFFFFFFFFFFFFFFFFFFFFFFFFFFFFFFFFF AND PUSH20 0xFFFFFFFFFFFFFFFFFFFFFFFFFFFFFFFFFFFFFFFF AND DUP2 MSTORE PUSH1 0x20 ADD SWAP1 DUP2 MSTORE PUSH1 0x20 ADD PUSH1 0x0 KECCAK256 SLOAD SWAP1 POP DUP2 DUP2 LT ISZERO PUSH2 0x1016 JUMPI PUSH1 0x40 MLOAD PUSH32 0x8C379A000000000000000000000000000000000000000000000000000000000 DUP2 MSTORE PUSH1 0x4 ADD PUSH2 0x100D SWAP1 PUSH2 0x2F10 JUMP JUMPDEST PUSH1 0x40 MLOAD DUP1 SWAP2 SUB SWAP1 REVERT JUMPDEST DUP2 DUP2 SUB PUSH1 0x0 DUP1 DUP6 DUP2 MSTORE PUSH1 0x20 ADD SWAP1 DUP2 MSTORE PUSH1 0x20 ADD PUSH1 0x0 KECCAK256 PUSH1 0x0 DUP13 PUSH20 0xFFFFFFFFFFFFFFFFFFFFFFFFFFFFFFFFFFFFFFFF AND PUSH20 0xFFFFFFFFFFFFFFFFFFFFFFFFFFFFFFFFFFFFFFFF AND DUP2 MSTORE PUSH1 0x20 ADD SWAP1 DUP2 MSTORE PUSH1 0x20 ADD PUSH1 0x0 KECCAK256 DUP2 SWAP1 SSTORE POP DUP2 PUSH1 0x0 DUP1 DUP6 DUP2 MSTORE PUSH1 0x20 ADD SWAP1 DUP2 MSTORE PUSH1 0x20 ADD PUSH1 0x0 KECCAK256 PUSH1 0x0 DUP12 PUSH20 0xFFFFFFFFFFFFFFFFFFFFFFFFFFFFFFFFFFFFFFFF AND PUSH20 0xFFFFFFFFFFFFFFFFFFFFFFFFFFFFFFFFFFFFFFFF AND DUP2 MSTORE PUSH1 0x20 ADD SWAP1 DUP2 MSTORE PUSH1 0x20 ADD PUSH1 0x0 KECCAK256 PUSH1 0x0 DUP3 DUP3 SLOAD PUSH2 0x10CB SWAP2 SWAP1 PUSH2 0x31EC JUMP JUMPDEST SWAP3 POP POP DUP2 SWAP1 SSTORE POP POP POP POP DUP1 PUSH2 0x10DF SWAP1 PUSH2 0x3562 JUMP JUMPDEST SWAP1 POP PUSH2 0xF38 JUMP JUMPDEST POP DUP5 PUSH20 0xFFFFFFFFFFFFFFFFFFFFFFFFFFFFFFFFFFFFFFFF AND DUP7 PUSH20 0xFFFFFFFFFFFFFFFFFFFFFFFFFFFFFFFFFFFFFFFF AND DUP3 PUSH20 0xFFFFFFFFFFFFFFFFFFFFFFFFFFFFFFFFFFFFFFFF AND PUSH32 0x4A39DC06D4C0DBC64B70AF90FD698A233A518AA5D07E595D983B8C0526C8F7FB DUP8 DUP8 PUSH1 0x40 MLOAD PUSH2 0x115D SWAP3 SWAP2 SWAP1 PUSH2 0x2D7C JUMP JUMPDEST PUSH1 0x40 MLOAD DUP1 SWAP2 SUB SWAP1 LOG4 PUSH2 0x1173 DUP2 DUP8 DUP8 DUP8 DUP8 DUP8 PUSH2 0x1E22 JUMP JUMPDEST PUSH2 0x1181 DUP2 DUP8 DUP8 DUP8 DUP8 DUP8 PUSH2 0x1E2A JUMP JUMPDEST POP POP POP POP POP POP JUMP JUMPDEST PUSH1 0x60 PUSH1 0x0 PUSH1 0x2 DUP4 PUSH1 0x2 PUSH2 0x119C SWAP2 SWAP1 PUSH2 0x33B3 JUMP JUMPDEST PUSH2 0x11A6 SWAP2 SWAP1 PUSH2 0x31EC JUMP JUMPDEST PUSH8 0xFFFFFFFFFFFFFFFF DUP2 GT ISZERO PUSH2 0x11BF JUMPI PUSH2 0x11BE PUSH2 0x3698 JUMP JUMPDEST JUMPDEST PUSH1 0x40 MLOAD SWAP1 DUP1 DUP3 MSTORE DUP1 PUSH1 0x1F ADD PUSH1 0x1F NOT AND PUSH1 0x20 ADD DUP3 ADD PUSH1 0x40 MSTORE DUP1 ISZERO PUSH2 0x11F1 JUMPI DUP2 PUSH1 0x20 ADD PUSH1 0x1 DUP3 MUL DUP1 CALLDATASIZE DUP4 CALLDATACOPY DUP1 DUP3 ADD SWAP2 POP POP SWAP1 POP JUMPDEST POP SWAP1 POP PUSH32 0x3000000000000000000000000000000000000000000000000000000000000000 DUP2 PUSH1 0x0 DUP2 MLOAD DUP2 LT PUSH2 0x1229 JUMPI PUSH2 0x1228 PUSH2 0x3669 JUMP JUMPDEST JUMPDEST PUSH1 0x20 ADD ADD SWAP1 PUSH31 0xFFFFFFFFFFFFFFFFFFFFFFFFFFFFFFFFFFFFFFFFFFFFFFFFFFFFFFFFFFFFFF NOT AND SWAP1 DUP2 PUSH1 0x0 BYTE SWAP1 MSTORE8 POP PUSH32 0x7800000000000000000000000000000000000000000000000000000000000000 DUP2 PUSH1 0x1 DUP2 MLOAD DUP2 LT PUSH2 0x128D JUMPI PUSH2 0x128C PUSH2 0x3669 JUMP JUMPDEST JUMPDEST PUSH1 0x20 ADD ADD SWAP1 PUSH31 0xFFFFFFFFFFFFFFFFFFFFFFFFFFFFFFFFFFFFFFFFFFFFFFFFFFFFFFFFFFFFFF NOT AND SWAP1 DUP2 PUSH1 0x0 BYTE SWAP1 MSTORE8 POP PUSH1 0x0 PUSH1 0x1 DUP5 PUSH1 0x2 PUSH2 0x12CD SWAP2 SWAP1 PUSH2 0x33B3 JUMP JUMPDEST PUSH2 0x12D7 SWAP2 SWAP1 PUSH2 0x31EC JUMP JUMPDEST SWAP1 POP JUMPDEST PUSH1 0x1 DUP2 GT ISZERO PUSH2 0x1377 JUMPI PUSH32 0x3031323334353637383961626364656600000000000000000000000000000000 PUSH1 0xF DUP7 AND PUSH1 0x10 DUP2 LT PUSH2 0x1319 JUMPI PUSH2 0x1318 PUSH2 0x3669 JUMP JUMPDEST JUMPDEST BYTE PUSH1 0xF8 SHL DUP3 DUP3 DUP2 MLOAD DUP2 LT PUSH2 0x1330 JUMPI PUSH2 0x132F PUSH2 0x3669 JUMP JUMPDEST JUMPDEST PUSH1 0x20 ADD ADD SWAP1 PUSH31 0xFFFFFFFFFFFFFFFFFFFFFFFFFFFFFFFFFFFFFFFFFFFFFFFFFFFFFFFFFFFFFF NOT AND SWAP1 DUP2 PUSH1 0x0 BYTE SWAP1 MSTORE8 POP PUSH1 0x4 DUP6 SWAP1 SHR SWAP5 POP DUP1 PUSH2 0x1370 SWAP1 PUSH2 0x34D5 JUMP JUMPDEST SWAP1 POP PUSH2 0x12DA JUMP JUMPDEST POP PUSH1 0x0 DUP5 EQ PUSH2 0x13BB JUMPI PUSH1 0x40 MLOAD PUSH32 0x8C379A000000000000000000000000000000000000000000000000000000000 DUP2 MSTORE PUSH1 0x4 ADD PUSH2 0x13B2 SWAP1 PUSH2 0x2E30 JUMP JUMPDEST PUSH1 0x40 MLOAD DUP1 SWAP2 SUB SWAP1 REVERT JUMPDEST DUP1 SWAP2 POP POP SWAP3 SWAP2 POP POP JUMP JUMPDEST PUSH1 0x0 DUP1 PUSH1 0x8 SWAP1 POP PUSH1 0x0 DUP2 PUSH1 0xA PUSH2 0x13DB SWAP2 SWAP1 PUSH2 0x3295 JUMP JUMPDEST SWAP1 POP PUSH1 0x0 DUP5 PUSH1 0x40 MLOAD PUSH1 0x20 ADD PUSH2 0x13F0 SWAP2 SWAP1 PUSH2 0x2C3D JUMP JUMPDEST PUSH1 0x40 MLOAD PUSH1 0x20 DUP2 DUP4 SUB SUB DUP2 MSTORE SWAP1 PUSH1 0x40 MSTORE DUP1 MLOAD SWAP1 PUSH1 0x20 ADD KECCAK256 PUSH1 0x0 SHR SWAP1 POP DUP2 DUP2 PUSH2 0x1417 SWAP2 SWAP1 PUSH2 0x35AB JUMP JUMPDEST SWAP4 POP POP POP POP SWAP2 SWAP1 POP JUMP JUMPDEST PUSH1 0x0 PUSH20 0xFFFFFFFFFFFFFFFFFFFFFFFFFFFFFFFFFFFFFFFF AND DUP5 PUSH20 0xFFFFFFFFFFFFFFFFFFFFFFFFFFFFFFFFFFFFFFFF AND EQ ISZERO PUSH2 0x1491 JUMPI PUSH1 0x40 MLOAD PUSH32 0x8C379A000000000000000000000000000000000000000000000000000000000 DUP2 MSTORE PUSH1 0x4 ADD PUSH2 0x1488 SWAP1 PUSH2 0x2FF0 JUMP JUMPDEST PUSH1 0x40 MLOAD DUP1 SWAP2 SUB SWAP1 REVERT JUMPDEST PUSH1 0x0 PUSH2 0x149B PUSH2 0xE5F JUMP JUMPDEST SWAP1 POP PUSH1 0x0 PUSH2 0x14A8 DUP6 PUSH2 0x2011 JUMP JUMPDEST SWAP1 POP PUSH1 0x0 PUSH2 0x14B5 DUP6 PUSH2 0x2011 JUMP JUMPDEST SWAP1 POP PUSH2 0x14C6 DUP4 PUSH1 0x0 DUP10 DUP6 DUP6 DUP10 PUSH2 0x1D66 JUMP JUMPDEST DUP5 PUSH1 0x0 DUP1 DUP9 DUP2 MSTORE PUSH1 0x20 ADD SWAP1 DUP2 MSTORE PUSH1 0x20 ADD PUSH1 0x0 KECCAK256 PUSH1 0x0 DUP10 PUSH20 0xFFFFFFFFFFFFFFFFFFFFFFFFFFFFFFFFFFFFFFFF AND PUSH20 0xFFFFFFFFFFFFFFFFFFFFFFFFFFFFFFFFFFFFFFFF AND DUP2 MSTORE PUSH1 0x20 ADD SWAP1 DUP2 MSTORE PUSH1 0x20 ADD PUSH1 0x0 KECCAK256 PUSH1 0x0 DUP3 DUP3 SLOAD PUSH2 0x1525 SWAP2 SWAP1 PUSH2 0x31EC JUMP JUMPDEST SWAP3 POP POP DUP2 SWAP1 SSTORE POP DUP7 PUSH20 0xFFFFFFFFFFFFFFFFFFFFFFFFFFFFFFFFFFFFFFFF AND PUSH1 0x0 PUSH20 0xFFFFFFFFFFFFFFFFFFFFFFFFFFFFFFFFFFFFFFFF AND DUP5 PUSH20 0xFFFFFFFFFFFFFFFFFFFFFFFFFFFFFFFFFFFFFFFF AND PUSH32 0xC3D58168C5AE7397731D063D5BBF3D657854427343F4C083240F7AACAA2D0F62 DUP10 DUP10 PUSH1 0x40 MLOAD PUSH2 0x15A3 SWAP3 SWAP2 SWAP1 PUSH2 0x3062 JUMP JUMPDEST PUSH1 0x40 MLOAD DUP1 SWAP2 SUB SWAP1 LOG4 PUSH2 0x15BA DUP4 PUSH1 0x0 DUP10 DUP6 DUP6 DUP10 PUSH2 0x1E22 JUMP JUMPDEST PUSH2 0x15C9 DUP4 PUSH1 0x0 DUP10 DUP10 DUP10 DUP10 PUSH2 0x208B JUMP JUMPDEST POP POP POP POP POP POP POP JUMP JUMPDEST PUSH2 0x15DA PUSH2 0xE5F JUMP JUMPDEST PUSH20 0xFFFFFFFFFFFFFFFFFFFFFFFFFFFFFFFFFFFFFFFF AND PUSH2 0x15F8 PUSH2 0x9C9 JUMP JUMPDEST PUSH20 0xFFFFFFFFFFFFFFFFFFFFFFFFFFFFFFFFFFFFFFFF AND EQ PUSH2 0x164E JUMPI PUSH1 0x40 MLOAD PUSH32 0x8C379A000000000000000000000000000000000000000000000000000000000 DUP2 MSTORE PUSH1 0x4 ADD PUSH2 0x1645 SWAP1 PUSH2 0x2F30 JUMP JUMPDEST PUSH1 0x40 MLOAD DUP1 SWAP2 SUB SWAP1 REVERT JUMPDEST JUMP JUMPDEST PUSH1 0x0 PUSH1 0x3 PUSH1 0x0 SWAP1 SLOAD SWAP1 PUSH2 0x100 EXP SWAP1 DIV PUSH20 0xFFFFFFFFFFFFFFFFFFFFFFFFFFFFFFFFFFFFFFFF AND SWAP1 POP DUP2 PUSH1 0x3 PUSH1 0x0 PUSH2 0x100 EXP DUP2 SLOAD DUP2 PUSH20 0xFFFFFFFFFFFFFFFFFFFFFFFFFFFFFFFFFFFFFFFF MUL NOT AND SWAP1 DUP4 PUSH20 0xFFFFFFFFFFFFFFFFFFFFFFFFFFFFFFFFFFFFFFFF AND MUL OR SWAP1 SSTORE POP DUP2 PUSH20 0xFFFFFFFFFFFFFFFFFFFFFFFFFFFFFFFFFFFFFFFF AND DUP2 PUSH20 0xFFFFFFFFFFFFFFFFFFFFFFFFFFFFFFFFFFFFFFFF AND PUSH32 0x8BE0079C531659141344CD1FD0A4F28419497F9722A3DAAFE3B4186F6B6457E0 PUSH1 0x40 MLOAD PUSH1 0x40 MLOAD DUP1 SWAP2 SUB SWAP1 LOG3 POP POP JUMP JUMPDEST DUP2 PUSH20 0xFFFFFFFFFFFFFFFFFFFFFFFFFFFFFFFFFFFFFFFF AND DUP4 PUSH20 0xFFFFFFFFFFFFFFFFFFFFFFFFFFFFFFFFFFFFFFFF AND EQ ISZERO PUSH2 0x1785 JUMPI PUSH1 0x40 MLOAD PUSH32 0x8C379A000000000000000000000000000000000000000000000000000000000 DUP2 MSTORE PUSH1 0x4 ADD PUSH2 0x177C SWAP1 PUSH2 0x2F90 JUMP JUMPDEST PUSH1 0x40 MLOAD DUP1 SWAP2 SUB SWAP1 REVERT JUMPDEST DUP1 PUSH1 0x1 PUSH1 0x0 DUP6 PUSH20 0xFFFFFFFFFFFFFFFFFFFFFFFFFFFFFFFFFFFFFFFF AND PUSH20 0xFFFFFFFFFFFFFFFFFFFFFFFFFFFFFFFFFFFFFFFF AND DUP2 MSTORE PUSH1 0x20 ADD SWAP1 DUP2 MSTORE PUSH1 0x20 ADD PUSH1 0x0 KECCAK256 PUSH1 0x0 DUP5 PUSH20 0xFFFFFFFFFFFFFFFFFFFFFFFFFFFFFFFFFFFFFFFF AND PUSH20 0xFFFFFFFFFFFFFFFFFFFFFFFFFFFFFFFFFFFFFFFF AND DUP2 MSTORE PUSH1 0x20 ADD SWAP1 DUP2 MSTORE PUSH1 0x20 ADD PUSH1 0x0 KECCAK256 PUSH1 0x0 PUSH2 0x100 EXP DUP2 SLOAD DUP2 PUSH1 0xFF MUL NOT AND SWAP1 DUP4 ISZERO ISZERO MUL OR SWAP1 SSTORE POP DUP2 PUSH20 0xFFFFFFFFFFFFFFFFFFFFFFFFFFFFFFFFFFFFFFFF AND DUP4 PUSH20 0xFFFFFFFFFFFFFFFFFFFFFFFFFFFFFFFFFFFFFFFF AND PUSH32 0x17307EAB39AB6107E8899845AD3D59BD9653F200F220920489CA2B5937696C31 DUP4 PUSH1 0x40 MLOAD PUSH2 0x1876 SWAP2 SWAP1 PUSH2 0x2DB3 JUMP JUMPDEST PUSH1 0x40 MLOAD DUP1 SWAP2 SUB SWAP1 LOG3 POP POP POP JUMP JUMPDEST PUSH1 0x0 PUSH20 0xFFFFFFFFFFFFFFFFFFFFFFFFFFFFFFFFFFFFFFFF AND DUP4 PUSH20 0xFFFFFFFFFFFFFFFFFFFFFFFFFFFFFFFFFFFFFFFF AND EQ ISZERO PUSH2 0x18F3 JUMPI PUSH1 0x40 MLOAD PUSH32 0x8C379A000000000000000000000000000000000000000000000000000000000 DUP2 MSTORE PUSH1 0x4 ADD PUSH2 0x18EA SWAP1 PUSH2 0x2EF0 JUMP JUMPDEST PUSH1 0x40 MLOAD DUP1 SWAP2 SUB SWAP1 REVERT JUMPDEST PUSH1 0x0 PUSH2 0x18FD PUSH2 0xE5F JUMP JUMPDEST SWAP1 POP PUSH1 0x0 PUSH2 0x190A DUP5 PUSH2 0x2011 JUMP JUMPDEST SWAP1 POP PUSH1 0x0 PUSH2 0x1917 DUP5 PUSH2 0x2011 JUMP JUMPDEST SWAP1 POP PUSH2 0x1937 DUP4 DUP8 PUSH1 0x0 DUP6 DUP6 PUSH1 0x40 MLOAD DUP1 PUSH1 0x20 ADD PUSH1 0x40 MSTORE DUP1 PUSH1 0x0 DUP2 MSTORE POP PUSH2 0x1D66 JUMP JUMPDEST PUSH1 0x0 DUP1 PUSH1 0x0 DUP8 DUP2 MSTORE PUSH1 0x20 ADD SWAP1 DUP2 MSTORE PUSH1 0x20 ADD PUSH1 0x0 KECCAK256 PUSH1 0x0 DUP9 PUSH20 0xFFFFFFFFFFFFFFFFFFFFFFFFFFFFFFFFFFFFFFFF AND PUSH20 0xFFFFFFFFFFFFFFFFFFFFFFFFFFFFFFFFFFFFFFFF AND DUP2 MSTORE PUSH1 0x20 ADD SWAP1 DUP2 MSTORE PUSH1 0x20 ADD PUSH1 0x0 KECCAK256 SLOAD SWAP1 POP DUP5 DUP2 LT ISZERO PUSH2 0x19CE JUMPI PUSH1 0x40 MLOAD PUSH32 0x8C379A000000000000000000000000000000000000000000000000000000000 DUP2 MSTORE PUSH1 0x4 ADD PUSH2 0x19C5 SWAP1 PUSH2 0x2E90 JUMP JUMPDEST PUSH1 0x40 MLOAD DUP1 SWAP2 SUB SWAP1 REVERT JUMPDEST DUP5 DUP2 SUB PUSH1 0x0 DUP1 DUP9 DUP2 MSTORE PUSH1 0x20 ADD SWAP1 DUP2 MSTORE PUSH1 0x20 ADD PUSH1 0x0 KECCAK256 PUSH1 0x0 DUP10 PUSH20 0xFFFFFFFFFFFFFFFFFFFFFFFFFFFFFFFFFFFFFFFF AND PUSH20 0xFFFFFFFFFFFFFFFFFFFFFFFFFFFFFFFFFFFFFFFF AND DUP2 MSTORE PUSH1 0x20 ADD SWAP1 DUP2 MSTORE PUSH1 0x20 ADD PUSH1 0x0 KECCAK256 DUP2 SWAP1 SSTORE POP PUSH1 0x0 PUSH20 0xFFFFFFFFFFFFFFFFFFFFFFFFFFFFFFFFFFFFFFFF AND DUP8 PUSH20 0xFFFFFFFFFFFFFFFFFFFFFFFFFFFFFFFFFFFFFFFF AND DUP6 PUSH20 0xFFFFFFFFFFFFFFFFFFFFFFFFFFFFFFFFFFFFFFFF AND PUSH32 0xC3D58168C5AE7397731D063D5BBF3D657854427343F4C083240F7AACAA2D0F62 DUP10 DUP10 PUSH1 0x40 MLOAD PUSH2 0x1A9B SWAP3 SWAP2 SWAP1 PUSH2 0x3062 JUMP JUMPDEST PUSH1 0x40 MLOAD DUP1 SWAP2 SUB SWAP1 LOG4 PUSH2 0x1AC1 DUP5 DUP9 PUSH1 0x0 DUP7 DUP7 PUSH1 0x40 MLOAD DUP1 PUSH1 0x20 ADD PUSH1 0x40 MSTORE DUP1 PUSH1 0x0 DUP2 MSTORE POP PUSH2 0x1E22 JUMP JUMPDEST POP POP POP POP POP POP POP JUMP JUMPDEST PUSH1 0x0 PUSH20 0xFFFFFFFFFFFFFFFFFFFFFFFFFFFFFFFFFFFFFFFF AND DUP5 PUSH20 0xFFFFFFFFFFFFFFFFFFFFFFFFFFFFFFFFFFFFFFFF AND EQ ISZERO PUSH2 0x1B3A JUMPI PUSH1 0x40 MLOAD PUSH32 0x8C379A000000000000000000000000000000000000000000000000000000000 DUP2 MSTORE PUSH1 0x4 ADD PUSH2 0x1B31 SWAP1 PUSH2 0x2ED0 JUMP JUMPDEST PUSH1 0x40 MLOAD DUP1 SWAP2 SUB SWAP1 REVERT JUMPDEST PUSH1 0x0 PUSH2 0x1B44 PUSH2 0xE5F JUMP JUMPDEST SWAP1 POP PUSH1 0x0 PUSH2 0x1B51 DUP6 PUSH2 0x2011 JUMP JUMPDEST SWAP1 POP PUSH1 0x0 PUSH2 0x1B5E DUP6 PUSH2 0x2011 JUMP JUMPDEST SWAP1 POP PUSH2 0x1B6E DUP4 DUP10 DUP10 DUP6 DUP6 DUP10 PUSH2 0x1D66 JUMP JUMPDEST PUSH1 0x0 DUP1 PUSH1 0x0 DUP9 DUP2 MSTORE PUSH1 0x20 ADD SWAP1 DUP2 MSTORE PUSH1 0x20 ADD PUSH1 0x0 KECCAK256 PUSH1 0x0 DUP11 PUSH20 0xFFFFFFFFFFFFFFFFFFFFFFFFFFFFFFFFFFFFFFFF AND PUSH20 0xFFFFFFFFFFFFFFFFFFFFFFFFFFFFFFFFFFFFFFFF AND DUP2 MSTORE PUSH1 0x20 ADD SWAP1 DUP2 MSTORE PUSH1 0x20 ADD PUSH1 0x0 KECCAK256 SLOAD SWAP1 POP DUP6 DUP2 LT ISZERO PUSH2 0x1C05 JUMPI PUSH1 0x40 MLOAD PUSH32 0x8C379A000000000000000000000000000000000000000000000000000000000 DUP2 MSTORE PUSH1 0x4 ADD PUSH2 0x1BFC SWAP1 PUSH2 0x2F10 JUMP JUMPDEST PUSH1 0x40 MLOAD DUP1 SWAP2 SUB SWAP1 REVERT JUMPDEST DUP6 DUP2 SUB PUSH1 0x0 DUP1 DUP10 DUP2 MSTORE PUSH1 0x20 ADD SWAP1 DUP2 MSTORE PUSH1 0x20 ADD PUSH1 0x0 KECCAK256 PUSH1 0x0 DUP12 PUSH20 0xFFFFFFFFFFFFFFFFFFFFFFFFFFFFFFFFFFFFFFFF AND PUSH20 0xFFFFFFFFFFFFFFFFFFFFFFFFFFFFFFFFFFFFFFFF AND DUP2 MSTORE PUSH1 0x20 ADD SWAP1 DUP2 MSTORE PUSH1 0x20 ADD PUSH1 0x0 KECCAK256 DUP2 SWAP1 SSTORE POP DUP6 PUSH1 0x0 DUP1 DUP10 DUP2 MSTORE PUSH1 0x20 ADD SWAP1 DUP2 MSTORE PUSH1 0x20 ADD PUSH1 0x0 KECCAK256 PUSH1 0x0 DUP11 PUSH20 0xFFFFFFFFFFFFFFFFFFFFFFFFFFFFFFFFFFFFFFFF AND PUSH20 0xFFFFFFFFFFFFFFFFFFFFFFFFFFFFFFFFFFFFFFFF AND DUP2 MSTORE PUSH1 0x20 ADD SWAP1 DUP2 MSTORE PUSH1 0x20 ADD PUSH1 0x0 KECCAK256 PUSH1 0x0 DUP3 DUP3 SLOAD PUSH2 0x1CBA SWAP2 SWAP1 PUSH2 0x31EC JUMP JUMPDEST SWAP3 POP POP DUP2 SWAP1 SSTORE POP DUP8 PUSH20 0xFFFFFFFFFFFFFFFFFFFFFFFFFFFFFFFFFFFFFFFF AND DUP10 PUSH20 0xFFFFFFFFFFFFFFFFFFFFFFFFFFFFFFFFFFFFFFFF AND DUP6 PUSH20 0xFFFFFFFFFFFFFFFFFFFFFFFFFFFFFFFFFFFFFFFF AND PUSH32 0xC3D58168C5AE7397731D063D5BBF3D657854427343F4C083240F7AACAA2D0F62 DUP11 DUP11 PUSH1 0x40 MLOAD PUSH2 0x1D37 SWAP3 SWAP2 SWAP1 PUSH2 0x3062 JUMP JUMPDEST PUSH1 0x40 MLOAD DUP1 SWAP2 SUB SWAP1 LOG4 PUSH2 0x1D4D DUP5 DUP11 DUP11 DUP7 DUP7 DUP11 PUSH2 0x1E22 JUMP JUMPDEST PUSH2 0x1D5B DUP5 DUP11 DUP11 DUP11 DUP11 DUP11 PUSH2 0x208B JUMP JUMPDEST POP POP POP POP POP POP POP POP POP JUMP JUMPDEST PUSH1 0x0 PUSH20 0xFFFFFFFFFFFFFFFFFFFFFFFFFFFFFFFFFFFFFFFF AND DUP6 PUSH20 0xFFFFFFFFFFFFFFFFFFFFFFFFFFFFFFFFFFFFFFFF AND EQ DUP1 PUSH2 0x1DCD JUMPI POP PUSH1 0x0 PUSH20 0xFFFFFFFFFFFFFFFFFFFFFFFFFFFFFFFFFFFFFFFF AND DUP5 PUSH20 0xFFFFFFFFFFFFFFFFFFFFFFFFFFFFFFFFFFFFFFFF AND EQ JUMPDEST PUSH2 0x1E0C JUMPI PUSH1 0x40 MLOAD PUSH32 0x8C379A000000000000000000000000000000000000000000000000000000000 DUP2 MSTORE PUSH1 0x4 ADD PUSH2 0x1E03 SWAP1 PUSH2 0x2F70 JUMP JUMPDEST PUSH1 0x40 MLOAD DUP1 SWAP2 SUB SWAP1 REVERT JUMPDEST PUSH2 0x1E1A DUP7 DUP7 DUP7 DUP7 DUP7 DUP7 PUSH2 0x2272 JUMP JUMPDEST POP POP POP POP POP POP JUMP JUMPDEST POP POP POP POP POP POP JUMP JUMPDEST PUSH2 0x1E49 DUP5 PUSH20 0xFFFFFFFFFFFFFFFFFFFFFFFFFFFFFFFFFFFFFFFF AND PUSH2 0x227A JUMP JUMPDEST ISZERO PUSH2 0x2009 JUMPI DUP4 PUSH20 0xFFFFFFFFFFFFFFFFFFFFFFFFFFFFFFFFFFFFFFFF AND PUSH4 0xBC197C81 DUP8 DUP8 DUP7 DUP7 DUP7 PUSH1 0x40 MLOAD DUP7 PUSH4 0xFFFFFFFF AND PUSH1 0xE0 SHL DUP2 MSTORE PUSH1 0x4 ADD PUSH2 0x1E8F SWAP6 SWAP5 SWAP4 SWAP3 SWAP2 SWAP1 PUSH2 0x2C6F JUMP JUMPDEST PUSH1 0x20 PUSH1 0x40 MLOAD DUP1 DUP4 SUB DUP2 PUSH1 0x0 DUP8 DUP1 EXTCODESIZE ISZERO DUP1 ISZERO PUSH2 0x1EA9 JUMPI PUSH1 0x0 DUP1 REVERT JUMPDEST POP GAS CALL SWAP3 POP POP POP DUP1 ISZERO PUSH2 0x1EDA JUMPI POP PUSH1 0x40 MLOAD RETURNDATASIZE PUSH1 0x1F NOT PUSH1 0x1F DUP3 ADD AND DUP3 ADD DUP1 PUSH1 0x40 MSTORE POP DUP2 ADD SWAP1 PUSH2 0x1ED7 SWAP2 SWAP1 PUSH2 0x27BF JUMP JUMPDEST PUSH1 0x1 JUMPDEST PUSH2 0x1F80 JUMPI PUSH2 0x1EE6 PUSH2 0x36C7 JUMP JUMPDEST DUP1 PUSH4 0x8C379A0 EQ ISZERO PUSH2 0x1F43 JUMPI POP PUSH2 0x1EFB PUSH2 0x3BD4 JUMP JUMPDEST DUP1 PUSH2 0x1F06 JUMPI POP PUSH2 0x1F45 JUMP JUMPDEST DUP1 PUSH1 0x40 MLOAD PUSH32 0x8C379A000000000000000000000000000000000000000000000000000000000 DUP2 MSTORE PUSH1 0x4 ADD PUSH2 0x1F3A SWAP2 SWAP1 PUSH2 0x2DCE JUMP JUMPDEST PUSH1 0x40 MLOAD DUP1 SWAP2 SUB SWAP1 REVERT JUMPDEST POP JUMPDEST PUSH1 0x40 MLOAD PUSH32 0x8C379A000000000000000000000000000000000000000000000000000000000 DUP2 MSTORE PUSH1 0x4 ADD PUSH2 0x1F77 SWAP1 PUSH2 0x2DF0 JUMP JUMPDEST PUSH1 0x40 MLOAD DUP1 SWAP2 SUB SWAP1 REVERT JUMPDEST PUSH4 0xBC197C81 PUSH1 0xE0 SHL PUSH28 0xFFFFFFFFFFFFFFFFFFFFFFFFFFFFFFFFFFFFFFFFFFFFFFFFFFFFFFFF NOT AND DUP2 PUSH28 0xFFFFFFFFFFFFFFFFFFFFFFFFFFFFFFFFFFFFFFFFFFFFFFFFFFFFFFFF NOT AND EQ PUSH2 0x2007 JUMPI PUSH1 0x40 MLOAD PUSH32 0x8C379A000000000000000000000000000000000000000000000000000000000 DUP2 MSTORE PUSH1 0x4 ADD PUSH2 0x1FFE SWAP1 PUSH2 0x2E50 JUMP JUMPDEST PUSH1 0x40 MLOAD DUP1 SWAP2 SUB SWAP1 REVERT JUMPDEST POP JUMPDEST POP POP POP POP POP POP JUMP JUMPDEST PUSH1 0x60 PUSH1 0x0 PUSH1 0x1 PUSH8 0xFFFFFFFFFFFFFFFF DUP2 GT ISZERO PUSH2 0x2030 JUMPI PUSH2 0x202F PUSH2 0x3698 JUMP JUMPDEST JUMPDEST PUSH1 0x40 MLOAD SWAP1 DUP1 DUP3 MSTORE DUP1 PUSH1 0x20 MUL PUSH1 0x20 ADD DUP3 ADD PUSH1 0x40 MSTORE DUP1 ISZERO PUSH2 0x205E JUMPI DUP2 PUSH1 0x20 ADD PUSH1 0x20 DUP3 MUL DUP1 CALLDATASIZE DUP4 CALLDATACOPY DUP1 DUP3 ADD SWAP2 POP POP SWAP1 POP JUMPDEST POP SWAP1 POP DUP3 DUP2 PUSH1 0x0 DUP2 MLOAD DUP2 LT PUSH2 0x2076 JUMPI PUSH2 0x2075 PUSH2 0x3669 JUMP JUMPDEST JUMPDEST PUSH1 0x20 MUL PUSH1 0x20 ADD ADD DUP2 DUP2 MSTORE POP POP DUP1 SWAP2 POP POP SWAP2 SWAP1 POP JUMP JUMPDEST PUSH2 0x20AA DUP5 PUSH20 0xFFFFFFFFFFFFFFFFFFFFFFFFFFFFFFFFFFFFFFFF AND PUSH2 0x227A JUMP JUMPDEST ISZERO PUSH2 0x226A JUMPI DUP4 PUSH20 0xFFFFFFFFFFFFFFFFFFFFFFFFFFFFFFFFFFFFFFFF AND PUSH4 0xF23A6E61 DUP8 DUP8 DUP7 DUP7 DUP7 PUSH1 0x40 MLOAD DUP7 PUSH4 0xFFFFFFFF AND PUSH1 0xE0 SHL DUP2 MSTORE PUSH1 0x4 ADD PUSH2 0x20F0 SWAP6 SWAP5 SWAP4 SWAP3 SWAP2 SWAP1 PUSH2 0x2CD7 JUMP JUMPDEST PUSH1 0x20 PUSH1 0x40 MLOAD DUP1 DUP4 SUB DUP2 PUSH1 0x0 DUP8 DUP1 EXTCODESIZE ISZERO DUP1 ISZERO PUSH2 0x210A JUMPI PUSH1 0x0 DUP1 REVERT JUMPDEST POP GAS CALL SWAP3 POP POP POP DUP1 ISZERO PUSH2 0x213B JUMPI POP PUSH1 0x40 MLOAD RETURNDATASIZE PUSH1 0x1F NOT PUSH1 0x1F DUP3 ADD AND DUP3 ADD DUP1 PUSH1 0x40 MSTORE POP DUP2 ADD SWAP1 PUSH2 0x2138 SWAP2 SWAP1 PUSH2 0x27BF JUMP JUMPDEST PUSH1 0x1 JUMPDEST PUSH2 0x21E1 JUMPI PUSH2 0x2147 PUSH2 0x36C7 JUMP JUMPDEST DUP1 PUSH4 0x8C379A0 EQ ISZERO PUSH2 0x21A4 JUMPI POP PUSH2 0x215C PUSH2 0x3BD4 JUMP JUMPDEST DUP1 PUSH2 0x2167 JUMPI POP PUSH2 0x21A6 JUMP JUMPDEST DUP1 PUSH1 0x40 MLOAD PUSH32 0x8C379A000000000000000000000000000000000000000000000000000000000 DUP2 MSTORE PUSH1 0x4 ADD PUSH2 0x219B SWAP2 SWAP1 PUSH2 0x2DCE JUMP JUMPDEST PUSH1 0x40 MLOAD DUP1 SWAP2 SUB SWAP1 REVERT JUMPDEST POP JUMPDEST PUSH1 0x40 MLOAD PUSH32 0x8C379A000000000000000000000000000000000000000000000000000000000 DUP2 MSTORE PUSH1 0x4 ADD PUSH2 0x21D8 SWAP1 PUSH2 0x2DF0 JUMP JUMPDEST PUSH1 0x40 MLOAD DUP1 SWAP2 SUB SWAP1 REVERT JUMPDEST PUSH4 0xF23A6E61 PUSH1 0xE0 SHL PUSH28 0xFFFFFFFFFFFFFFFFFFFFFFFFFFFFFFFFFFFFFFFFFFFFFFFFFFFFFFFF NOT AND DUP2 PUSH28 0xFFFFFFFFFFFFFFFFFFFFFFFFFFFFFFFFFFFFFFFFFFFFFFFFFFFFFFFF NOT AND EQ PUSH2 0x2268 JUMPI PUSH1 0x40 MLOAD PUSH32 0x8C379A000000000000000000000000000000000000000000000000000000000 DUP2 MSTORE PUSH1 0x4 ADD PUSH2 0x225F SWAP1 PUSH2 0x2E50 JUMP JUMPDEST PUSH1 0x40 MLOAD DUP1 SWAP2 SUB SWAP1 REVERT JUMPDEST POP JUMPDEST POP POP POP POP POP POP JUMP JUMPDEST POP POP POP POP POP POP JUMP JUMPDEST PUSH1 0x0 DUP1 DUP3 PUSH20 0xFFFFFFFFFFFFFFFFFFFFFFFFFFFFFFFFFFFFFFFF AND EXTCODESIZE GT SWAP1 POP SWAP2 SWAP1 POP JUMP JUMPDEST PUSH1 0x0 PUSH2 0x22B0 PUSH2 0x22AB DUP5 PUSH2 0x30E7 JUMP JUMPDEST PUSH2 0x30C2 JUMP JUMPDEST SWAP1 POP DUP1 DUP4 DUP3 MSTORE PUSH1 0x20 DUP3 ADD SWAP1 POP DUP3 DUP6 PUSH1 0x20 DUP7 MUL DUP3 ADD GT ISZERO PUSH2 0x22D3 JUMPI PUSH2 0x22D2 PUSH2 0x36EE JUMP JUMPDEST JUMPDEST PUSH1 0x0 JUMPDEST DUP6 DUP2 LT ISZERO PUSH2 0x2303 JUMPI DUP2 PUSH2 0x22E9 DUP9 DUP3 PUSH2 0x23BF JUMP JUMPDEST DUP5 MSTORE PUSH1 0x20 DUP5 ADD SWAP4 POP PUSH1 0x20 DUP4 ADD SWAP3 POP POP PUSH1 0x1 DUP2 ADD SWAP1 POP PUSH2 0x22D6 JUMP JUMPDEST POP POP POP SWAP4 SWAP3 POP POP POP JUMP JUMPDEST PUSH1 0x0 PUSH2 0x2320 PUSH2 0x231B DUP5 PUSH2 0x3113 JUMP JUMPDEST PUSH2 0x30C2 JUMP JUMPDEST SWAP1 POP DUP1 DUP4 DUP3 MSTORE PUSH1 0x20 DUP3 ADD SWAP1 POP DUP3 DUP6 PUSH1 0x20 DUP7 MUL DUP3 ADD GT ISZERO PUSH2 0x2343 JUMPI PUSH2 0x2342 PUSH2 0x36EE JUMP JUMPDEST JUMPDEST PUSH1 0x0 JUMPDEST DUP6 DUP2 LT ISZERO PUSH2 0x2373 JUMPI DUP2 PUSH2 0x2359 DUP9 DUP3 PUSH2 0x249D JUMP JUMPDEST DUP5 MSTORE PUSH1 0x20 DUP5 ADD SWAP4 POP PUSH1 0x20 DUP4 ADD SWAP3 POP POP PUSH1 0x1 DUP2 ADD SWAP1 POP PUSH2 0x2346 JUMP JUMPDEST POP POP POP SWAP4 SWAP3 POP POP POP JUMP JUMPDEST PUSH1 0x0 PUSH2 0x2390 PUSH2 0x238B DUP5 PUSH2 0x313F JUMP JUMPDEST PUSH2 0x30C2 JUMP JUMPDEST SWAP1 POP DUP3 DUP2 MSTORE PUSH1 0x20 DUP2 ADD DUP5 DUP5 DUP5 ADD GT ISZERO PUSH2 0x23AC JUMPI PUSH2 0x23AB PUSH2 0x36F3 JUMP JUMPDEST JUMPDEST PUSH2 0x23B7 DUP5 DUP3 DUP6 PUSH2 0x3493 JUMP JUMPDEST POP SWAP4 SWAP3 POP POP POP JUMP JUMPDEST PUSH1 0x0 DUP2 CALLDATALOAD SWAP1 POP PUSH2 0x23CE DUP2 PUSH2 0x3C6A JUMP JUMPDEST SWAP3 SWAP2 POP POP JUMP JUMPDEST PUSH1 0x0 DUP3 PUSH1 0x1F DUP4 ADD SLT PUSH2 0x23E9 JUMPI PUSH2 0x23E8 PUSH2 0x36E9 JUMP JUMPDEST JUMPDEST DUP2 CALLDATALOAD PUSH2 0x23F9 DUP5 DUP3 PUSH1 0x20 DUP7 ADD PUSH2 0x229D JUMP JUMPDEST SWAP2 POP POP SWAP3 SWAP2 POP POP JUMP JUMPDEST PUSH1 0x0 DUP3 PUSH1 0x1F DUP4 ADD SLT PUSH2 0x2417 JUMPI PUSH2 0x2416 PUSH2 0x36E9 JUMP JUMPDEST JUMPDEST DUP2 CALLDATALOAD PUSH2 0x2427 DUP5 DUP3 PUSH1 0x20 DUP7 ADD PUSH2 0x230D JUMP JUMPDEST SWAP2 POP POP SWAP3 SWAP2 POP POP JUMP JUMPDEST PUSH1 0x0 DUP2 CALLDATALOAD SWAP1 POP PUSH2 0x243F DUP2 PUSH2 0x3C81 JUMP JUMPDEST SWAP3 SWAP2 POP POP JUMP JUMPDEST PUSH1 0x0 DUP2 CALLDATALOAD SWAP1 POP PUSH2 0x2454 DUP2 PUSH2 0x3C98 JUMP JUMPDEST SWAP3 SWAP2 POP POP JUMP JUMPDEST PUSH1 0x0 DUP2 MLOAD SWAP1 POP PUSH2 0x2469 DUP2 PUSH2 0x3C98 JUMP JUMPDEST SWAP3 SWAP2 POP POP JUMP JUMPDEST PUSH1 0x0 DUP3 PUSH1 0x1F DUP4 ADD SLT PUSH2 0x2484 JUMPI PUSH2 0x2483 PUSH2 0x36E9 JUMP JUMPDEST JUMPDEST DUP2 CALLDATALOAD PUSH2 0x2494 DUP5 DUP3 PUSH1 0x20 DUP7 ADD PUSH2 0x237D JUMP JUMPDEST SWAP2 POP POP SWAP3 SWAP2 POP POP JUMP JUMPDEST PUSH1 0x0 DUP2 CALLDATALOAD SWAP1 POP PUSH2 0x24AC DUP2 PUSH2 0x3CAF JUMP JUMPDEST SWAP3 SWAP2 POP POP JUMP JUMPDEST PUSH1 0x0 DUP2 MLOAD SWAP1 POP PUSH2 0x24C1 DUP2 PUSH2 0x3CAF JUMP JUMPDEST SWAP3 SWAP2 POP POP JUMP JUMPDEST PUSH1 0x0 PUSH1 0x20 DUP3 DUP5 SUB SLT ISZERO PUSH2 0x24DD JUMPI PUSH2 0x24DC PUSH2 0x36FD JUMP JUMPDEST JUMPDEST PUSH1 0x0 PUSH2 0x24EB DUP5 DUP3 DUP6 ADD PUSH2 0x23BF JUMP JUMPDEST SWAP2 POP POP SWAP3 SWAP2 POP POP JUMP JUMPDEST PUSH1 0x0 DUP1 PUSH1 0x40 DUP4 DUP6 SUB SLT ISZERO PUSH2 0x250B JUMPI PUSH2 0x250A PUSH2 0x36FD JUMP JUMPDEST JUMPDEST PUSH1 0x0 PUSH2 0x2519 DUP6 DUP3 DUP7 ADD PUSH2 0x23BF JUMP JUMPDEST SWAP3 POP POP PUSH1 0x20 PUSH2 0x252A DUP6 DUP3 DUP7 ADD PUSH2 0x23BF JUMP JUMPDEST SWAP2 POP POP SWAP3 POP SWAP3 SWAP1 POP JUMP JUMPDEST PUSH1 0x0 DUP1 PUSH1 0x0 DUP1 PUSH1 0x0 PUSH1 0xA0 DUP7 DUP9 SUB SLT ISZERO PUSH2 0x2550 JUMPI PUSH2 0x254F PUSH2 0x36FD JUMP JUMPDEST JUMPDEST PUSH1 0x0 PUSH2 0x255E DUP9 DUP3 DUP10 ADD PUSH2 0x23BF JUMP JUMPDEST SWAP6 POP POP PUSH1 0x20 PUSH2 0x256F DUP9 DUP3 DUP10 ADD PUSH2 0x23BF JUMP JUMPDEST SWAP5 POP POP PUSH1 0x40 DUP7 ADD CALLDATALOAD PUSH8 0xFFFFFFFFFFFFFFFF DUP2 GT ISZERO PUSH2 0x2590 JUMPI PUSH2 0x258F PUSH2 0x36F8 JUMP JUMPDEST JUMPDEST PUSH2 0x259C DUP9 DUP3 DUP10 ADD PUSH2 0x2402 JUMP JUMPDEST SWAP4 POP POP PUSH1 0x60 DUP7 ADD CALLDATALOAD PUSH8 0xFFFFFFFFFFFFFFFF DUP2 GT ISZERO PUSH2 0x25BD JUMPI PUSH2 0x25BC PUSH2 0x36F8 JUMP JUMPDEST JUMPDEST PUSH2 0x25C9 DUP9 DUP3 DUP10 ADD PUSH2 0x2402 JUMP JUMPDEST SWAP3 POP POP PUSH1 0x80 DUP7 ADD CALLDATALOAD PUSH8 0xFFFFFFFFFFFFFFFF DUP2 GT ISZERO PUSH2 0x25EA JUMPI PUSH2 0x25E9 PUSH2 0x36F8 JUMP JUMPDEST JUMPDEST PUSH2 0x25F6 DUP9 DUP3 DUP10 ADD PUSH2 0x246F JUMP JUMPDEST SWAP2 POP POP SWAP3 SWAP6 POP SWAP3 SWAP6 SWAP1 SWAP4 POP JUMP JUMPDEST PUSH1 0x0 DUP1 PUSH1 0x0 DUP1 PUSH1 0x0 PUSH1 0xA0 DUP7 DUP9 SUB SLT ISZERO PUSH2 0x261F JUMPI PUSH2 0x261E PUSH2 0x36FD JUMP JUMPDEST JUMPDEST PUSH1 0x0 PUSH2 0x262D DUP9 DUP3 DUP10 ADD PUSH2 0x23BF JUMP JUMPDEST SWAP6 POP POP PUSH1 0x20 PUSH2 0x263E DUP9 DUP3 DUP10 ADD PUSH2 0x23BF JUMP JUMPDEST SWAP5 POP POP PUSH1 0x40 PUSH2 0x264F DUP9 DUP3 DUP10 ADD PUSH2 0x249D JUMP JUMPDEST SWAP4 POP POP PUSH1 0x60 PUSH2 0x2660 DUP9 DUP3 DUP10 ADD PUSH2 0x249D JUMP JUMPDEST SWAP3 POP POP PUSH1 0x80 DUP7 ADD CALLDATALOAD PUSH8 0xFFFFFFFFFFFFFFFF DUP2 GT ISZERO PUSH2 0x2681 JUMPI PUSH2 0x2680 PUSH2 0x36F8 JUMP JUMPDEST JUMPDEST PUSH2 0x268D DUP9 DUP3 DUP10 ADD PUSH2 0x246F JUMP JUMPDEST SWAP2 POP POP SWAP3 SWAP6 POP SWAP3 SWAP6 SWAP1 SWAP4 POP JUMP JUMPDEST PUSH1 0x0 DUP1 PUSH1 0x40 DUP4 DUP6 SUB SLT ISZERO PUSH2 0x26B1 JUMPI PUSH2 0x26B0 PUSH2 0x36FD JUMP JUMPDEST JUMPDEST PUSH1 0x0 PUSH2 0x26BF DUP6 DUP3 DUP7 ADD PUSH2 0x23BF JUMP JUMPDEST SWAP3 POP POP PUSH1 0x20 PUSH2 0x26D0 DUP6 DUP3 DUP7 ADD PUSH2 0x2430 JUMP JUMPDEST SWAP2 POP POP SWAP3 POP SWAP3 SWAP1 POP JUMP JUMPDEST PUSH1 0x0 DUP1 PUSH1 0x40 DUP4 DUP6 SUB SLT ISZERO PUSH2 0x26F1 JUMPI PUSH2 0x26F0 PUSH2 0x36FD JUMP JUMPDEST JUMPDEST PUSH1 0x0 PUSH2 0x26FF DUP6 DUP3 DUP7 ADD PUSH2 0x23BF JUMP JUMPDEST SWAP3 POP POP PUSH1 0x20 PUSH2 0x2710 DUP6 DUP3 DUP7 ADD PUSH2 0x249D JUMP JUMPDEST SWAP2 POP POP SWAP3 POP SWAP3 SWAP1 POP JUMP JUMPDEST PUSH1 0x0 DUP1 PUSH1 0x40 DUP4 DUP6 SUB SLT ISZERO PUSH2 0x2731 JUMPI PUSH2 0x2730 PUSH2 0x36FD JUMP JUMPDEST JUMPDEST PUSH1 0x0 DUP4 ADD CALLDATALOAD PUSH8 0xFFFFFFFFFFFFFFFF DUP2 GT ISZERO PUSH2 0x274F JUMPI PUSH2 0x274E PUSH2 0x36F8 JUMP JUMPDEST JUMPDEST PUSH2 0x275B DUP6 DUP3 DUP7 ADD PUSH2 0x23D4 JUMP JUMPDEST SWAP3 POP POP PUSH1 0x20 DUP4 ADD CALLDATALOAD PUSH8 0xFFFFFFFFFFFFFFFF DUP2 GT ISZERO PUSH2 0x277C JUMPI PUSH2 0x277B PUSH2 0x36F8 JUMP JUMPDEST JUMPDEST PUSH2 0x2788 DUP6 DUP3 DUP7 ADD PUSH2 0x2402 JUMP JUMPDEST SWAP2 POP POP SWAP3 POP SWAP3 SWAP1 POP JUMP JUMPDEST PUSH1 0x0 PUSH1 0x20 DUP3 DUP5 SUB SLT ISZERO PUSH2 0x27A8 JUMPI PUSH2 0x27A7 PUSH2 0x36FD JUMP JUMPDEST JUMPDEST PUSH1 0x0 PUSH2 0x27B6 DUP5 DUP3 DUP6 ADD PUSH2 0x2445 JUMP JUMPDEST SWAP2 POP POP SWAP3 SWAP2 POP POP JUMP JUMPDEST PUSH1 0x0 PUSH1 0x20 DUP3 DUP5 SUB SLT ISZERO PUSH2 0x27D5 JUMPI PUSH2 0x27D4 PUSH2 0x36FD JUMP JUMPDEST JUMPDEST PUSH1 0x0 PUSH2 0x27E3 DUP5 DUP3 DUP6 ADD PUSH2 0x245A JUMP JUMPDEST SWAP2 POP POP SWAP3 SWAP2 POP POP JUMP JUMPDEST PUSH1 0x0 PUSH1 0x20 DUP3 DUP5 SUB SLT ISZERO PUSH2 0x2802 JUMPI PUSH2 0x2801 PUSH2 0x36FD JUMP JUMPDEST JUMPDEST PUSH1 0x0 PUSH2 0x2810 DUP5 DUP3 DUP6 ADD PUSH2 0x249D JUMP JUMPDEST SWAP2 POP POP SWAP3 SWAP2 POP POP JUMP JUMPDEST PUSH1 0x0 PUSH1 0x20 DUP3 DUP5 SUB SLT ISZERO PUSH2 0x282F JUMPI PUSH2 0x282E PUSH2 0x36FD JUMP JUMPDEST JUMPDEST PUSH1 0x0 PUSH2 0x283D DUP5 DUP3 DUP6 ADD PUSH2 0x24B2 JUMP JUMPDEST SWAP2 POP POP SWAP3 SWAP2 POP POP JUMP JUMPDEST PUSH1 0x0 DUP1 PUSH1 0x40 DUP4 DUP6 SUB SLT ISZERO PUSH2 0x285D JUMPI PUSH2 0x285C PUSH2 0x36FD JUMP JUMPDEST JUMPDEST PUSH1 0x0 PUSH2 0x286B DUP6 DUP3 DUP7 ADD PUSH2 0x249D JUMP JUMPDEST SWAP3 POP POP PUSH1 0x20 PUSH2 0x287C DUP6 DUP3 DUP7 ADD PUSH2 0x249D JUMP JUMPDEST SWAP2 POP POP SWAP3 POP SWAP3 SWAP1 POP JUMP JUMPDEST PUSH1 0x0 PUSH2 0x2892 DUP4 DUP4 PUSH2 0x2C1F JUMP JUMPDEST PUSH1 0x20 DUP4 ADD SWAP1 POP SWAP3 SWAP2 POP POP JUMP JUMPDEST PUSH2 0x28A7 DUP2 PUSH2 0x340D JUMP JUMPDEST DUP3 MSTORE POP POP JUMP JUMPDEST PUSH1 0x0 PUSH2 0x28B8 DUP3 PUSH2 0x3180 JUMP JUMPDEST PUSH2 0x28C2 DUP2 DUP6 PUSH2 0x31AE JUMP JUMPDEST SWAP4 POP PUSH2 0x28CD DUP4 PUSH2 0x3170 JUMP JUMPDEST DUP1 PUSH1 0x0 JUMPDEST DUP4 DUP2 LT ISZERO PUSH2 0x28FE JUMPI DUP2 MLOAD PUSH2 0x28E5 DUP9 DUP3 PUSH2 0x2886 JUMP JUMPDEST SWAP8 POP PUSH2 0x28F0 DUP4 PUSH2 0x31A1 JUMP JUMPDEST SWAP3 POP POP PUSH1 0x1 DUP2 ADD SWAP1 POP PUSH2 0x28D1 JUMP JUMPDEST POP DUP6 SWAP4 POP POP POP POP SWAP3 SWAP2 POP POP JUMP JUMPDEST PUSH2 0x2914 DUP2 PUSH2 0x341F JUMP JUMPDEST DUP3 MSTORE POP POP JUMP JUMPDEST PUSH1 0x0 PUSH2 0x2925 DUP3 PUSH2 0x318B JUMP JUMPDEST PUSH2 0x292F DUP2 DUP6 PUSH2 0x31BF JUMP JUMPDEST SWAP4 POP PUSH2 0x293F DUP2 DUP6 PUSH1 0x20 DUP7 ADD PUSH2 0x34A2 JUMP JUMPDEST PUSH2 0x2948 DUP2 PUSH2 0x3702 JUMP JUMPDEST DUP5 ADD SWAP2 POP POP SWAP3 SWAP2 POP POP JUMP JUMPDEST PUSH2 0x295C DUP2 PUSH2 0x3481 JUMP JUMPDEST DUP3 MSTORE POP POP JUMP JUMPDEST PUSH1 0x0 PUSH2 0x296D DUP3 PUSH2 0x3196 JUMP JUMPDEST PUSH2 0x2977 DUP2 DUP6 PUSH2 0x31D0 JUMP JUMPDEST SWAP4 POP PUSH2 0x2987 DUP2 DUP6 PUSH1 0x20 DUP7 ADD PUSH2 0x34A2 JUMP JUMPDEST PUSH2 0x2990 DUP2 PUSH2 0x3702 JUMP JUMPDEST DUP5 ADD SWAP2 POP POP SWAP3 SWAP2 POP POP JUMP JUMPDEST PUSH1 0x0 PUSH2 0x29A6 DUP3 PUSH2 0x3196 JUMP JUMPDEST PUSH2 0x29B0 DUP2 DUP6 PUSH2 0x31E1 JUMP JUMPDEST SWAP4 POP PUSH2 0x29C0 DUP2 DUP6 PUSH1 0x20 DUP7 ADD PUSH2 0x34A2 JUMP JUMPDEST DUP1 DUP5 ADD SWAP2 POP POP SWAP3 SWAP2 POP POP JUMP JUMPDEST PUSH1 0x0 PUSH2 0x29D9 PUSH1 0x34 DUP4 PUSH2 0x31D0 JUMP JUMPDEST SWAP2 POP PUSH2 0x29E4 DUP3 PUSH2 0x372D JUMP JUMPDEST PUSH1 0x40 DUP3 ADD SWAP1 POP SWAP2 SWAP1 POP JUMP JUMPDEST PUSH1 0x0 PUSH2 0x29FC PUSH1 0x2F DUP4 PUSH2 0x31D0 JUMP JUMPDEST SWAP2 POP PUSH2 0x2A07 DUP3 PUSH2 0x377C JUMP JUMPDEST PUSH1 0x40 DUP3 ADD SWAP1 POP SWAP2 SWAP1 POP JUMP JUMPDEST PUSH1 0x0 PUSH2 0x2A1F PUSH1 0x20 DUP4 PUSH2 0x31D0 JUMP JUMPDEST SWAP2 POP PUSH2 0x2A2A DUP3 PUSH2 0x37CB JUMP JUMPDEST PUSH1 0x20 DUP3 ADD SWAP1 POP SWAP2 SWAP1 POP JUMP JUMPDEST PUSH1 0x0 PUSH2 0x2A42 PUSH1 0x28 DUP4 PUSH2 0x31D0 JUMP JUMPDEST SWAP2 POP PUSH2 0x2A4D DUP3 PUSH2 0x37F4 JUMP JUMPDEST PUSH1 0x40 DUP3 ADD SWAP1 POP SWAP2 SWAP1 POP JUMP JUMPDEST PUSH1 0x0 PUSH2 0x2A65 PUSH1 0x26 DUP4 PUSH2 0x31D0 JUMP JUMPDEST SWAP2 POP PUSH2 0x2A70 DUP3 PUSH2 0x3843 JUMP JUMPDEST PUSH1 0x40 DUP3 ADD SWAP1 POP SWAP2 SWAP1 POP JUMP JUMPDEST PUSH1 0x0 PUSH2 0x2A88 PUSH1 0x24 DUP4 PUSH2 0x31D0 JUMP JUMPDEST SWAP2 POP PUSH2 0x2A93 DUP3 PUSH2 0x3892 JUMP JUMPDEST PUSH1 0x40 DUP3 ADD SWAP1 POP SWAP2 SWAP1 POP JUMP JUMPDEST PUSH1 0x0 PUSH2 0x2AAB PUSH1 0x2A DUP4 PUSH2 0x31D0 JUMP JUMPDEST SWAP2 POP PUSH2 0x2AB6 DUP3 PUSH2 0x38E1 JUMP JUMPDEST PUSH1 0x40 DUP3 ADD SWAP1 POP SWAP2 SWAP1 POP JUMP JUMPDEST PUSH1 0x0 PUSH2 0x2ACE PUSH1 0x25 DUP4 PUSH2 0x31D0 JUMP JUMPDEST SWAP2 POP PUSH2 0x2AD9 DUP3 PUSH2 0x3930 JUMP JUMPDEST PUSH1 0x40 DUP3 ADD SWAP1 POP SWAP2 SWAP1 POP JUMP JUMPDEST PUSH1 0x0 PUSH2 0x2AF1 PUSH1 0x23 DUP4 PUSH2 0x31D0 JUMP JUMPDEST SWAP2 POP PUSH2 0x2AFC DUP3 PUSH2 0x397F JUMP JUMPDEST PUSH1 0x40 DUP3 ADD SWAP1 POP SWAP2 SWAP1 POP JUMP JUMPDEST PUSH1 0x0 PUSH2 0x2B14 PUSH1 0x2A DUP4 PUSH2 0x31D0 JUMP JUMPDEST SWAP2 POP PUSH2 0x2B1F DUP3 PUSH2 0x39CE JUMP JUMPDEST PUSH1 0x40 DUP3 ADD SWAP1 POP SWAP2 SWAP1 POP JUMP JUMPDEST PUSH1 0x0 PUSH2 0x2B37 PUSH1 0x20 DUP4 PUSH2 0x31D0 JUMP JUMPDEST SWAP2 POP PUSH2 0x2B42 DUP3 PUSH2 0x3A1D JUMP JUMPDEST PUSH1 0x20 DUP3 ADD SWAP1 POP SWAP2 SWAP1 POP JUMP JUMPDEST PUSH1 0x0 PUSH2 0x2B5A PUSH1 0x16 DUP4 PUSH2 0x31D0 JUMP JUMPDEST SWAP2 POP PUSH2 0x2B65 DUP3 PUSH2 0x3A46 JUMP JUMPDEST PUSH1 0x20 DUP3 ADD SWAP1 POP SWAP2 SWAP1 POP JUMP JUMPDEST PUSH1 0x0 PUSH2 0x2B7D PUSH1 0x19 DUP4 PUSH2 0x31D0 JUMP JUMPDEST SWAP2 POP PUSH2 0x2B88 DUP3 PUSH2 0x3A6F JUMP JUMPDEST PUSH1 0x20 DUP3 ADD SWAP1 POP SWAP2 SWAP1 POP JUMP JUMPDEST PUSH1 0x0 PUSH2 0x2BA0 PUSH1 0x29 DUP4 PUSH2 0x31D0 JUMP JUMPDEST SWAP2 POP PUSH2 0x2BAB DUP3 PUSH2 0x3A98 JUMP JUMPDEST PUSH1 0x40 DUP3 ADD SWAP1 POP SWAP2 SWAP1 POP JUMP JUMPDEST PUSH1 0x0 PUSH2 0x2BC3 PUSH1 0x29 DUP4 PUSH2 0x31D0 JUMP JUMPDEST SWAP2 POP PUSH2 0x2BCE DUP3 PUSH2 0x3AE7 JUMP JUMPDEST PUSH1 0x40 DUP3 ADD SWAP1 POP SWAP2 SWAP1 POP JUMP JUMPDEST PUSH1 0x0 PUSH2 0x2BE6 PUSH1 0x28 DUP4 PUSH2 0x31D0 JUMP JUMPDEST SWAP2 POP PUSH2 0x2BF1 DUP3 PUSH2 0x3B36 JUMP JUMPDEST PUSH1 0x40 DUP3 ADD SWAP1 POP SWAP2 SWAP1 POP JUMP JUMPDEST PUSH1 0x0 PUSH2 0x2C09 PUSH1 0x21 DUP4 PUSH2 0x31D0 JUMP JUMPDEST SWAP2 POP PUSH2 0x2C14 DUP3 PUSH2 0x3B85 JUMP JUMPDEST PUSH1 0x40 DUP3 ADD SWAP1 POP SWAP2 SWAP1 POP JUMP JUMPDEST PUSH2 0x2C28 DUP2 PUSH2 0x3477 JUMP JUMPDEST DUP3 MSTORE POP POP JUMP JUMPDEST PUSH2 0x2C37 DUP2 PUSH2 0x3477 JUMP JUMPDEST DUP3 MSTORE POP POP JUMP JUMPDEST PUSH1 0x0 PUSH2 0x2C49 DUP3 DUP5 PUSH2 0x299B JUMP JUMPDEST SWAP2 POP DUP2 SWAP1 POP SWAP3 SWAP2 POP POP JUMP JUMPDEST PUSH1 0x0 PUSH1 0x20 DUP3 ADD SWAP1 POP PUSH2 0x2C69 PUSH1 0x0 DUP4 ADD DUP5 PUSH2 0x289E JUMP JUMPDEST SWAP3 SWAP2 POP POP JUMP JUMPDEST PUSH1 0x0 PUSH1 0xA0 DUP3 ADD SWAP1 POP PUSH2 0x2C84 PUSH1 0x0 DUP4 ADD DUP9 PUSH2 0x289E JUMP JUMPDEST PUSH2 0x2C91 PUSH1 0x20 DUP4 ADD DUP8 PUSH2 0x289E JUMP JUMPDEST DUP2 DUP2 SUB PUSH1 0x40 DUP4 ADD MSTORE PUSH2 0x2CA3 DUP2 DUP7 PUSH2 0x28AD JUMP JUMPDEST SWAP1 POP DUP2 DUP2 SUB PUSH1 0x60 DUP4 ADD MSTORE PUSH2 0x2CB7 DUP2 DUP6 PUSH2 0x28AD JUMP JUMPDEST SWAP1 POP DUP2 DUP2 SUB PUSH1 0x80 DUP4 ADD MSTORE PUSH2 0x2CCB DUP2 DUP5 PUSH2 0x291A JUMP JUMPDEST SWAP1 POP SWAP7 SWAP6 POP POP POP POP POP POP JUMP JUMPDEST PUSH1 0x0 PUSH1 0xA0 DUP3 ADD SWAP1 POP PUSH2 0x2CEC PUSH1 0x0 DUP4 ADD DUP9 PUSH2 0x289E JUMP JUMPDEST PUSH2 0x2CF9 PUSH1 0x20 DUP4 ADD DUP8 PUSH2 0x289E JUMP JUMPDEST PUSH2 0x2D06 PUSH1 0x40 DUP4 ADD DUP7 PUSH2 0x2C2E JUMP JUMPDEST PUSH2 0x2D13 PUSH1 0x60 DUP4 ADD DUP6 PUSH2 0x2C2E JUMP JUMPDEST DUP2 DUP2 SUB PUSH1 0x80 DUP4 ADD MSTORE PUSH2 0x2D25 DUP2 DUP5 PUSH2 0x291A JUMP JUMPDEST SWAP1 POP SWAP7 SWAP6 POP POP POP POP POP POP JUMP JUMPDEST PUSH1 0x0 PUSH1 0x40 DUP3 ADD SWAP1 POP PUSH2 0x2D46 PUSH1 0x0 DUP4 ADD DUP6 PUSH2 0x289E JUMP JUMPDEST PUSH2 0x2D53 PUSH1 0x20 DUP4 ADD DUP5 PUSH2 0x2C2E JUMP JUMPDEST SWAP4 SWAP3 POP POP POP JUMP JUMPDEST PUSH1 0x0 PUSH1 0x20 DUP3 ADD SWAP1 POP DUP2 DUP2 SUB PUSH1 0x0 DUP4 ADD MSTORE PUSH2 0x2D74 DUP2 DUP5 PUSH2 0x28AD JUMP JUMPDEST SWAP1 POP SWAP3 SWAP2 POP POP JUMP JUMPDEST PUSH1 0x0 PUSH1 0x40 DUP3 ADD SWAP1 POP DUP2 DUP2 SUB PUSH1 0x0 DUP4 ADD MSTORE PUSH2 0x2D96 DUP2 DUP6 PUSH2 0x28AD JUMP JUMPDEST SWAP1 POP DUP2 DUP2 SUB PUSH1 0x20 DUP4 ADD MSTORE PUSH2 0x2DAA DUP2 DUP5 PUSH2 0x28AD JUMP JUMPDEST SWAP1 POP SWAP4 SWAP3 POP POP POP JUMP JUMPDEST PUSH1 0x0 PUSH1 0x20 DUP3 ADD SWAP1 POP PUSH2 0x2DC8 PUSH1 0x0 DUP4 ADD DUP5 PUSH2 0x290B JUMP JUMPDEST SWAP3 SWAP2 POP POP JUMP JUMPDEST PUSH1 0x0 PUSH1 0x20 DUP3 ADD SWAP1 POP DUP2 DUP2 SUB PUSH1 0x0 DUP4 ADD MSTORE PUSH2 0x2DE8 DUP2 DUP5 PUSH2 0x2962 JUMP JUMPDEST SWAP1 POP SWAP3 SWAP2 POP POP JUMP JUMPDEST PUSH1 0x0 PUSH1 0x20 DUP3 ADD SWAP1 POP DUP2 DUP2 SUB PUSH1 0x0 DUP4 ADD MSTORE PUSH2 0x2E09 DUP2 PUSH2 0x29CC JUMP JUMPDEST SWAP1 POP SWAP2 SWAP1 POP JUMP JUMPDEST PUSH1 0x0 PUSH1 0x20 DUP3 ADD SWAP1 POP DUP2 DUP2 SUB PUSH1 0x0 DUP4 ADD MSTORE PUSH2 0x2E29 DUP2 PUSH2 0x29EF JUMP JUMPDEST SWAP1 POP SWAP2 SWAP1 POP JUMP JUMPDEST PUSH1 0x0 PUSH1 0x20 DUP3 ADD SWAP1 POP DUP2 DUP2 SUB PUSH1 0x0 DUP4 ADD MSTORE PUSH2 0x2E49 DUP2 PUSH2 0x2A12 JUMP JUMPDEST SWAP1 POP SWAP2 SWAP1 POP JUMP JUMPDEST PUSH1 0x0 PUSH1 0x20 DUP3 ADD SWAP1 POP DUP2 DUP2 SUB PUSH1 0x0 DUP4 ADD MSTORE PUSH2 0x2E69 DUP2 PUSH2 0x2A35 JUMP JUMPDEST SWAP1 POP SWAP2 SWAP1 POP JUMP JUMPDEST PUSH1 0x0 PUSH1 0x20 DUP3 ADD SWAP1 POP DUP2 DUP2 SUB PUSH1 0x0 DUP4 ADD MSTORE PUSH2 0x2E89 DUP2 PUSH2 0x2A58 JUMP JUMPDEST SWAP1 POP SWAP2 SWAP1 POP JUMP JUMPDEST PUSH1 0x0 PUSH1 0x20 DUP3 ADD SWAP1 POP DUP2 DUP2 SUB PUSH1 0x0 DUP4 ADD MSTORE PUSH2 0x2EA9 DUP2 PUSH2 0x2A7B JUMP JUMPDEST SWAP1 POP SWAP2 SWAP1 POP JUMP JUMPDEST PUSH1 0x0 PUSH1 0x20 DUP3 ADD SWAP1 POP DUP2 DUP2 SUB PUSH1 0x0 DUP4 ADD MSTORE PUSH2 0x2EC9 DUP2 PUSH2 0x2A9E JUMP JUMPDEST SWAP1 POP SWAP2 SWAP1 POP JUMP JUMPDEST PUSH1 0x0 PUSH1 0x20 DUP3 ADD SWAP1 POP DUP2 DUP2 SUB PUSH1 0x0 DUP4 ADD MSTORE PUSH2 0x2EE9 DUP2 PUSH2 0x2AC1 JUMP JUMPDEST SWAP1 POP SWAP2 SWAP1 POP JUMP JUMPDEST PUSH1 0x0 PUSH1 0x20 DUP3 ADD SWAP1 POP DUP2 DUP2 SUB PUSH1 0x0 DUP4 ADD MSTORE PUSH2 0x2F09 DUP2 PUSH2 0x2AE4 JUMP JUMPDEST SWAP1 POP SWAP2 SWAP1 POP JUMP JUMPDEST PUSH1 0x0 PUSH1 0x20 DUP3 ADD SWAP1 POP DUP2 DUP2 SUB PUSH1 0x0 DUP4 ADD MSTORE PUSH2 0x2F29 DUP2 PUSH2 0x2B07 JUMP JUMPDEST SWAP1 POP SWAP2 SWAP1 POP JUMP JUMPDEST PUSH1 0x0 PUSH1 0x20 DUP3 ADD SWAP1 POP DUP2 DUP2 SUB PUSH1 0x0 DUP4 ADD MSTORE PUSH2 0x2F49 DUP2 PUSH2 0x2B2A JUMP JUMPDEST SWAP1 POP SWAP2 SWAP1 POP JUMP JUMPDEST PUSH1 0x0 PUSH1 0x20 DUP3 ADD SWAP1 POP DUP2 DUP2 SUB PUSH1 0x0 DUP4 ADD MSTORE PUSH2 0x2F69 DUP2 PUSH2 0x2B4D JUMP JUMPDEST SWAP1 POP SWAP2 SWAP1 POP JUMP JUMPDEST PUSH1 0x0 PUSH1 0x20 DUP3 ADD SWAP1 POP DUP2 DUP2 SUB PUSH1 0x0 DUP4 ADD MSTORE PUSH2 0x2F89 DUP2 PUSH2 0x2B70 JUMP JUMPDEST SWAP1 POP SWAP2 SWAP1 POP JUMP JUMPDEST PUSH1 0x0 PUSH1 0x20 DUP3 ADD SWAP1 POP DUP2 DUP2 SUB PUSH1 0x0 DUP4 ADD MSTORE PUSH2 0x2FA9 DUP2 PUSH2 0x2B93 JUMP JUMPDEST SWAP1 POP SWAP2 SWAP1 POP JUMP JUMPDEST PUSH1 0x0 PUSH1 0x20 DUP3 ADD SWAP1 POP DUP2 DUP2 SUB PUSH1 0x0 DUP4 ADD MSTORE PUSH2 0x2FC9 DUP2 PUSH2 0x2BB6 JUMP JUMPDEST SWAP1 POP SWAP2 SWAP1 POP JUMP JUMPDEST PUSH1 0x0 PUSH1 0x20 DUP3 ADD SWAP1 POP DUP2 DUP2 SUB PUSH1 0x0 DUP4 ADD MSTORE PUSH2 0x2FE9 DUP2 PUSH2 0x2BD9 JUMP JUMPDEST SWAP1 POP SWAP2 SWAP1 POP JUMP JUMPDEST PUSH1 0x0 PUSH1 0x20 DUP3 ADD SWAP1 POP DUP2 DUP2 SUB PUSH1 0x0 DUP4 ADD MSTORE PUSH2 0x3009 DUP2 PUSH2 0x2BFC JUMP JUMPDEST SWAP1 POP SWAP2 SWAP1 POP JUMP JUMPDEST PUSH1 0x0 PUSH1 0x20 DUP3 ADD SWAP1 POP PUSH2 0x3025 PUSH1 0x0 DUP4 ADD DUP5 PUSH2 0x2C2E JUMP JUMPDEST SWAP3 SWAP2 POP POP JUMP JUMPDEST PUSH1 0x0 PUSH1 0x60 DUP3 ADD SWAP1 POP PUSH2 0x3040 PUSH1 0x0 DUP4 ADD DUP7 PUSH2 0x2C2E JUMP JUMPDEST PUSH2 0x304D PUSH1 0x20 DUP4 ADD DUP6 PUSH2 0x2953 JUMP JUMPDEST PUSH2 0x305A PUSH1 0x40 DUP4 ADD DUP5 PUSH2 0x2C2E JUMP JUMPDEST SWAP5 SWAP4 POP POP POP POP JUMP JUMPDEST PUSH1 0x0 PUSH1 0x40 DUP3 ADD SWAP1 POP PUSH2 0x3077 PUSH1 0x0 DUP4 ADD DUP6 PUSH2 0x2C2E JUMP JUMPDEST PUSH2 0x3084 PUSH1 0x20 DUP4 ADD DUP5 PUSH2 0x2C2E JUMP JUMPDEST SWAP4 SWAP3 POP POP POP JUMP JUMPDEST PUSH1 0x0 PUSH1 0x60 DUP3 ADD SWAP1 POP PUSH2 0x30A0 PUSH1 0x0 DUP4 ADD DUP7 PUSH2 0x2C2E JUMP JUMPDEST PUSH2 0x30AD PUSH1 0x20 DUP4 ADD DUP6 PUSH2 0x2C2E JUMP JUMPDEST PUSH2 0x30BA PUSH1 0x40 DUP4 ADD DUP5 PUSH2 0x2C2E JUMP JUMPDEST SWAP5 SWAP4 POP POP POP POP JUMP JUMPDEST PUSH1 0x0 PUSH2 0x30CC PUSH2 0x30DD JUMP JUMPDEST SWAP1 POP PUSH2 0x30D8 DUP3 DUP3 PUSH2 0x3531 JUMP JUMPDEST SWAP2 SWAP1 POP JUMP JUMPDEST PUSH1 0x0 PUSH1 0x40 MLOAD SWAP1 POP SWAP1 JUMP JUMPDEST PUSH1 0x0 PUSH8 0xFFFFFFFFFFFFFFFF DUP3 GT ISZERO PUSH2 0x3102 JUMPI PUSH2 0x3101 PUSH2 0x3698 JUMP JUMPDEST JUMPDEST PUSH1 0x20 DUP3 MUL SWAP1 POP PUSH1 0x20 DUP2 ADD SWAP1 POP SWAP2 SWAP1 POP JUMP JUMPDEST PUSH1 0x0 PUSH8 0xFFFFFFFFFFFFFFFF DUP3 GT ISZERO PUSH2 0x312E JUMPI PUSH2 0x312D PUSH2 0x3698 JUMP JUMPDEST JUMPDEST PUSH1 0x20 DUP3 MUL SWAP1 POP PUSH1 0x20 DUP2 ADD SWAP1 POP SWAP2 SWAP1 POP JUMP JUMPDEST PUSH1 0x0 PUSH8 0xFFFFFFFFFFFFFFFF DUP3 GT ISZERO PUSH2 0x315A JUMPI PUSH2 0x3159 PUSH2 0x3698 JUMP JUMPDEST JUMPDEST PUSH2 0x3163 DUP3 PUSH2 0x3702 JUMP JUMPDEST SWAP1 POP PUSH1 0x20 DUP2 ADD SWAP1 POP SWAP2 SWAP1 POP JUMP JUMPDEST PUSH1 0x0 DUP2 SWAP1 POP PUSH1 0x20 DUP3 ADD SWAP1 POP SWAP2 SWAP1 POP JUMP JUMPDEST PUSH1 0x0 DUP2 MLOAD SWAP1 POP SWAP2 SWAP1 POP JUMP JUMPDEST PUSH1 0x0 DUP2 MLOAD SWAP1 POP SWAP2 SWAP1 POP JUMP JUMPDEST PUSH1 0x0 DUP2 MLOAD SWAP1 POP SWAP2 SWAP1 POP JUMP JUMPDEST PUSH1 0x0 PUSH1 0x20 DUP3 ADD SWAP1 POP SWAP2 SWAP1 POP JUMP JUMPDEST PUSH1 0x0 DUP3 DUP3 MSTORE PUSH1 0x20 DUP3 ADD SWAP1 POP SWAP3 SWAP2 POP POP JUMP JUMPDEST PUSH1 0x0 DUP3 DUP3 MSTORE PUSH1 0x20 DUP3 ADD SWAP1 POP SWAP3 SWAP2 POP POP JUMP JUMPDEST PUSH1 0x0 DUP3 DUP3 MSTORE PUSH1 0x20 DUP3 ADD SWAP1 POP SWAP3 SWAP2 POP POP JUMP JUMPDEST PUSH1 0x0 DUP2 SWAP1 POP SWAP3 SWAP2 POP POP JUMP JUMPDEST PUSH1 0x0 PUSH2 0x31F7 DUP3 PUSH2 0x3477 JUMP JUMPDEST SWAP2 POP PUSH2 0x3202 DUP4 PUSH2 0x3477 JUMP JUMPDEST SWAP3 POP DUP3 PUSH32 0xFFFFFFFFFFFFFFFFFFFFFFFFFFFFFFFFFFFFFFFFFFFFFFFFFFFFFFFFFFFFFFFF SUB DUP3 GT ISZERO PUSH2 0x3237 JUMPI PUSH2 0x3236 PUSH2 0x35DC JUMP JUMPDEST JUMPDEST DUP3 DUP3 ADD SWAP1 POP SWAP3 SWAP2 POP POP JUMP JUMPDEST PUSH1 0x0 DUP1 DUP3 SWAP2 POP DUP4 SWAP1 POP JUMPDEST PUSH1 0x1 DUP6 GT ISZERO PUSH2 0x328C JUMPI DUP1 DUP7 DIV DUP2 GT ISZERO PUSH2 0x3268 JUMPI PUSH2 0x3267 PUSH2 0x35DC JUMP JUMPDEST JUMPDEST PUSH1 0x1 DUP6 AND ISZERO PUSH2 0x3277 JUMPI DUP1 DUP3 MUL SWAP2 POP JUMPDEST DUP1 DUP2 MUL SWAP1 POP PUSH2 0x3285 DUP6 PUSH2 0x3713 JUMP JUMPDEST SWAP5 POP PUSH2 0x324C JUMP JUMPDEST SWAP5 POP SWAP5 SWAP3 POP POP POP JUMP JUMPDEST PUSH1 0x0 PUSH2 0x32A0 DUP3 PUSH2 0x3477 JUMP JUMPDEST SWAP2 POP PUSH2 0x32AB DUP4 PUSH2 0x3477 JUMP JUMPDEST SWAP3 POP PUSH2 0x32D8 PUSH32 0xFFFFFFFFFFFFFFFFFFFFFFFFFFFFFFFFFFFFFFFFFFFFFFFFFFFFFFFFFFFFFFFF DUP5 DUP5 PUSH2 0x32E0 JUMP JUMPDEST SWAP1 POP SWAP3 SWAP2 POP POP JUMP JUMPDEST PUSH1 0x0 DUP3 PUSH2 0x32F0 JUMPI PUSH1 0x1 SWAP1 POP PUSH2 0x33AC JUMP JUMPDEST DUP2 PUSH2 0x32FE JUMPI PUSH1 0x0 SWAP1 POP PUSH2 0x33AC JUMP JUMPDEST DUP2 PUSH1 0x1 DUP2 EQ PUSH2 0x3314 JUMPI PUSH1 0x2 DUP2 EQ PUSH2 0x331E JUMPI PUSH2 0x334D JUMP JUMPDEST PUSH1 0x1 SWAP2 POP POP PUSH2 0x33AC JUMP JUMPDEST PUSH1 0xFF DUP5 GT ISZERO PUSH2 0x3330 JUMPI PUSH2 0x332F PUSH2 0x35DC JUMP JUMPDEST JUMPDEST DUP4 PUSH1 0x2 EXP SWAP2 POP DUP5 DUP3 GT ISZERO PUSH2 0x3347 JUMPI PUSH2 0x3346 PUSH2 0x35DC JUMP JUMPDEST JUMPDEST POP PUSH2 0x33AC JUMP JUMPDEST POP PUSH1 0x20 DUP4 LT PUSH2 0x133 DUP4 LT AND PUSH1 0x4E DUP5 LT PUSH1 0xB DUP5 LT AND OR ISZERO PUSH2 0x3382 JUMPI DUP3 DUP3 EXP SWAP1 POP DUP4 DUP2 GT ISZERO PUSH2 0x337D JUMPI PUSH2 0x337C PUSH2 0x35DC JUMP JUMPDEST JUMPDEST PUSH2 0x33AC JUMP JUMPDEST PUSH2 0x338F DUP5 DUP5 DUP5 PUSH1 0x1 PUSH2 0x3242 JUMP JUMPDEST SWAP3 POP SWAP1 POP DUP2 DUP5 DIV DUP2 GT ISZERO PUSH2 0x33A6 JUMPI PUSH2 0x33A5 PUSH2 0x35DC JUMP JUMPDEST JUMPDEST DUP2 DUP2 MUL SWAP1 POP JUMPDEST SWAP4 SWAP3 POP POP POP JUMP JUMPDEST PUSH1 0x0 PUSH2 0x33BE DUP3 PUSH2 0x3477 JUMP JUMPDEST SWAP2 POP PUSH2 0x33C9 DUP4 PUSH2 0x3477 JUMP JUMPDEST SWAP3 POP DUP2 PUSH32 0xFFFFFFFFFFFFFFFFFFFFFFFFFFFFFFFFFFFFFFFFFFFFFFFFFFFFFFFFFFFFFFFF DIV DUP4 GT DUP3 ISZERO ISZERO AND ISZERO PUSH2 0x3402 JUMPI PUSH2 0x3401 PUSH2 0x35DC JUMP JUMPDEST JUMPDEST DUP3 DUP3 MUL SWAP1 POP SWAP3 SWAP2 POP POP JUMP JUMPDEST PUSH1 0x0 PUSH2 0x3418 DUP3 PUSH2 0x3457 JUMP JUMPDEST SWAP1 POP SWAP2 SWAP1 POP JUMP JUMPDEST PUSH1 0x0 DUP2 ISZERO ISZERO SWAP1 POP SWAP2 SWAP1 POP JUMP JUMPDEST PUSH1 0x0 PUSH32 0xFFFFFFFF00000000000000000000000000000000000000000000000000000000 DUP3 AND SWAP1 POP SWAP2 SWAP1 POP JUMP JUMPDEST PUSH1 0x0 PUSH20 0xFFFFFFFFFFFFFFFFFFFFFFFFFFFFFFFFFFFFFFFF DUP3 AND SWAP1 POP SWAP2 SWAP1 POP JUMP JUMPDEST PUSH1 0x0 DUP2 SWAP1 POP SWAP2 SWAP1 POP JUMP JUMPDEST PUSH1 0x0 PUSH2 0x348C DUP3 PUSH2 0x3477 JUMP JUMPDEST SWAP1 POP SWAP2 SWAP1 POP JUMP JUMPDEST DUP3 DUP2 DUP4 CALLDATACOPY PUSH1 0x0 DUP4 DUP4 ADD MSTORE POP POP POP JUMP JUMPDEST PUSH1 0x0 JUMPDEST DUP4 DUP2 LT ISZERO PUSH2 0x34C0 JUMPI DUP1 DUP3 ADD MLOAD DUP2 DUP5 ADD MSTORE PUSH1 0x20 DUP2 ADD SWAP1 POP PUSH2 0x34A5 JUMP JUMPDEST DUP4 DUP2 GT ISZERO PUSH2 0x34CF JUMPI PUSH1 0x0 DUP5 DUP5 ADD MSTORE JUMPDEST POP POP POP POP JUMP JUMPDEST PUSH1 0x0 PUSH2 0x34E0 DUP3 PUSH2 0x3477 JUMP JUMPDEST SWAP2 POP PUSH1 0x0 DUP3 EQ ISZERO PUSH2 0x34F4 JUMPI PUSH2 0x34F3 PUSH2 0x35DC JUMP JUMPDEST JUMPDEST PUSH1 0x1 DUP3 SUB SWAP1 POP SWAP2 SWAP1 POP JUMP JUMPDEST PUSH1 0x0 PUSH1 0x2 DUP3 DIV SWAP1 POP PUSH1 0x1 DUP3 AND DUP1 PUSH2 0x3517 JUMPI PUSH1 0x7F DUP3 AND SWAP2 POP JUMPDEST PUSH1 0x20 DUP3 LT DUP2 EQ ISZERO PUSH2 0x352B JUMPI PUSH2 0x352A PUSH2 0x363A JUMP JUMPDEST JUMPDEST POP SWAP2 SWAP1 POP JUMP JUMPDEST PUSH2 0x353A DUP3 PUSH2 0x3702 JUMP JUMPDEST DUP2 ADD DUP2 DUP2 LT PUSH8 0xFFFFFFFFFFFFFFFF DUP3 GT OR ISZERO PUSH2 0x3559 JUMPI PUSH2 0x3558 PUSH2 0x3698 JUMP JUMPDEST JUMPDEST DUP1 PUSH1 0x40 MSTORE POP POP POP JUMP JUMPDEST PUSH1 0x0 PUSH2 0x356D DUP3 PUSH2 0x3477 JUMP JUMPDEST SWAP2 POP PUSH32 0xFFFFFFFFFFFFFFFFFFFFFFFFFFFFFFFFFFFFFFFFFFFFFFFFFFFFFFFFFFFFFFFF DUP3 EQ ISZERO PUSH2 0x35A0 JUMPI PUSH2 0x359F PUSH2 0x35DC JUMP JUMPDEST JUMPDEST PUSH1 0x1 DUP3 ADD SWAP1 POP SWAP2 SWAP1 POP JUMP JUMPDEST PUSH1 0x0 PUSH2 0x35B6 DUP3 PUSH2 0x3477 JUMP JUMPDEST SWAP2 POP PUSH2 0x35C1 DUP4 PUSH2 0x3477 JUMP JUMPDEST SWAP3 POP DUP3 PUSH2 0x35D1 JUMPI PUSH2 0x35D0 PUSH2 0x360B JUMP JUMPDEST JUMPDEST DUP3 DUP3 MOD SWAP1 POP SWAP3 SWAP2 POP POP JUMP JUMPDEST PUSH32 0x4E487B7100000000000000000000000000000000000000000000000000000000 PUSH1 0x0 MSTORE PUSH1 0x11 PUSH1 0x4 MSTORE PUSH1 0x24 PUSH1 0x0 REVERT JUMPDEST PUSH32 0x4E487B7100000000000000000000000000000000000000000000000000000000 PUSH1 0x0 MSTORE PUSH1 0x12 PUSH1 0x4 MSTORE PUSH1 0x24 PUSH1 0x0 REVERT JUMPDEST PUSH32 0x4E487B7100000000000000000000000000000000000000000000000000000000 PUSH1 0x0 MSTORE PUSH1 0x22 PUSH1 0x4 MSTORE PUSH1 0x24 PUSH1 0x0 REVERT JUMPDEST PUSH32 0x4E487B7100000000000000000000000000000000000000000000000000000000 PUSH1 0x0 MSTORE PUSH1 0x32 PUSH1 0x4 MSTORE PUSH1 0x24 PUSH1 0x0 REVERT JUMPDEST PUSH32 0x4E487B7100000000000000000000000000000000000000000000000000000000 PUSH1 0x0 MSTORE PUSH1 0x41 PUSH1 0x4 MSTORE PUSH1 0x24 PUSH1 0x0 REVERT JUMPDEST PUSH1 0x0 PUSH1 0x3 RETURNDATASIZE GT ISZERO PUSH2 0x36E6 JUMPI PUSH1 0x4 PUSH1 0x0 DUP1 RETURNDATACOPY PUSH2 0x36E3 PUSH1 0x0 MLOAD PUSH2 0x3720 JUMP JUMPDEST SWAP1 POP JUMPDEST SWAP1 JUMP JUMPDEST PUSH1 0x0 DUP1 REVERT JUMPDEST PUSH1 0x0 DUP1 REVERT JUMPDEST PUSH1 0x0 DUP1 REVERT JUMPDEST PUSH1 0x0 DUP1 REVERT JUMPDEST PUSH1 0x0 DUP1 REVERT JUMPDEST PUSH1 0x0 PUSH1 0x1F NOT PUSH1 0x1F DUP4 ADD AND SWAP1 POP SWAP2 SWAP1 POP JUMP JUMPDEST PUSH1 0x0 DUP2 PUSH1 0x1 SHR SWAP1 POP SWAP2 SWAP1 POP JUMP JUMPDEST PUSH1 0x0 DUP2 PUSH1 0xE0 SHR SWAP1 POP SWAP2 SWAP1 POP JUMP JUMPDEST PUSH32 0x455243313135353A207472616E7366657220746F206E6F6E2045524331313535 PUSH1 0x0 DUP3 ADD MSTORE PUSH32 0x526563656976657220696D706C656D656E746572000000000000000000000000 PUSH1 0x20 DUP3 ADD MSTORE POP JUMP JUMPDEST PUSH32 0x455243313135353A2063616C6C6572206973206E6F7420746F6B656E206F776E PUSH1 0x0 DUP3 ADD MSTORE PUSH32 0x6572206E6F7220617070726F7665640000000000000000000000000000000000 PUSH1 0x20 DUP3 ADD MSTORE POP JUMP JUMPDEST PUSH32 0x537472696E67733A20686578206C656E67746820696E73756666696369656E74 PUSH1 0x0 DUP3 ADD MSTORE POP JUMP JUMPDEST PUSH32 0x455243313135353A204552433131353552656365697665722072656A65637465 PUSH1 0x0 DUP3 ADD MSTORE PUSH32 0x6420746F6B656E73000000000000000000000000000000000000000000000000 PUSH1 0x20 DUP3 ADD MSTORE POP JUMP JUMPDEST PUSH32 0x4F776E61626C653A206E6577206F776E657220697320746865207A65726F2061 PUSH1 0x0 DUP3 ADD MSTORE PUSH32 0x6464726573730000000000000000000000000000000000000000000000000000 PUSH1 0x20 DUP3 ADD MSTORE POP JUMP JUMPDEST PUSH32 0x455243313135353A206275726E20616D6F756E7420657863656564732062616C PUSH1 0x0 DUP3 ADD MSTORE PUSH32 0x616E636500000000000000000000000000000000000000000000000000000000 PUSH1 0x20 DUP3 ADD MSTORE POP JUMP JUMPDEST PUSH32 0x455243313135353A2061646472657373207A65726F206973206E6F7420612076 PUSH1 0x0 DUP3 ADD MSTORE PUSH32 0x616C6964206F776E657200000000000000000000000000000000000000000000 PUSH1 0x20 DUP3 ADD MSTORE POP JUMP JUMPDEST PUSH32 0x455243313135353A207472616E7366657220746F20746865207A65726F206164 PUSH1 0x0 DUP3 ADD MSTORE PUSH32 0x6472657373000000000000000000000000000000000000000000000000000000 PUSH1 0x20 DUP3 ADD MSTORE POP JUMP JUMPDEST PUSH32 0x455243313135353A206275726E2066726F6D20746865207A65726F2061646472 PUSH1 0x0 DUP3 ADD MSTORE PUSH32 0x6573730000000000000000000000000000000000000000000000000000000000 PUSH1 0x20 DUP3 ADD MSTORE POP JUMP JUMPDEST PUSH32 0x455243313135353A20696E73756666696369656E742062616C616E636520666F PUSH1 0x0 DUP3 ADD MSTORE PUSH32 0x72207472616E7366657200000000000000000000000000000000000000000000 PUSH1 0x20 DUP3 ADD MSTORE POP JUMP JUMPDEST PUSH32 0x4F776E61626C653A2063616C6C6572206973206E6F7420746865206F776E6572 PUSH1 0x0 DUP3 ADD MSTORE POP JUMP JUMPDEST PUSH32 0x6D757374206265206F776E6572206F6620746F6B656E00000000000000000000 PUSH1 0x0 DUP3 ADD MSTORE POP JUMP JUMPDEST PUSH32 0x746F6B656E2063616E74206265207472616E7366657272656400000000000000 PUSH1 0x0 DUP3 ADD MSTORE POP JUMP JUMPDEST PUSH32 0x455243313135353A2073657474696E6720617070726F76616C20737461747573 PUSH1 0x0 DUP3 ADD MSTORE PUSH32 0x20666F722073656C660000000000000000000000000000000000000000000000 PUSH1 0x20 DUP3 ADD MSTORE POP JUMP JUMPDEST PUSH32 0x455243313135353A206163636F756E747320616E6420696473206C656E677468 PUSH1 0x0 DUP3 ADD MSTORE PUSH32 0x206D69736D617463680000000000000000000000000000000000000000000000 PUSH1 0x20 DUP3 ADD MSTORE POP JUMP JUMPDEST PUSH32 0x455243313135353A2069647320616E6420616D6F756E7473206C656E67746820 PUSH1 0x0 DUP3 ADD MSTORE PUSH32 0x6D69736D61746368000000000000000000000000000000000000000000000000 PUSH1 0x20 DUP3 ADD MSTORE POP JUMP JUMPDEST PUSH32 0x455243313135353A206D696E7420746F20746865207A65726F20616464726573 PUSH1 0x0 DUP3 ADD MSTORE PUSH32 0x7300000000000000000000000000000000000000000000000000000000000000 PUSH1 0x20 DUP3 ADD MSTORE POP JUMP JUMPDEST PUSH1 0x0 PUSH1 0x44 RETURNDATASIZE LT ISZERO PUSH2 0x3BE4 JUMPI PUSH2 0x3C67 JUMP JUMPDEST PUSH2 0x3BEC PUSH2 0x30DD JUMP JUMPDEST PUSH1 0x4 RETURNDATASIZE SUB PUSH1 0x4 DUP3 RETURNDATACOPY DUP1 MLOAD RETURNDATASIZE PUSH1 0x24 DUP3 ADD GT PUSH8 0xFFFFFFFFFFFFFFFF DUP3 GT OR ISZERO PUSH2 0x3C14 JUMPI POP POP PUSH2 0x3C67 JUMP JUMPDEST DUP1 DUP3 ADD DUP1 MLOAD PUSH8 0xFFFFFFFFFFFFFFFF DUP2 GT ISZERO PUSH2 0x3C32 JUMPI POP POP POP POP PUSH2 0x3C67 JUMP JUMPDEST DUP1 PUSH1 0x20 DUP4 ADD ADD PUSH1 0x4 RETURNDATASIZE SUB DUP6 ADD DUP2 GT ISZERO PUSH2 0x3C4F JUMPI POP POP POP POP POP PUSH2 0x3C67 JUMP JUMPDEST PUSH2 0x3C5E DUP3 PUSH1 0x20 ADD DUP6 ADD DUP7 PUSH2 0x3531 JUMP JUMPDEST DUP3 SWAP6 POP POP POP POP POP POP JUMPDEST SWAP1 JUMP JUMPDEST PUSH2 0x3C73 DUP2 PUSH2 0x340D JUMP JUMPDEST DUP2 EQ PUSH2 0x3C7E JUMPI PUSH1 0x0 DUP1 REVERT JUMPDEST POP JUMP JUMPDEST PUSH2 0x3C8A DUP2 PUSH2 0x341F JUMP JUMPDEST DUP2 EQ PUSH2 0x3C95 JUMPI PUSH1 0x0 DUP1 REVERT JUMPDEST POP JUMP JUMPDEST PUSH2 0x3CA1 DUP2 PUSH2 0x342B JUMP JUMPDEST DUP2 EQ PUSH2 0x3CAC JUMPI PUSH1 0x0 DUP1 REVERT JUMPDEST POP JUMP JUMPDEST PUSH2 0x3CB8 DUP2 PUSH2 0x3477 JUMP JUMPDEST DUP2 EQ PUSH2 0x3CC3 JUMPI PUSH1 0x0 DUP1 REVERT JUMPDEST POP JUMP INVALID LOG2 PUSH5 0x6970667358 0x22 SLT KECCAK256 RETURN CALLVALUE 0x23 SWAP4 GASLIMIT 0xAB 0xA6 0xB9 PUSH7 0xD9B02384624B50 BLOCKHASH LOG1 SWAP8 0xBD 0xD9 PUSH32 0xC84232CB75C25CD7FA6264736F6C634300080700330000000000000000000000 "
		},
		"gasEstimates": {
			"creation": {
				"codeDepositCost": "3122400",
				"executionCost": "infinite",
				"totalCost": "infinite"
			},
			"external": {
				"balanceOf(address,uint256)": "infinite",
				"balanceOfBatch(address[],uint256[])": "infinite",
				"burn(uint256,uint256)": "infinite",
				"exists(uint256)": "2885",
				"isApprovedForAll(address,address)": "infinite",
				"name()": "infinite",
				"owner()": "2567",
				"renounceOwnership()": "30421",
				"safeBatchTransferFrom(address,address,uint256[],uint256[],bytes)": "infinite",
				"safeTransferFrom(address,address,uint256,uint256,bytes)": "infinite",
				"senderMint()": "infinite",
				"setApprovalForAll(address,bool)": "infinite",
				"setReceiverContractAddress(address)": "27052",
				"supportsInterface(bytes4)": "819",
				"symbol()": "infinite",
				"transferOwnership(address)": "30857",
				"uri(uint256)": "infinite"
			},
			"internal": {
				"_beforeTokenTransfer(address,address,address,uint256[] memory,uint256[] memory,bytes memory)": "infinite",
				"_getTokenId(string memory)": "infinite"
			}
		},
		"methodIdentifiers": {
			"balanceOf(address,uint256)": "00fdd58e",
			"balanceOfBatch(address[],uint256[])": "4e1273f4",
			"burn(uint256,uint256)": "b390c0ab",
			"exists(uint256)": "4f558e79",
			"isApprovedForAll(address,address)": "e985e9c5",
			"name()": "06fdde03",
			"owner()": "8da5cb5b",
			"renounceOwnership()": "715018a6",
			"safeBatchTransferFrom(address,address,uint256[],uint256[],bytes)": "2eb2c2d6",
			"safeTransferFrom(address,address,uint256,uint256,bytes)": "f242432a",
			"senderMint()": "38491a9c",
			"setApprovalForAll(address,bool)": "a22cb465",
			"setReceiverContractAddress(address)": "f23c51cd",
			"supportsInterface(bytes4)": "01ffc9a7",
			"symbol()": "95d89b41",
			"transferOwnership(address)": "f2fde38b",
			"uri(uint256)": "0e89341c"
		}
	},
	"abi": [
		{
			"inputs": [
				{
					"internalType": "string",
					"name": "_name",
					"type": "string"
				},
				{
					"internalType": "string",
					"name": "_symbol",
					"type": "string"
				},
				{
					"internalType": "string",
					"name": "_uri",
					"type": "string"
				}
			],
			"stateMutability": "nonpayable",
			"type": "constructor"
		},
		{
			"anonymous": false,
			"inputs": [
				{
					"indexed": true,
					"internalType": "address",
					"name": "account",
					"type": "address"
				},
				{
					"indexed": true,
					"internalType": "address",
					"name": "operator",
					"type": "address"
				},
				{
					"indexed": false,
					"internalType": "bool",
					"name": "approved",
					"type": "bool"
				}
			],
			"name": "ApprovalForAll",
			"type": "event"
		},
		{
			"anonymous": false,
			"inputs": [
				{
					"indexed": true,
					"internalType": "address",
					"name": "previousOwner",
					"type": "address"
				},
				{
					"indexed": true,
					"internalType": "address",
					"name": "newOwner",
					"type": "address"
				}
			],
			"name": "OwnershipTransferred",
			"type": "event"
		},
		{
			"anonymous": false,
			"inputs": [
				{
					"indexed": true,
					"internalType": "address",
					"name": "from",
					"type": "address"
				},
				{
					"indexed": false,
					"internalType": "uint256",
					"name": "tokenId",
					"type": "uint256"
				},
				{
					"indexed": false,
					"internalType": "uint256",
					"name": "amount",
					"type": "uint256"
				},
				{
					"indexed": false,
					"internalType": "uint256",
					"name": "timestamp",
					"type": "uint256"
				}
			],
			"name": "SenderBurn",
			"type": "event"
		},
		{
			"anonymous": false,
			"inputs": [
				{
					"indexed": true,
					"internalType": "address",
					"name": "to",
					"type": "address"
				},
				{
					"indexed": false,
					"internalType": "uint256",
					"name": "tokenId",
					"type": "uint256"
				},
				{
					"indexed": false,
					"internalType": "uint256",
					"name": "amount",
					"type": "uint256"
				},
				{
					"indexed": false,
					"internalType": "uint256",
					"name": "timestamp",
					"type": "uint256"
				}
			],
			"name": "SenderMint",
			"type": "event"
		},
		{
			"anonymous": false,
			"inputs": [
				{
					"indexed": true,
					"internalType": "address",
					"name": "operator",
					"type": "address"
				},
				{
					"indexed": true,
					"internalType": "address",
					"name": "from",
					"type": "address"
				},
				{
					"indexed": true,
					"internalType": "address",
					"name": "to",
					"type": "address"
				},
				{
					"indexed": false,
					"internalType": "uint256[]",
					"name": "ids",
					"type": "uint256[]"
				},
				{
					"indexed": false,
					"internalType": "uint256[]",
					"name": "values",
					"type": "uint256[]"
				}
			],
			"name": "TransferBatch",
			"type": "event"
		},
		{
			"anonymous": false,
			"inputs": [
				{
					"indexed": true,
					"internalType": "address",
					"name": "operator",
					"type": "address"
				},
				{
					"indexed": true,
					"internalType": "address",
					"name": "from",
					"type": "address"
				},
				{
					"indexed": true,
					"internalType": "address",
					"name": "to",
					"type": "address"
				},
				{
					"indexed": false,
					"internalType": "uint256",
					"name": "id",
					"type": "uint256"
				},
				{
					"indexed": false,
					"internalType": "uint256",
					"name": "value",
					"type": "uint256"
				}
			],
			"name": "TransferSingle",
			"type": "event"
		},
		{
			"anonymous": false,
			"inputs": [
				{
					"indexed": false,
					"internalType": "string",
					"name": "value",
					"type": "string"
				},
				{
					"indexed": true,
					"internalType": "uint256",
					"name": "id",
					"type": "uint256"
				}
			],
			"name": "URI",
			"type": "event"
		},
		{
			"inputs": [
				{
					"internalType": "address",
					"name": "account",
					"type": "address"
				},
				{
					"internalType": "uint256",
					"name": "id",
					"type": "uint256"
				}
			],
			"name": "balanceOf",
			"outputs": [
				{
					"internalType": "uint256",
					"name": "",
					"type": "uint256"
				}
			],
			"stateMutability": "view",
			"type": "function"
		},
		{
			"inputs": [
				{
					"internalType": "address[]",
					"name": "accounts",
					"type": "address[]"
				},
				{
					"internalType": "uint256[]",
					"name": "ids",
					"type": "uint256[]"
				}
			],
			"name": "balanceOfBatch",
			"outputs": [
				{
					"internalType": "uint256[]",
					"name": "",
					"type": "uint256[]"
				}
			],
			"stateMutability": "view",
			"type": "function"
		},
		{
			"inputs": [
				{
					"internalType": "uint256",
					"name": "_tokenId",
					"type": "uint256"
				},
				{
					"internalType": "uint256",
					"name": "_amount",
					"type": "uint256"
				}
			],
			"name": "burn",
			"outputs": [],
			"stateMutability": "nonpayable",
			"type": "function"
		},
		{
			"inputs": [
				{
					"internalType": "uint256",
					"name": "",
					"type": "uint256"
				}
			],
			"name": "exists",
			"outputs": [
				{
					"internalType": "bool",
					"name": "",
					"type": "bool"
				}
			],
			"stateMutability": "view",
			"type": "function"
		},
		{
			"inputs": [
				{
					"internalType": "address",
					"name": "account",
					"type": "address"
				},
				{
					"internalType": "address",
					"name": "operator",
					"type": "address"
				}
			],
			"name": "isApprovedForAll",
			"outputs": [
				{
					"internalType": "bool",
					"name": "",
					"type": "bool"
				}
			],
			"stateMutability": "view",
			"type": "function"
		},
		{
			"inputs": [],
			"name": "name",
			"outputs": [
				{
					"internalType": "string",
					"name": "",
					"type": "string"
				}
			],
			"stateMutability": "view",
			"type": "function"
		},
		{
			"inputs": [],
			"name": "owner",
			"outputs": [
				{
					"internalType": "address",
					"name": "",
					"type": "address"
				}
			],
			"stateMutability": "view",
			"type": "function"
		},
		{
			"inputs": [],
			"name": "renounceOwnership",
			"outputs": [],
			"stateMutability": "nonpayable",
			"type": "function"
		},
		{
			"inputs": [
				{
					"internalType": "address",
					"name": "from",
					"type": "address"
				},
				{
					"internalType": "address",
					"name": "to",
					"type": "address"
				},
				{
					"internalType": "uint256[]",
					"name": "ids",
					"type": "uint256[]"
				},
				{
					"internalType": "uint256[]",
					"name": "amounts",
					"type": "uint256[]"
				},
				{
					"internalType": "bytes",
					"name": "data",
					"type": "bytes"
				}
			],
			"name": "safeBatchTransferFrom",
			"outputs": [],
			"stateMutability": "nonpayable",
			"type": "function"
		},
		{
			"inputs": [
				{
					"internalType": "address",
					"name": "from",
					"type": "address"
				},
				{
					"internalType": "address",
					"name": "to",
					"type": "address"
				},
				{
					"internalType": "uint256",
					"name": "id",
					"type": "uint256"
				},
				{
					"internalType": "uint256",
					"name": "amount",
					"type": "uint256"
				},
				{
					"internalType": "bytes",
					"name": "data",
					"type": "bytes"
				}
			],
			"name": "safeTransferFrom",
			"outputs": [],
			"stateMutability": "nonpayable",
			"type": "function"
		},
		{
			"inputs": [],
			"name": "senderMint",
			"outputs": [],
			"stateMutability": "nonpayable",
			"type": "function"
		},
		{
			"inputs": [
				{
					"internalType": "address",
					"name": "operator",
					"type": "address"
				},
				{
					"internalType": "bool",
					"name": "approved",
					"type": "bool"
				}
			],
			"name": "setApprovalForAll",
			"outputs": [],
			"stateMutability": "nonpayable",
			"type": "function"
		},
		{
			"inputs": [
				{
					"internalType": "address",
					"name": "_address",
					"type": "address"
				}
			],
			"name": "setReceiverContractAddress",
			"outputs": [],
			"stateMutability": "nonpayable",
			"type": "function"
		},
		{
			"inputs": [
				{
					"internalType": "bytes4",
					"name": "interfaceId",
					"type": "bytes4"
				}
			],
			"name": "supportsInterface",
			"outputs": [
				{
					"internalType": "bool",
					"name": "",
					"type": "bool"
				}
			],
			"stateMutability": "view",
			"type": "function"
		},
		{
			"inputs": [],
			"name": "symbol",
			"outputs": [
				{
					"internalType": "string",
					"name": "",
					"type": "string"
				}
			],
			"stateMutability": "view",
			"type": "function"
		},
		{
			"inputs": [
				{
					"internalType": "address",
					"name": "newOwner",
					"type": "address"
				}
			],
			"name": "transferOwnership",
			"outputs": [],
			"stateMutability": "nonpayable",
			"type": "function"
		},
		{
			"inputs": [
				{
					"internalType": "uint256",
					"name": "",
					"type": "uint256"
				}
			],
			"name": "uri",
			"outputs": [
				{
					"internalType": "string",
					"name": "",
					"type": "string"
				}
			],
			"stateMutability": "view",
			"type": "function"
		}
	]
}